{"contracts/MusicBattle.sol":{"MusicBattle":{"abi":[{"inputs":[{"internalType":"address","name":"_timeFeedAddress","type":"address"}],"stateMutability":"nonpayable","type":"constructor"},{"anonymous":false,"inputs":[{"indexed":true,"internalType":"uint256","name":"battleId","type":"uint256"},{"indexed":false,"internalType":"string","name":"winningTrack","type":"string"},{"indexed":false,"internalType":"address","name":"winner","type":"address"},{"indexed":false,"internalType":"address[]","name":"voters","type":"address[]"},{"indexed":false,"internalType":"bool","name":"isTie","type":"bool"}],"name":"BattleConcluded","type":"event"},{"anonymous":false,"inputs":[{"indexed":true,"internalType":"uint256","name":"battleId","type":"uint256"},{"indexed":false,"internalType":"string","name":"track1","type":"string"},{"indexed":false,"internalType":"string","name":"track2","type":"string"},{"indexed":false,"internalType":"address","name":"creatorTrack1","type":"address"},{"indexed":false,"internalType":"address","name":"creatorTrack2","type":"address"},{"indexed":false,"internalType":"uint256","name":"timestamp","type":"uint256"},{"indexed":false,"internalType":"uint256","name":"endTime","type":"uint256"}],"name":"BattleCreated","type":"event"},{"anonymous":false,"inputs":[{"indexed":true,"internalType":"uint256","name":"battleId","type":"uint256"},{"indexed":false,"internalType":"address","name":"winner","type":"address"}],"name":"BattleEnded","type":"event"},{"anonymous":false,"inputs":[{"indexed":false,"internalType":"uint256","name":"amount","type":"uint256"},{"indexed":true,"internalType":"address","name":"recipient","type":"address"}],"name":"FundsTransferredToOwner","type":"event"},{"anonymous":false,"inputs":[{"indexed":true,"internalType":"address","name":"recipient","type":"address"},{"indexed":false,"internalType":"uint256","name":"amount","type":"uint256"}],"name":"RewardPaid","type":"event"},{"anonymous":false,"inputs":[{"indexed":true,"internalType":"uint256","name":"battleId","type":"uint256"},{"indexed":false,"internalType":"uint256","name":"trackNumber","type":"uint256"},{"indexed":true,"internalType":"address","name":"voter","type":"address"}],"name":"VoteCast","type":"event"},{"inputs":[],"name":"MAX_BATTLES","outputs":[{"internalType":"uint256","name":"","type":"uint256"}],"stateMutability":"view","type":"function"},{"inputs":[],"name":"MAX_BATTLE_DURATION","outputs":[{"internalType":"uint256","name":"","type":"uint256"}],"stateMutability":"view","type":"function"},{"inputs":[],"name":"STARTING_FEES","outputs":[{"internalType":"uint256","name":"","type":"uint256"}],"stateMutability":"view","type":"function"},{"inputs":[],"name":"battleCount","outputs":[{"internalType":"uint256","name":"","type":"uint256"}],"stateMutability":"view","type":"function"},{"inputs":[{"internalType":"uint256","name":"battleId","type":"uint256"},{"internalType":"address","name":"userAddress","type":"address"}],"name":"battleVoters","outputs":[{"internalType":"bool","name":"","type":"bool"}],"stateMutability":"view","type":"function"},{"inputs":[{"internalType":"uint256","name":"","type":"uint256"}],"name":"battles","outputs":[{"internalType":"uint256","name":"id","type":"uint256"},{"internalType":"string","name":"track1","type":"string"},{"internalType":"string","name":"track2","type":"string"},{"internalType":"address","name":"creatorTrack1","type":"address"},{"internalType":"address","name":"creatorTrack2","type":"address"},{"internalType":"uint256","name":"votesTrack1","type":"uint256"},{"internalType":"uint256","name":"votesTrack2","type":"uint256"},{"internalType":"uint256","name":"timestamp","type":"uint256"},{"internalType":"uint256","name":"endTime","type":"uint256"},{"internalType":"bool","name":"isActive","type":"bool"},{"internalType":"address","name":"winner","type":"address"},{"internalType":"address","name":"battleCreator","type":"address"},{"internalType":"uint256","name":"startingFees","type":"uint256"},{"internalType":"uint256","name":"amountGivenByTrack1Voters","type":"uint256"},{"internalType":"uint256","name":"amountGivenByTrack2Voters","type":"uint256"}],"stateMutability":"view","type":"function"},{"inputs":[{"internalType":"uint256","name":"battleId","type":"uint256"}],"name":"closeBattle","outputs":[{"internalType":"uint256","name":"","type":"uint256"},{"internalType":"string","name":"","type":"string"}],"stateMutability":"nonpayable","type":"function"},{"inputs":[{"internalType":"string","name":"track1","type":"string"},{"internalType":"string","name":"track2","type":"string"},{"internalType":"address","name":"creatorTrack1","type":"address"},{"internalType":"address","name":"creatorTrack2","type":"address"}],"name":"createBattle","outputs":[{"internalType":"uint256","name":"","type":"uint256"}],"stateMutability":"payable","type":"function"},{"inputs":[],"name":"getBalance","outputs":[{"internalType":"uint256","name":"","type":"uint256"}],"stateMutability":"view","type":"function"},{"inputs":[{"internalType":"uint256","name":"battleId","type":"uint256"}],"name":"getBattleDetails","outputs":[{"internalType":"string","name":"track1","type":"string"},{"internalType":"string","name":"track2","type":"string"},{"internalType":"uint256","name":"votesTrack1","type":"uint256"},{"internalType":"uint256","name":"votesTrack2","type":"uint256"},{"internalType":"uint256","name":"timestamp","type":"uint256"},{"internalType":"bool","name":"isActive","type":"bool"},{"internalType":"address","name":"winner","type":"address"}],"stateMutability":"view","type":"function"},{"inputs":[{"internalType":"uint256","name":"battleId","type":"uint256"}],"name":"getBattleVotes","outputs":[{"internalType":"uint256","name":"track1Votes","type":"uint256"},{"internalType":"uint256","name":"track2Votes","type":"uint256"}],"stateMutability":"view","type":"function"},{"inputs":[],"name":"getCurrentTime","outputs":[{"internalType":"uint256","name":"","type":"uint256"}],"stateMutability":"view","type":"function"},{"inputs":[{"internalType":"uint256","name":"trackNumber","type":"uint256"},{"internalType":"uint256","name":"battleId","type":"uint256"}],"name":"getSpecificTrackVoters","outputs":[{"internalType":"address[]","name":"winnerVoters","type":"address[]"}],"stateMutability":"view","type":"function"},{"inputs":[{"internalType":"uint256","name":"battleId","type":"uint256"}],"name":"getTotalVoters","outputs":[{"internalType":"uint256","name":"","type":"uint256"}],"stateMutability":"view","type":"function"},{"inputs":[{"internalType":"bool","name":"_useOracle","type":"bool"}],"name":"toggleOracleTime","outputs":[],"stateMutability":"nonpayable","type":"function"},{"inputs":[{"internalType":"uint256","name":"amount","type":"uint256"},{"internalType":"address","name":"addressToSendMoney","type":"address"}],"name":"transferFundsFromContractToOwner","outputs":[{"internalType":"bool","name":"","type":"bool"}],"stateMutability":"nonpayable","type":"function"},{"inputs":[{"internalType":"uint256","name":"battleId","type":"uint256"},{"internalType":"uint256","name":"trackNumber","type":"uint256"},{"internalType":"address","name":"userAddress","type":"address"}],"name":"vote","outputs":[],"stateMutability":"payable","type":"function"},{"inputs":[{"internalType":"uint256","name":"battleId","type":"uint256"}],"name":"votersList","outputs":[{"internalType":"address[]","name":"_votersList","type":"address[]"}],"stateMutability":"view","type":"function"},{"stateMutability":"payable","type":"receive"}],"evm":{"bytecode":{"linkReferences":{},"object":"60803460b257601f61503738819003918201601f19168301916001600160401b0383118484101760b75780849260209460405283398101031260b257516001600160a01b0381169081900360b2576000805460ff60a01b1916600160a01b8117825560019190915560038054336001600160a01b0319909116179055811560aa5750600080546001600160a81b031916909117600160a01b1790555b604051614f6990816100ce8239f35b60005550609b565b600080fd5b634e487b7160e01b600052604160045260246000fdfe6080604052600436101561001b575b361561001957600080fd5b005b60003560e01c806312065fe01461123b5780631f66219314610d2457806320c0972814610cd457806329cb924d14610cb15780632ddb2fb214610c8357806341d2d27414610c6057806343d3a4c114610c1357806350d915831461080557806359058d8a146107e95780635918864414610793578063606d2e961461066f5780636563f0f61461065257806372ce73ab146104c2578063769a9f1314610485578063ac96cb0014610221578063e00b636314610203578063e54f0933146101b15763f0e26f800361000e57346101ac5760203660031901126101ac57600435801515806101a0575b61010c9061160c565b6000526002602052610160604060002060058101546006820154600b830154600d8401549161016e61014c6002610145600189016113d7565b97016113d7565b60405197889760e0895260e089019061149e565b90878203602089015261149e565b60408601949094526060850152608084015260ff8116151560a084015260081c6001600160a01b031660c08301520390f35b50600154811115610103565b600080fd5b346101ac5760203660031901126101ac576004358015158091036101ac576101e460018060a01b03600354163314614bb7565b6000805460ff60a01b191660a09290921b60ff60a01b16919091179055005b346101ac5760003660031901126101ac576020600154604051908152f35b346101ac5760403660031901126101ac5760043561023d611344565b61025260018060a01b03600354163314614bb7565b6040906000806102b66102ca855161026a87826112a9565b602081527f5472616e73616374696f6e2073656e64657220286d73672e73656e646572293a6020820152865192839163319af33360e01b6020840152886024840152606483019061149e565b33604483015203601f1981018352826112a9565b6020815191016a636f6e736f6c652e6c6f675afa50824710610441576001600160a01b0381169080319047600080808089885af13d1561043c573d61030e816112cb565b9061031b885192836112a9565b8152600060203d92013e5b156104065761033686479261183d565b036103c2578461034791319261153e565b0361037e577fa9d915569404027a481a1052014de432d725c4577d6a055ceadcbd5087a5fd8b602080948451908152a25160018152f35b815162461bcd60e51b815260206004820152601a60248201527f526563697069656e742062616c616e6365206d69736d617463680000000000006044820152606490fd5b835162461bcd60e51b815260206004820152601860248201527f5472616e7366657220616d6f756e74206d69736d6174636800000000000000006044820152606490fd5b845162461bcd60e51b815260206004820152600f60248201526e151c985b9cd9995c8819985a5b1959608a1b6044820152606490fd5b610326565b815162461bcd60e51b815260206004820152601d60248201527f496e73756666696369656e7420636f6e74726163742062616c616e63650000006044820152606490fd5b346101ac5760203660031901126101ac576104a1600435611a51565b906104be604051928392835260406020840152604083019061149e565b0390f35b346101ac5760203660031901126101ac5760043580151580610646575b6104e89061160c565b604060008061053b61054984516104ff86826112a9565b600c81526b2b37ba32b939903634b9ba1d60a11b6020820152855192839163104c13eb60e21b602084015260206024840152604483019061149e565b03601f1981018352826112a9565b6020815191016a636f6e736f6c652e6c6f675afa5060005b826000526002602052600882600020015461ffff821610156106105761ffff9083600052600260205260008061059c8360088784200161175a565b9054865163161765e160e11b602082015260039290921b1c6001600160a01b031660248083019190915281526105d36044826112a9565b6020815191016a636f6e736f6c652e6c6f675afa501661ffff81146105fa57600101610561565b634e487b7160e01b600052601160045260246000fd5b6104be6106358385600052600260205261063c60088260002001825193848092611650565b03836112a9565b519182918261135a565b506001548111156104df565b346101ac5760003660031901126101ac5760206040516103e88152f35b346101ac5760203660031901126101ac576004356000526002602052604060002080546001820161069f906113d7565b916106ac600282016113d7565b600160a01b6001900360038301541691600160a01b6001900360048201541660058201546006830154600b840154600c85015490600d86015492600160a01b60019003600e8801541694600f8801549660108901549860110154996040519d8e9d8e528d602081016101e090526101e0016107269161149e565b8d810360408f01526107379161149e565b60608d019b909b5260808c015260a08b015260c08a015260e089015261010088015260ff8116151561012088015260081c6001600160a01b03166101408701526101608601526101808501526101a08401526101c08301520390f35b346101ac5760203660031901126101ac57600435801515806107dd575b6107b99061160c565b60005260026020526040806000206006600582015491015482519182526020820152f35b506001548111156107b0565b346101ac5760003660031901126101ac576020604051603c8152f35b60603660031901126101ac5760243560043561081f61132e565b61082a3415156114e3565b81151580610c07575b61083c9061160c565b816000526002602052604060002090610853611571565b60ff600d8401541615610bcf57600c83015410610b8a576001841493848015610b80575b15610b44576001600160a01b038216948515610b08576007840192866000528360205260ff60406000205416610aca577f7fe1d4e6b34e228b5dc059fcdc037c71b216fb2417f47c171e505144a5e4f5fc946020948860005285526040600020600160ff198254161790556108ef8260088301611788565b60409260008061096f6109868c61053b89519161090c8b846112a9565b60138352722b37ba32b9103bb4ba341030b2323932b9b99d60691b8d8401528a516109378c826112a9565b60098152681a185cc81d9bdd195960ba1b8e8201528b5163e0e9ad4f60e01b602082015260606024820152958694608486019061149e565b91604485015260231984830301606485015261149e565b88815191016a636f6e736f6c652e6c6f675afa5015610a98576109f8916010826005670de0b6b3a764000094016109bd815461154b565b90556109cc8360098301611788565b6109e0848431046109db6117ce565b614bf4565b016109ec34825461153e565b905531046109db611809565b610a518151610a086060826112a9565b602781527f416d6f756e7420776520686176652072656365697665642066726f6d207468658582015266102b37ba32b91d60c91b83820152670de0b6b3a7640000340490614bf4565b610a91670de0b6b3a764000047048251610a6b84826112a9565b60158152742130b630b731b29037b31031b7b73a3930b1ba101d60591b86820152614bf4565b51908152a3005b610ac5916011826006670de0b6b3a76400009401610ab6815461154b565b90556109cc83600a8301611788565b6109f8565b60405162461bcd60e51b8152602060048201526016602482015275165bdd481a185d9948185b1c9958591e481d9bdd195960521b6044820152606490fd5b60405162461bcd60e51b8152602060048201526014602482015273496e76616c69642075736572206164647265737360601b6044820152606490fd5b60405162461bcd60e51b815260206004820152601460248201527324b73b30b634b2103a3930b1b590373ab6b132b960611b6044820152606490fd5b5060028114610877565b60405162461bcd60e51b815260206004820152601e60248201527f426174746c6520766f74696e6720706572696f642068617320656e64656400006044820152606490fd5b60405162461bcd60e51b815260206004820152601060248201526f10985d1d1b19481a185cc8195b99195960821b6044820152606490fd5b50600154821115610833565b346101ac5760203660031901126101ac5760043580151580610c54575b610c399061160c565b60005260026020526020600860406000200154604051908152f35b50600154811115610c30565b346101ac5760003660031901126101ac576020604051678ac7230489e800008152f35b346101ac5760403660031901126101ac576104be610ca5602435600435611693565b6040519182918261135a565b346101ac5760003660031901126101ac576020610ccc611571565b604051908152f35b346101ac5760403660031901126101ac57610ced611344565b600435600052600260205260076040600020019060018060a01b0316600052602052602060ff604060002054166040519015158152f35b60803660031901126101ac5760043567ffffffffffffffff81116101ac57610d509036906004016112e7565b60243567ffffffffffffffff81116101ac57610d709036906004016112e7565b610d7861132e565b906064359260018060a01b0384168094036101ac57610d983415156114e3565b8051151580611231575b156111f357600154926103e88410156111ae57610dbd611571565b93603c8501908186116105fa57610dd39061154b565b9485600155856000526002602052604060002095865560018601845167ffffffffffffffff81116110e257610e08825461139d565b601f8111611166575b50806020601f8211600114611103576000916110f8575b508160011b916000199060031b1c19161790555b8451966002870167ffffffffffffffff89116110e257610e5c815461139d565b98601f8a1161109a575b6020995089601f82116001146110085792610f52959282610f5f9b9a9996937f2b0f86f4308b4d7d35030e8403b47b32b3592cbadf1a5ba93fa44087a7fa289a9996600091610ffd575b508160011b916000199060031b1c19161790555b6003890160018060a01b0385166001600160601b0360a01b82541617905560048901816001600160601b0360a01b825416179055600e600b8a0199838b5584600c820155600d8101600160ff1982541617905534600f8201550160018060a01b0333166001600160601b0360a01b825416179055600154998a9860405197889760c0895260c089019061149e565b908782038e89015261149e565b6001600160a01b0390941660408601526060850152608084015260a08301520390a2610ff7604091610fc5848451610f9786826112a9565b601781527f426174746c65204372656174656420776974682049443a00000000000000000088820152614bf4565b548251610fd284826112a9565b60148152732130ba3a3632903a34b6b2b9ba30b6b81034b99d60611b86820152614bf4565b51908152f35b90508a01518e610eb0565b601f1982169083600052806000209160005b8181106110835750837f2b0f86f4308b4d7d35030e8403b47b32b3592cbadf1a5ba93fa44087a7fa289a999693610f52999693610f5f9e9d9c99966001941061106a575b5050811b019055610ec4565b8c015160001960f88460031b161c191690558e8061105e565b91928d60018192868f01518155019401920161101a565b816000526020600020601f820160051c81019a602083106110d8575b601f0160051c01995b8a81106110cc5750610e66565b600081556001016110bf565b909a508a906110b6565b634e487b7160e01b600052604160045260246000fd5b90508601518a610e28565b60008481528181209250601f198416905b81811061114e57509083600194939210611135575b5050811b019055610e3c565b88015160001960f88460031b161c191690558a80611129565b9192602060018192868d015181550194019201611114565b826000526020600020601f830160051c810191602084106111a4575b601f0160051c01905b8181106111985750610e11565b6000815560010161118b565b9091508190611182565b60405162461bcd60e51b815260206004820152601c60248201527f4d6178696d756d20626174746c65206c696d69742072656163686564000000006044820152606490fd5b60405162461bcd60e51b8152602060048201526016602482015275547261636b732063616e6e6f7420626520656d70747960501b6044820152606490fd5b5081511515610da2565b346101ac5760003660031901126101ac576020670de0b6b3a76400004704611299604091825161126b84826112a9565b601781527f616464726573732874686973292e62616c616e63653a2000000000000000000085820152614bf4565b51670de0b6b3a764000047048152f35b90601f8019910116810190811067ffffffffffffffff8211176110e257604052565b67ffffffffffffffff81116110e257601f01601f191660200190565b81601f820112156101ac578035906112fe826112cb565b9261130c60405194856112a9565b828452602083830101116101ac57816000926020809301838601378301015290565b604435906001600160a01b03821682036101ac57565b602435906001600160a01b03821682036101ac57565b602060408183019282815284518094520192019060005b81811061137e5750505090565b82516001600160a01b0316845260209384019390920191600101611371565b90600182811c921680156113cd575b60208310146113b757565b634e487b7160e01b600052602260045260246000fd5b91607f16916113ac565b90604051918260008254926113eb8461139d565b80845293600181169081156114595750600114611412575b50611410925003836112a9565b565b90506000929192526020600020906000915b81831061143d5750509060206114109282010138611403565b6020919350806001915483858901015201910190918492611424565b90506020925061141094915060ff191682840152151560051b82010138611403565b60005b83811061148e5750506000910152565b818101518382015260200161147e565b906020916114b78151809281855285808601910161147b565b601f01601f1916010190565b81156114cd570490565b634e487b7160e01b600052601260045260246000fd5b156114ea57565b60405162461bcd60e51b815260206004820152602660248201527f5061796d656e7420697320726571756972656420746f2073746172742061206260448201526530ba3a36329760d11b6064820152608490fd5b919082018092116105fa57565b60001981146105fa5760010190565b519069ffffffffffffffffffff821682036101ac57565b60005460ff8160a01c1661158457504290565b604051633fabe5a360e21b81529060a090829060049082906001600160a01b03165afa600091816115bd575b506115ba57504290565b90565b90915060a0813d60a011611604575b816115d960a093836112a9565b810103126101ac576115ea8161155a565b506115fc60806040830151920161155a565b5090386115b0565b3d91506115cc565b1561161357565b60405162461bcd60e51b815260206004820152601560248201527410985d1d1b1948191bd95cc81b9bdd08195e1a5cdd605a1b6044820152606490fd5b906020825491828152019160005260206000209060005b8181106116745750505090565b82546001600160a01b0316845260209093019260019283019201611667565b8115158061174e575b6116a59061160c565b6001811480918115611743575b501561170857156116e65760005260026020526116df6115ba600960406000200160405192838092611650565b03826112a9565b60005260026020526116df6115ba600a60406000200160405192838092611650565b60405162461bcd60e51b815260206004820152601360248201527224b73b30b634b2103a3930b1b5a73ab6b132b960691b6044820152606490fd5b6002915014386116b2565b5060015482111561169c565b80548210156117725760005260206000200190600090565b634e487b7160e01b600052603260045260246000fd5b8054680100000000000000008110156110e2576117aa9160018201815561175a565b81546001600160a01b0393841660039290921b91821b9390911b1916919091179055565b604051906117dd6040836112a9565b601782527f766f746572203120696e7469616c2062616c616e63653a0000000000000000006020830152565b604051906118186040836112a9565b60168252753b37ba32b910189030b33a32b9103130b630b731b29d60511b6020830152565b919082039182116105fa57565b7f446966666572656e636520696e20547261636b2043726561746f72203127732081526803130b630b731b29d160bd1b602082015260290190565b92916118cc60609160019360808752600b60808801526a2a3930b1b59018902bb7b760a91b60a0880152848060a01b0316602087015260c0604087015260c0860190611650565b930152565b92916118cc60609160019360808752600b60808801526a2a3930b1b59019102bb7b760a91b60a0880152848060a01b0316602087015260c0604087015260c0860190611650565b7f52656d61696e696e672042616c616e6365204c656674206f6e20636f6e74726181526231ba1d60e91b602082015260230190565b1561195457565b60405162461bcd60e51b815260206004820152601c60248201527f566f74657273206172726179206c656e677468206d69736d61746368000000006044820152606490fd5b156119a057565b60405162461bcd60e51b8152602060048201526015602482015274496e76616c696420766f746572206164647265737360581b6044820152606490fd5b7f416d6f756e742077696c6c20626520676976656e20746f206561636820766f7481526232b91d60e91b602082015260230190565b7f416d6f756e742077696c6c20626520676976656e20746f2057696e6e6572205481526c3930b1b59021b932b0ba37b91d60991b6020820152602d0190565b6040516020926060611a6385846112a9565b60008352479085611af36001601b611a84670de0b6b3a76400004704614c60565b60405194859181611a9e8185019c8d81519384920161147b565b83017f496e7469616c2042616c616e6365206f6620636f6e74726163743a000000000083820152611ad88251809385603b8501910161147b565b0101600560f91b838201520301601e198101845201826112a9565b611b6460016024611b0389614c60565b938a604051958692611b1d8385019c8d925192839161147b565b83017f417474656d7074696e6720746f20636c6f736520626174746c652077697468208382015263024a21d160e51b6040820152611ad8825180938560448501910161147b565b85151580614bab575b611b769061160c565b856000526002875260406000209460ff600d87015416600081600014614b7e5750611c2460016015604051611bac6040826112a9565b60048152637472756560e01b8d820152955b8c604051978892611bd7838501998a925192839161147b565b83017402130ba3a36329030b1ba34bb329039ba30ba329d1605d1b83820152611c09825180938560358501910161147b565b0101600560f91b838201520301601e198101865201846112a9565b15614b4257611cc4611cf260016011899796958c8096611ca4856019611c50611c4b611571565b614c60565b9585604051978892611c6a8385019889925192839161147b565b83017f43757272656e7420626c6f636b2074696d657374616d703a200000000000000083820152611c09825180938560398501910161147b565b611cb1600c8c0154614c60565b906040519788945180928587019061147b565b83017002130ba3a36329032b732103a34b6b29d1607d1b83820152611ad8825180938560318501910161147b565b601085015492611dfb60016025611d12670de0b6b3a76400008804614c60565b94602460118b015497611d2e670de0b6b3a76400008a04614c60565b90611de0816040519a86611d4b8d9851809285808c01910161147b565b87017f416d6f756e742052656365697665642066726f6d20547261636b203120766f74838201526332b9399d60e11b6040820152611d92825180938560448501910161147b565b010191600560f91b858401527f416d6f756e742052656365697665642066726f6d20547261636b203220766f74878401526332b9399d60e11b6045840152835193849160498501910161147b565b0101600560f91b838201520301601e198101855201836112a9565b611e816001601e611e2d670de0b6b3a7640000611e27600f611e1d8a8c61153e565b9c0154809c61153e565b04614c60565b948d6040519682611e47899451809285808801910161147b565b83017f546f74616c20616d6f756e742074686520426174746c6520686f6c64733a000083820152611de08251809385603e8501910161147b565b819560058901549260068a01549485851160001461297f5750505050505050611eed60168760405185611ebd829751809285808601910161147b565b8101752a3930b1b590189034b9903a3432903bb4b73732b90560511b8382015203016009198101855201836112a9565b601084015492601185015491611f068360011c8661153e565b93611f16600588015480966114c3565b94670429d069189e0000850294808604670429d069189e000014901517156105fa57670de0b6b3a76400008a95049660068901541561293b575b5050670de0b6b3a7640000850495611f6787614c60565b9185611f7c670de0b6b3a76400008404614c60565b60038b01546001600160a01b03169490829081611fa3670de0b6b3a7640000893104614c60565b936040519b878d9851908183808c01920191611fbe9261147b565b880101611fca906119dd565b818192519384910191611fdc9261147b565b01600560f91b8152600101611ff090611a12565b8181925193849101916120029261147b565b600560f91b9101908152600080516020614e7483398151915260018201526430ba37b90560d91b6021820152602601907602bb4b73732b9103130b630b731b2903132b337b9329d1604d1b825280518093601784019201916120639261147b565b01600560f91b601782015203601701601e198101865260010161208690866112a9565b8082319260008215600093849384938493612932575bf115612759578991670de0b6b3a76400008392046120b990614c60565b60038a01546001600160a01b0316906120dc670de0b6b3a7640000833104614c60565b604051958692818085018c819d5192839101916120f89261147b565b84018281017f547261636b20312043726561746f72207265636569766573203a20000000000090528151918284603b84019201916121359261147b565b0101600560f91b601b820152601c81017502bb4b73732b9103130b630b731b29030b33a32b91d160551b90528151918287603284019201916121769261147b565b01601b01600560f91b601782015203601701601e198101855260010161219c90856112a9565b31906121a79161183d565b670de0b6b3a7640000900494816121bd87614c60565b93816040519586928284019586915180926121d79261147b565b83018281017f446966666572656e636520696e2077696e6e657227732062616c616e63653a2090528151918284604084019201916122149261147b565b0101600560f91b838201520301601e198101845260010161223590846112a9565b829515612905575b5061230791506122fa6001601460058b9896979801549561225d87614c60565b856122e06122b6604051988561227c8b9751809284808b01910161147b565b8601017f5472616e7366657272696e672072657761726420746f2077696e6e657220766f8152643a32b9398560d91b602082015260250190565b917303130ba3a3632973b37ba32b9aa3930b1b5989d160651b83528351938491878501910161147b565b01600560f91b838201520301601e198101845201826112a9565b916009880154101561194d565b6000905b600587015482101561276e57906124236001601d899695946123486123338660098b0161175a565b858060a01b0391549060031b1c161515611999565b60148d612382670de0b6b3a764000061236d89600961236682614c60565b9e0161175a565b888060a01b0391549060031b1c163104614c60565b90612408816040519c8661239f8f9851809285808c01910161147b565b8701732bb4b73732b9102b37ba32b910273ab6b132b91d60611b838201526123d0825180938560348501910161147b565b0101917f57696e6e657220566f7465722062616c616e6365206265666f72653a2000000085840152835193849160318501910161147b565b0101600560f91b838201520301601e198101875201856112a9565b8660008080808961245687600961243c82828b0161175a565b905460039190911b1c6001600160a01b031631980161175a565b905460039190911b1c6001600160a01b0316828215612765575bf1156127595789809161248284614c60565b9661248c8a614c60565b8b848761249881614c60565b92600901906124a69161175a565b90546124cf91670de0b6b3a764000060039190911b9190911c6001600160a01b03163104614c60565b92816040519c868e9751908184808b019201916124eb9261147b565b8701828101600080516020614ef483398151915290528151918284604084019201916125169261147b565b0101828101620101d160ed1b90528151918284602384019201916125399261147b565b0101600560f91b600382015260048101732bb4b73732b9102b37ba32b910273ab6b132b91d60611b90528151918287601884019201916125789261147b565b0160030160158101600080516020614e5483398151915290528151918286603184019201916125a69261147b565b01601501600560f91b601c82015203601c01601e19810188526001016125cc90886112a9565b6125d98460098c0161175a565b90546125f3929160031b1c6001600160a01b03163161183d565b670de0b6b3a764000090049561260887614c60565b604051938491818084018581965192839101916126249261147b565b8301828101600080516020614f1483398151915290528151918284603f840192019161264f9261147b565b0101600560f91b601f82015203601f01601e198101845260010161267390846112a9565b829615612689575b50505060010190919261230b565b60019396509161053b6126eb612750936126af956040519687955180928488019061147b565b8401017f4d6f6e6579206973207265766572746564206261636b20746f2074686520636f815266373a3930b1ba0560c91b602082015260270190565b7f4f6e6520526561736f6e20697320746861742077616c6c657420636f6e74616981527f6e73206d6178696d756d20616c6c6f77656420616d6f756e74202c207768696360208201526c34101898161818181022aa240560991b6040820152604d0190565b9390893861267b565b6040513d6000823e3d90fd5b506108fc612470565b97959193505084935094909460ff19600d82015416600d820155600160a01b60019003600382015416908260405186848252600080516020614ed483398151915291a26040519160088392016127c49183611885565b03600080516020614e9483398151915291a26127e9670de0b6b3a76400004704614c60565b60405193849181808085018a819b5192839101916128069261147b565b84010161281290611918565b8181925193849101916128249261147b565b01600560f91b815203601e198101845260010161284190846112a9565b4761284b9161183d565b670de0b6b3a76400009004938161286186614c60565b938160405195869282840195869151809261287b9261147b565b8301828101600080516020614eb483398151915290528151918284604084019201916128a69261147b565b0101600560f91b838201520301601e19810184526001016128c790846112a9565b8294156128d8575b50505060019190565b6126af9394506126eb6128fc939261053b926040519687955180928488019061147b565b903880806128cf565b6126af9395506126eb612929939261053b926040519687955180928488019061147b565b9138888161223d565b506108fc61209c565b9450945094508260031b8315948482046008148617156105fa57600a61296192046114c3565b936012840293840460121417156105fa576064889304943880611f50565b8c86861015613283579450505050506129de925060169150604051856129ae829751809285808601910161147b565b8101752a3930b1b590191034b9903a3432903bb4b73732b90560511b8382015203016009198101855201836112a9565b6011840154926010850154916129f78360011c8661153e565b93612a07600688015480966114c3565b94670429d069189e0000850294808604670429d069189e000014901517156105fa57670de0b6b3a76400008a95049660058901541561323f575b5050670de0b6b3a7640000850495612a5887614c60565b9185612a6d670de0b6b3a76400008404614c60565b60048b01546001600160a01b03169490829081612a94670de0b6b3a7640000893104614c60565b936040519b878d9851908183808c01920191612aaf9261147b565b880101612abb906119dd565b818192519384910191612acd9261147b565b01600560f91b8152600101612ae190611a12565b818192519384910191612af39261147b565b600560f91b9101908152600080516020614e7483398151915260018201526430ba37b90560d91b6021820152602601907602bb4b73732b9103130b630b731b2903132b337b9329d1604d1b82528051809360178401920191612b549261147b565b01600560f91b601782015203601701601e1981018652600101612b7790866112a9565b8082319260008215600093849384938493613236575bf115612759578991670de0b6b3a7640000839204612baa90614c60565b60048a01546001600160a01b031690612bcd670de0b6b3a7640000833104614c60565b604051958692818085018c819d519283910191612be99261147b565b84018281017f547261636b20322043726561746f72207265636569766573203a20000000000090528151918284603b8401920191612c269261147b565b0101600560f91b601b820152601c81017502bb4b73732b9103130b630b731b29030b33a32b91d160551b9052815191828760328401920191612c679261147b565b01601b01600560f91b601782015203601701601e1981018552600101612c8d90856112a9565b3190612c989161183d565b670de0b6b3a764000090049481612cae87614c60565b9381604051958692828401958691518092612cc89261147b565b83018281017f446966666572656e636520696e2077696e6e657227732062616c616e63653a209052815191828460408401920191612d059261147b565b0101600560f91b838201520301601e1981018452600101612d2690846112a9565b829515613209575b50612da49150612d976001601460068b98969798015495612d4e87614c60565b856122e0612d6d604051988561227c8b9751809284808b01910161147b565b917303130ba3a3632973b37ba32b9aa3930b1b5991d160651b83528351938491878501910161147b565b91600a880154101561194d565b6000905b60068701548210156130725790612dee6001601d89969594612dd061233386600a8b0161175a565b60148d612382670de0b6b3a764000061236d89600a61236682614c60565b86600080808089612e0787600a61243c82828b0161175a565b905460039190911b1c6001600160a01b0316828215613069575bf11561275957898091612e3384614c60565b96612e3d8a614c60565b8b8487612e4981614c60565b92600a0190612e579161175a565b9054612e8091670de0b6b3a764000060039190911b9190911c6001600160a01b03163104614c60565b92816040519c868e9751908184808b01920191612e9c9261147b565b8701828101600080516020614ef48339815191529052815191828460408401920191612ec79261147b565b0101828101620101d160ed1b9052815191828460238401920191612eea9261147b565b0101600560f91b600382015260048101732bb4b73732b9102b37ba32b910273ab6b132b91d60611b9052815191828760188401920191612f299261147b565b0160030160158101600080516020614e548339815191529052815191828660318401920191612f579261147b565b01601501600560f91b601c82015203601c01601e1981018852600101612f7d90886112a9565b612f8a84600a8c0161175a565b9054612fa4929160031b1c6001600160a01b03163161183d565b670de0b6b3a7640000900495612fb987614c60565b60405193849181808401858196519283910191612fd59261147b565b8301828101600080516020614f1483398151915290528151918284603f84019201916130009261147b565b0101600560f91b601f82015203601f01601e198101845260010161302490846112a9565b82961561303a575b505050600101909192612da8565b60019396509161053b6126eb613060936126af956040519687955180928488019061147b565b9390893861302c565b506108fc612e21565b97959193505084935094909460ff19600d82015416600d820155600160a01b60019003600482015416908260405186848252600080516020614ed483398151915291a26040519160088392016130c891836118d1565b03600080516020614e9483398151915291a26130ed670de0b6b3a76400004704614c60565b60405193849181808085018a819b51928391019161310a9261147b565b84010161311690611918565b8181925193849101916131289261147b565b01600560f91b815203601e198101845260010161314590846112a9565b4761314f9161183d565b670de0b6b3a76400009004938161316586614c60565b938160405195869282840195869151809261317f9261147b565b8301828101600080516020614eb483398151915290528151918284604084019201916131aa9261147b565b0101600560f91b838201520301601e19810184526001016131cb90846112a9565b8294156131dc575b50505060029190565b6126af9394506126eb613200939261053b926040519687955180928488019061147b565b903880806131d3565b6126af9395506126eb61322d939261053b926040519687955180928488019061147b565b91388881612d2e565b506108fc612b8d565b9450945094508260031b8315948482046008148617156105fa57600a61326592046114c3565b936012840293840460121417156105fa576064889304943880612a41565b61330592939495969950602b6132fe9160409e9a9e9c999c51866132b0829851809285808601910161147b565b81016e2a3432b9329034b99030902a34b28560891b838201527f547261636b20312026203220617265207468652077696e6e6572730a00000000602f8201520301600b8101865201846112a9565b829961153e565b93670b1a2bc2ec500000850294808604670b1a2bc2ec50000014901517156105fa578b976133329161153e565b1561406e5750505061336190670de0b6b3a764000061335a600589015460068a01549061153e565b91046114c3565b93600a613377601088015460118901549061153e565b0460011c9060018060a01b03600388015416613442600160496133a4670de0b6b3a7640000853104614c60565b604051998a91816133be818501998a81519384920161147b565b8301600080516020614e74833981519152838201526630ba37b910188560c91b60408201527f547261636b2043726561746f72203127732042616c616e6365206265666f726560478201526101d160f51b6067820152613427825180938560698501910161147b565b0101600560f91b838201520301601e198101895201876112a9565b600080808086853195828215614065575bf1156127595789918291613470670de0b6b3a76400008604614c60565b60038b015490986001600160a01b0390911690613497670de0b6b3a7640000833104614c60565b856040519b8c938285019788915180926134b09261147b565b84018281017f547261636b20312043726561746f72207265636569766573203a20000000000090528151918284603b84019201916134ed9261147b565b0101600560f91b601b820152601c81017f547261636b2043726561746f72203127732042616c616e63652061667465723a9052603c8101600160fd1b90528151918288603d84019201916135409261147b565b01601b01600560f91b602282015203602201601e1981018a52600101613566908a6112a9565b31906135719161183d565b670de0b6b3a76400009004968261358789614c60565b60405195869381850195869151809261359f9261147b565b8401016135ab9061184a565b8181925193849101916135bd9261147b565b01600560f91b815203601e19810184526001016135da90846112a9565b829615614038575b50505060048601546001600160a01b0316906136ad6001604961360f670de0b6b3a7640000863104614c60565b978c60405199826136298c9451809285808801910161147b565b8301600080516020614e74833981519152838201526630ba37b910190560c91b60408201527f547261636b2043726561746f72203227732042616c616e6365206265666f726560478201526101d160f51b6067820152613692825180938560698501910161147b565b0101600560f91b838201520301601e198101885201866112a9565b60008080808486319682821561402f575bf115612759578891670de0b6b3a76400008392046136db90614c60565b600489015490966001600160a01b0390911690613702670de0b6b3a7640000833104614c60565b8460405199838b945190818480880192019161371d9261147b565b84018281017f547261636b20322043726561746f72207265636569766573203a20000000000090528151918284603b840192019161375a9261147b565b0101600560f91b601b820152601c81017f547261636b2043726561746f72203227732042616c616e63652061667465723a9052603c8101600160fd1b90528151918287603d84019201916137ad9261147b565b01601b01600560f91b602282015203602201601e19810188526001016137d390886112a9565b31906137de9161183d565b670de0b6b3a76400009004946137f386614c60565b6040519384918180840185819651928391019161380f9261147b565b83018281017f446966666572656e636520696e20547261636b2043726561746f7220322773209052604081016803130b630b731b29d160bd1b905281519182846049840192019161385f9261147b565b0101600560f91b602982015203602901601e198101845260010161388390846112a9565b829515614002575b506138b891506138ab6001601460058a9896979801549561225d87614c60565b916009870154101561194d565b6000905b6005860154821015613bc8579061393a6001601d889695946138e46123338660098b0161175a565b601461391d670de0b6b3a764000061390888600961390182614c60565b9d0161175a565b878060a01b0391549060031b1c163104614c60565b8d612408816040519c8661239f8f9851809285808c01910161147b565b8560008080808961395387600961243c82828b0161175a565b905460039190911b1c6001600160a01b0316828215613bbf575bf1156127595788809161397f84614c60565b96613993670de0b6b3a76400008a04614c60565b8a848761399f81614c60565b92600901906139ad9161175a565b90546139d691670de0b6b3a764000060039190911b9190911c6001600160a01b03163104614c60565b92816040519c868e9751908184808b019201916139f29261147b565b8701828101600080516020614ef48339815191529052815191828460408401920191613a1d9261147b565b0101828101620101d160ed1b9052815191828460238401920191613a409261147b565b0101600560f91b600382015260048101732bb4b73732b9102b37ba32b910273ab6b132b91d60611b9052815191828760188401920191613a7f9261147b565b0160030160158101600080516020614e548339815191529052815191828660318401920191613aad9261147b565b01601501600560f91b601c82015203601c01601e1981018852600101613ad390886112a9565b613ae08460098b0161175a565b9054613afa929160031b1c6001600160a01b03163161183d565b670de0b6b3a7640000900495613b0f87614c60565b60405193849181808401858196519283910191613b2b9261147b565b8301828101600080516020614f1483398151915290528151918284603f8401920191613b569261147b565b0101600560f91b601f82015203601f01601e1981018452600101613b7a90846112a9565b829615613b90575b5050506001019091926138bc565b60019396509161053b6126eb613bb6936126af956040519687955180928488019061147b565b93908838613b82565b506108fc61396d565b905094909194613be2600a8601546006870154111561194d565b6000905b6006860154821015613eb95790613c2b6001601d88969594613c0e61233386600a8b0161175a565b601461391d670de0b6b3a764000061390888600a61390182614c60565b85600080808089613c4487600a61243c82828b0161175a565b905460039190911b1c6001600160a01b0316828215613eb0575bf11561275957888091613c7084614c60565b96613c84670de0b6b3a76400008a04614c60565b8a8487613c9081614c60565b92600a0190613c9e9161175a565b9054613cc791670de0b6b3a764000060039190911b9190911c6001600160a01b03163104614c60565b92816040519c868e9751908184808b01920191613ce39261147b565b8701828101600080516020614ef48339815191529052815191828460408401920191613d0e9261147b565b0101828101620101d160ed1b9052815191828460238401920191613d319261147b565b0101600560f91b600382015260048101732bb4b73732b9102b37ba32b910273ab6b132b91d60611b9052815191828760188401920191613d709261147b565b0160030160158101600080516020614e548339815191529052815191828660318401920191613d9e9261147b565b01601501600560f91b601c82015203601c01601e1981018852600101613dc490886112a9565b613dd184600a8b0161175a565b9054613deb929160031b1c6001600160a01b03163161183d565b670de0b6b3a7640000900495613e0087614c60565b60405193849181808401858196519283910191613e1c9261147b565b8301828101600080516020614f1483398151915290528151918284603f8401920191613e479261147b565b0101600560f91b601f82015203601f01601e1981018452600101613e6b90846112a9565b829615613e81575b505050600101909192613be6565b60019396509161053b6126eb613ea7936126af956040519687955180928488019061147b565b93908838613e73565b506108fc613c5e565b91905060019350613fa29660219396600080516020614e94833981519152600a613ffc9860ff19600d82015416600d820155613f5b898060a01b0360038301541685600080516020614ed483398151915288604051848152a285600080516020614ed4833981519152888d8060a01b03600487015416604051908152a2858560405180613f4a600988018683611885565b0390a26040519384930190836118d1565b0390a2613fe281613f84670de0b6b3a7640000611e27613f7c824704614c60565b96479061183d565b93613fb7613faa83806040519e8f8b83829d5194859301910161147b565b890101611918565b918281519485920161147b565b0191600560f91b8352600080516020614eb4833981519152878401528351938491878501910161147b565b01600560f91b838201520301601e198101855201836112a9565b60009190565b6126af9395506126eb614026939261053b926040519687955180928488019061147b565b9138878161388b565b506108fc6136be565b6126af9396506126eb61405c939261053b926040519687955180928488019061147b565b923888816135e2565b506108fc613453565b600e89018054959a939997985092966001600160a01b039095169493509061409585614d21565b886140aa670de0b6b3a7640000883104614c60565b6040519a8b93818086018881995192839101916140c69261147b565b732a3432b9329030b932903737903b37ba32b9398560611b908601838101919091527f53656e64696e6720353025206d6f6e6579206f66205374617274696e6720426160348201527f74746c652046656573204261636b20746f2074686520706572736f6e2077616c60548201527f6c65742077686f20737461727465642074686520626174746c650a000000000060748201527f426174746c652043726561746f7220616464726573733a000000000000000000608f82015281519161419590839060a6840190860161147b565b010190600560f91b6086830152608782016e24b73a34b0b6102130b630b731b29d60891b905280518093609684019201916141cf9261147b565b01608601600560f91b601082015203601001601e19810189526001016141f590896112a9565b6005810290808204600514901517156105fa5760008080600a819404883198828215614b39575bf11561275957905489938492916001600160a01b0316614246670de0b6b3a7640000823104614c60565b98846040519a8b928284019687915180926142609261147b565b83018281017f41667465722047657474696e67205061796d656e742042616c616e63653a000090528151918284603e840192019161429d9261147b565b0101600560f91b601e82015203601e01601e1981018a526001016142c1908a6112a9565b31906142cc9161183d565b670de0b6b3a7640000900496826142e289614c60565b6040519485938185019586915180926142fa9261147b565b8401016143069061184a565b8181925193849101916143189261147b565b01600560f91b815203601e198101835260010161433590836112a9565b819615614b0d575b50506003810180546001600160a01b031661435781614d21565b8461436c670de0b6b3a7640000843104614c60565b604051968793818086018d819e5192839101916143889261147b565b7f53656e64696e6720323025206d6f6e6579206f66205374617274696e67204261908601838101919091527f74746c65204665657320746f2043726561746f72206f6620547261636b20313a6040820152600560f91b8e8201527f43726561746f72206f6620547261636b203120616464726573733a0000000000606182015281519161441d908390607c840190860161147b565b010190600560f91b605c830152605d82016e24b73a34b0b6102130b630b731b29d60891b905280518093606c84019201916144579261147b565b01605c01600560f91b601082015203601001601e198101855260010161447d90856112a9565b600f8301548060011b90808204600214901517156105fa5760008080600a819404853195828215614b04575bf1156127595781548a91906001600160a01b03166144d1670de0b6b3a7640000823104614c60565b95836040519788928284019c8d915180926144eb9261147b565b83018281017f41667465722047657474696e67205061796d656e742042616c616e63653a000090528151918284603e84019201916145289261147b565b0101600560f91b601e82015203601e01601e198101875260010161454c90876112a9565b31906145579161183d565b670de0b6b3a76400009004938161456d86614c60565b6040519384938185019b8c915180926145859261147b565b8401016145919061184a565b8181925193849101916145a39261147b565b01600560f91b815203601e19810182526001016145c090826112a9565b8981941597605c98614ad7575b50905060048301936146e9600160108b828060a01b038954169b8c96614606670de0b6b3a76400006145fe8a614d21565b993104614c60565b90611de0816040519a8b9682614625818a019d8e81519384920161147b565b8801907f53656e64696e6720323025206d6f6e6579206f66205374617274696e67204261848301527f74746c65204665657320746f2043726561746f72206f6620547261636b20323a6040830152600560f91b908201527f43726561746f72206f6620547261636b203220616464726573733a000000000060618201526146b58251809385607c8501910161147b565b010191600560f91b858401526e24b73a34b0b6102130b630b731b29d60891b605d8401528351938491606c8501910161147b565b600f8401548060011b90808204600214901517156105fa5760008080600a8194048c319c828215614ace575bf1156127595784548b98899390916001600160a01b031690614741670de0b6b3a7640000833104614c60565b906040519e8f92839282840197889151809261475c9261147b565b83018281017f41667465722047657474696e67205061796d656e742042616c616e63653a000090528151918284603e84019201916147999261147b565b0101600560f91b601e82015203601e01601e19810182526001016147bc916112a9565b31906147c79161183d565b670de0b6b3a764000090049a826147dd8d614c60565b6040519485938185019586915180926147f59261147b565b8401016148019061184a565b8181925193849101916148139261147b565b01600560f91b815203601e198101835260010161483090836112a9565b819a15614aa2575b5050600f82015490818004600114821517156105fa57600a859204670de0b6b3a7640000900461486790614c60565b9787604051998a92828085019e8f90805192839101916148869261147b565b8401908382017f313025206f6620626174746c6520666565732072656d61696e73206261636b209052604082017f696e2074686520636f6e747261637420617320636f6e74726163742066756e649052600560f91b9082015260618101751898129037b3103130ba3a3632903332b2b99034b99d60511b90528151918284607784019201916149149261147b565b0101600560f91b605782015203605701601e198101895260010161493890896112a9565b81600052600287526040600020600d0160ff198154169055600160a01b60019003905416928160405188868252600080516020614ed483398151915291a2546040516001600160a01b039091168152600080516020614ed4833981519152908790a28260405180600984016149ae908683611885565b03600080516020614e9483398151915291a260405191600a8392016149d391836118d1565b03600080516020614e9483398151915291a2816149f9670de0b6b3a76400004704614c60565b9147614a049161183d565b670de0b6b3a76400009004614a1890614c60565b9181604051978896519081838901614a2f9261147b565b860101614a3b90611918565b818192519384910191614a4d9261147b565b0190600560f91b825260018201600080516020614eb483398151915290528051809360218401920191614a7f9261147b565b01600560f91b602182015203602101601e1981018352600101613ffc90836112a9565b6126af929a509061053b6126eb89614ac6946040519687955180928488019061147b565b973880614838565b506108fc614715565b6126af9395506126eb614afb939261053b926040519687955180928488019061147b565b913889816145cd565b506108fc6144a9565b6126af9296509061053b6126eb85614b31946040519687955180928488019061147b565b93388061433d565b506108fc61421c565b60405162461bcd60e51b815260048101899052601460248201527310985d1d1b1948185b1c9958591e48195b99195960621b6044820152606490fd5b50611c2460016015604051614b946040826112a9565b600581526466616c736560d81b8d82015295611bbe565b50600154861115611b6d565b15614bbe57565b60405162461bcd60e51b815260206004820152600e60248201526d139bdd08185d5d1a1bdc9a5e995960921b6044820152606490fd5b614c24614c38600093928493604051938492632d839cb360e21b602085015260406024850152606484019061149e565b90604483015203601f1981018352826112a9565b6020815191016a636f6e736f6c652e6c6f675afa50565b908151811015611772570160200190565b8015614d015780816000925b614ced5750614c7a826112cb565b91614c8860405193846112a9565b808352601f19614c97826112cb565b01366020850137815b614ca957505090565b600a820660300191826030116105fa5781156105fa5760001990910191600a919060f81b6001600160f81b03191660001a614ce48486614c4f565b53049081614ca0565b91614cf9600a9161154b565b920480614c6c565b50604051614d106040826112a9565b60018152600360fc1b602082015290565b60018060a01b03166040805190614d3881836112a9565b601082526f181899199a1a9b1b9c1cb0b131b232b360811b60208301525191614d626060846112a9565b602a83526020830160403682378351156117725760309053825160011015611772576078602184015360005b60148110614d9c5750505090565b600c81018082116105fa5760208110156117725782901a6001600160f81b0319614dcd600483901c600f1686614c4f565b51168260011b90838204600214841517156105fa578160020190816002116105fa57614dfd9060001a9188614c4f565b536000916001600160f81b031990614e1890600f1687614c4f565b5116906003019182600311614e3f576001939291614e38911a9187614c4f565b5301614d8e565b634e487b7160e01b81526011600452602490fdfe57696e6e657220566f7465722062616c616e63652061667465723a20000000005472616e7366657272696e672072657761726420746f20547261636b204372652612c6adacf40b3d23af9f122675592f3cd72a91a36328d69cd2587315afd78b446966666572656e636520696e20636f6e74726163742042616c616e6365203a31441bdee20d4f2b04147c4adc8cb7987cd9a676c7774dfc5540a7897d0781f8416d6f756e742072656369657665642062792074686520766f746572204e6f3a446966666572656e636520696e20766f74657227732062616c616e63653a2000a2646970667358221220496f4fc12f47438b6998bde10c23c62c7657143f138e9179bc1b3733fcec094664736f6c634300081c0033","opcodes":"PUSH1 0x80 CALLVALUE PUSH1 0xB2 JUMPI PUSH1 0x1F PUSH2 0x5037 CODESIZE DUP2 SWAP1 SUB SWAP2 DUP3 ADD PUSH1 0x1F NOT AND DUP4 ADD SWAP2 PUSH1 0x1 PUSH1 0x1 PUSH1 0x40 SHL SUB DUP4 GT DUP5 DUP5 LT OR PUSH1 0xB7 JUMPI DUP1 DUP5 SWAP3 PUSH1 0x20 SWAP5 PUSH1 0x40 MSTORE DUP4 CODECOPY DUP2 ADD SUB SLT PUSH1 0xB2 JUMPI MLOAD PUSH1 0x1 PUSH1 0x1 PUSH1 0xA0 SHL SUB DUP2 AND SWAP1 DUP2 SWAP1 SUB PUSH1 0xB2 JUMPI PUSH1 0x0 DUP1 SLOAD PUSH1 0xFF PUSH1 0xA0 SHL NOT AND PUSH1 0x1 PUSH1 0xA0 SHL DUP2 OR DUP3 SSTORE PUSH1 0x1 SWAP2 SWAP1 SWAP2 SSTORE PUSH1 0x3 DUP1 SLOAD CALLER PUSH1 0x1 PUSH1 0x1 PUSH1 0xA0 SHL SUB NOT SWAP1 SWAP2 AND OR SWAP1 SSTORE DUP2 ISZERO PUSH1 0xAA JUMPI POP PUSH1 0x0 DUP1 SLOAD PUSH1 0x1 PUSH1 0x1 PUSH1 0xA8 SHL SUB NOT AND SWAP1 SWAP2 OR PUSH1 0x1 PUSH1 0xA0 SHL OR SWAP1 SSTORE JUMPDEST PUSH1 0x40 MLOAD PUSH2 0x4F69 SWAP1 DUP2 PUSH2 0xCE DUP3 CODECOPY RETURN JUMPDEST PUSH1 0x0 SSTORE POP PUSH1 0x9B JUMP JUMPDEST PUSH1 0x0 DUP1 REVERT JUMPDEST PUSH4 0x4E487B71 PUSH1 0xE0 SHL PUSH1 0x0 MSTORE PUSH1 0x41 PUSH1 0x4 MSTORE PUSH1 0x24 PUSH1 0x0 REVERT INVALID PUSH1 0x80 PUSH1 0x40 MSTORE PUSH1 0x4 CALLDATASIZE LT ISZERO PUSH2 0x1B JUMPI JUMPDEST CALLDATASIZE ISZERO PUSH2 0x19 JUMPI PUSH1 0x0 DUP1 REVERT JUMPDEST STOP JUMPDEST PUSH1 0x0 CALLDATALOAD PUSH1 0xE0 SHR DUP1 PUSH4 0x12065FE0 EQ PUSH2 0x123B JUMPI DUP1 PUSH4 0x1F662193 EQ PUSH2 0xD24 JUMPI DUP1 PUSH4 0x20C09728 EQ PUSH2 0xCD4 JUMPI DUP1 PUSH4 0x29CB924D EQ PUSH2 0xCB1 JUMPI DUP1 PUSH4 0x2DDB2FB2 EQ PUSH2 0xC83 JUMPI DUP1 PUSH4 0x41D2D274 EQ PUSH2 0xC60 JUMPI DUP1 PUSH4 0x43D3A4C1 EQ PUSH2 0xC13 JUMPI DUP1 PUSH4 0x50D91583 EQ PUSH2 0x805 JUMPI DUP1 PUSH4 0x59058D8A EQ PUSH2 0x7E9 JUMPI DUP1 PUSH4 0x59188644 EQ PUSH2 0x793 JUMPI DUP1 PUSH4 0x606D2E96 EQ PUSH2 0x66F JUMPI DUP1 PUSH4 0x6563F0F6 EQ PUSH2 0x652 JUMPI DUP1 PUSH4 0x72CE73AB EQ PUSH2 0x4C2 JUMPI DUP1 PUSH4 0x769A9F13 EQ PUSH2 0x485 JUMPI DUP1 PUSH4 0xAC96CB00 EQ PUSH2 0x221 JUMPI DUP1 PUSH4 0xE00B6363 EQ PUSH2 0x203 JUMPI DUP1 PUSH4 0xE54F0933 EQ PUSH2 0x1B1 JUMPI PUSH4 0xF0E26F80 SUB PUSH2 0xE JUMPI CALLVALUE PUSH2 0x1AC JUMPI PUSH1 0x20 CALLDATASIZE PUSH1 0x3 NOT ADD SLT PUSH2 0x1AC JUMPI PUSH1 0x4 CALLDATALOAD DUP1 ISZERO ISZERO DUP1 PUSH2 0x1A0 JUMPI JUMPDEST PUSH2 0x10C SWAP1 PUSH2 0x160C JUMP JUMPDEST PUSH1 0x0 MSTORE PUSH1 0x2 PUSH1 0x20 MSTORE PUSH2 0x160 PUSH1 0x40 PUSH1 0x0 KECCAK256 PUSH1 0x5 DUP2 ADD SLOAD PUSH1 0x6 DUP3 ADD SLOAD PUSH1 0xB DUP4 ADD SLOAD PUSH1 0xD DUP5 ADD SLOAD SWAP2 PUSH2 0x16E PUSH2 0x14C PUSH1 0x2 PUSH2 0x145 PUSH1 0x1 DUP10 ADD PUSH2 0x13D7 JUMP JUMPDEST SWAP8 ADD PUSH2 0x13D7 JUMP JUMPDEST PUSH1 0x40 MLOAD SWAP8 DUP9 SWAP8 PUSH1 0xE0 DUP10 MSTORE PUSH1 0xE0 DUP10 ADD SWAP1 PUSH2 0x149E JUMP JUMPDEST SWAP1 DUP8 DUP3 SUB PUSH1 0x20 DUP10 ADD MSTORE PUSH2 0x149E JUMP JUMPDEST PUSH1 0x40 DUP7 ADD SWAP5 SWAP1 SWAP5 MSTORE PUSH1 0x60 DUP6 ADD MSTORE PUSH1 0x80 DUP5 ADD MSTORE PUSH1 0xFF DUP2 AND ISZERO ISZERO PUSH1 0xA0 DUP5 ADD MSTORE PUSH1 0x8 SHR PUSH1 0x1 PUSH1 0x1 PUSH1 0xA0 SHL SUB AND PUSH1 0xC0 DUP4 ADD MSTORE SUB SWAP1 RETURN JUMPDEST POP PUSH1 0x1 SLOAD DUP2 GT ISZERO PUSH2 0x103 JUMP JUMPDEST PUSH1 0x0 DUP1 REVERT JUMPDEST CALLVALUE PUSH2 0x1AC JUMPI PUSH1 0x20 CALLDATASIZE PUSH1 0x3 NOT ADD SLT PUSH2 0x1AC JUMPI PUSH1 0x4 CALLDATALOAD DUP1 ISZERO ISZERO DUP1 SWAP2 SUB PUSH2 0x1AC JUMPI PUSH2 0x1E4 PUSH1 0x1 DUP1 PUSH1 0xA0 SHL SUB PUSH1 0x3 SLOAD AND CALLER EQ PUSH2 0x4BB7 JUMP JUMPDEST PUSH1 0x0 DUP1 SLOAD PUSH1 0xFF PUSH1 0xA0 SHL NOT AND PUSH1 0xA0 SWAP3 SWAP1 SWAP3 SHL PUSH1 0xFF PUSH1 0xA0 SHL AND SWAP2 SWAP1 SWAP2 OR SWAP1 SSTORE STOP JUMPDEST CALLVALUE PUSH2 0x1AC JUMPI PUSH1 0x0 CALLDATASIZE PUSH1 0x3 NOT ADD SLT PUSH2 0x1AC JUMPI PUSH1 0x20 PUSH1 0x1 SLOAD PUSH1 0x40 MLOAD SWAP1 DUP2 MSTORE RETURN JUMPDEST CALLVALUE PUSH2 0x1AC JUMPI PUSH1 0x40 CALLDATASIZE PUSH1 0x3 NOT ADD SLT PUSH2 0x1AC JUMPI PUSH1 0x4 CALLDATALOAD PUSH2 0x23D PUSH2 0x1344 JUMP JUMPDEST PUSH2 0x252 PUSH1 0x1 DUP1 PUSH1 0xA0 SHL SUB PUSH1 0x3 SLOAD AND CALLER EQ PUSH2 0x4BB7 JUMP JUMPDEST PUSH1 0x40 SWAP1 PUSH1 0x0 DUP1 PUSH2 0x2B6 PUSH2 0x2CA DUP6 MLOAD PUSH2 0x26A DUP8 DUP3 PUSH2 0x12A9 JUMP JUMPDEST PUSH1 0x20 DUP2 MSTORE PUSH32 0x5472616E73616374696F6E2073656E64657220286D73672E73656E646572293A PUSH1 0x20 DUP3 ADD MSTORE DUP7 MLOAD SWAP3 DUP4 SWAP2 PUSH4 0x319AF333 PUSH1 0xE0 SHL PUSH1 0x20 DUP5 ADD MSTORE DUP9 PUSH1 0x24 DUP5 ADD MSTORE PUSH1 0x64 DUP4 ADD SWAP1 PUSH2 0x149E JUMP JUMPDEST CALLER PUSH1 0x44 DUP4 ADD MSTORE SUB PUSH1 0x1F NOT DUP2 ADD DUP4 MSTORE DUP3 PUSH2 0x12A9 JUMP JUMPDEST PUSH1 0x20 DUP2 MLOAD SWAP2 ADD PUSH11 0x636F6E736F6C652E6C6F67 GAS STATICCALL POP DUP3 SELFBALANCE LT PUSH2 0x441 JUMPI PUSH1 0x1 PUSH1 0x1 PUSH1 0xA0 SHL SUB DUP2 AND SWAP1 DUP1 BALANCE SWAP1 SELFBALANCE PUSH1 0x0 DUP1 DUP1 DUP1 DUP10 DUP9 GAS CALL RETURNDATASIZE ISZERO PUSH2 0x43C JUMPI RETURNDATASIZE PUSH2 0x30E DUP2 PUSH2 0x12CB JUMP JUMPDEST SWAP1 PUSH2 0x31B DUP9 MLOAD SWAP3 DUP4 PUSH2 0x12A9 JUMP JUMPDEST DUP2 MSTORE PUSH1 0x0 PUSH1 0x20 RETURNDATASIZE SWAP3 ADD RETURNDATACOPY JUMPDEST ISZERO PUSH2 0x406 JUMPI PUSH2 0x336 DUP7 SELFBALANCE SWAP3 PUSH2 0x183D JUMP JUMPDEST SUB PUSH2 0x3C2 JUMPI DUP5 PUSH2 0x347 SWAP2 BALANCE SWAP3 PUSH2 0x153E JUMP JUMPDEST SUB PUSH2 0x37E JUMPI PUSH32 0xA9D915569404027A481A1052014DE432D725C4577D6A055CEADCBD5087A5FD8B PUSH1 0x20 DUP1 SWAP5 DUP5 MLOAD SWAP1 DUP2 MSTORE LOG2 MLOAD PUSH1 0x1 DUP2 MSTORE RETURN JUMPDEST DUP2 MLOAD PUSH3 0x461BCD PUSH1 0xE5 SHL DUP2 MSTORE PUSH1 0x20 PUSH1 0x4 DUP3 ADD MSTORE PUSH1 0x1A PUSH1 0x24 DUP3 ADD MSTORE PUSH32 0x526563697069656E742062616C616E6365206D69736D61746368000000000000 PUSH1 0x44 DUP3 ADD MSTORE PUSH1 0x64 SWAP1 REVERT JUMPDEST DUP4 MLOAD PUSH3 0x461BCD PUSH1 0xE5 SHL DUP2 MSTORE PUSH1 0x20 PUSH1 0x4 DUP3 ADD MSTORE PUSH1 0x18 PUSH1 0x24 DUP3 ADD MSTORE PUSH32 0x5472616E7366657220616D6F756E74206D69736D617463680000000000000000 PUSH1 0x44 DUP3 ADD MSTORE PUSH1 0x64 SWAP1 REVERT JUMPDEST DUP5 MLOAD PUSH3 0x461BCD PUSH1 0xE5 SHL DUP2 MSTORE PUSH1 0x20 PUSH1 0x4 DUP3 ADD MSTORE PUSH1 0xF PUSH1 0x24 DUP3 ADD MSTORE PUSH15 0x151C985B9CD9995C8819985A5B1959 PUSH1 0x8A SHL PUSH1 0x44 DUP3 ADD MSTORE PUSH1 0x64 SWAP1 REVERT JUMPDEST PUSH2 0x326 JUMP JUMPDEST DUP2 MLOAD PUSH3 0x461BCD PUSH1 0xE5 SHL DUP2 MSTORE PUSH1 0x20 PUSH1 0x4 DUP3 ADD MSTORE PUSH1 0x1D PUSH1 0x24 DUP3 ADD MSTORE PUSH32 0x496E73756666696369656E7420636F6E74726163742062616C616E6365000000 PUSH1 0x44 DUP3 ADD MSTORE PUSH1 0x64 SWAP1 REVERT JUMPDEST CALLVALUE PUSH2 0x1AC JUMPI PUSH1 0x20 CALLDATASIZE PUSH1 0x3 NOT ADD SLT PUSH2 0x1AC JUMPI PUSH2 0x4A1 PUSH1 0x4 CALLDATALOAD PUSH2 0x1A51 JUMP JUMPDEST SWAP1 PUSH2 0x4BE PUSH1 0x40 MLOAD SWAP3 DUP4 SWAP3 DUP4 MSTORE PUSH1 0x40 PUSH1 0x20 DUP5 ADD MSTORE PUSH1 0x40 DUP4 ADD SWAP1 PUSH2 0x149E JUMP JUMPDEST SUB SWAP1 RETURN JUMPDEST CALLVALUE PUSH2 0x1AC JUMPI PUSH1 0x20 CALLDATASIZE PUSH1 0x3 NOT ADD SLT PUSH2 0x1AC JUMPI PUSH1 0x4 CALLDATALOAD DUP1 ISZERO ISZERO DUP1 PUSH2 0x646 JUMPI JUMPDEST PUSH2 0x4E8 SWAP1 PUSH2 0x160C JUMP JUMPDEST PUSH1 0x40 PUSH1 0x0 DUP1 PUSH2 0x53B PUSH2 0x549 DUP5 MLOAD PUSH2 0x4FF DUP7 DUP3 PUSH2 0x12A9 JUMP JUMPDEST PUSH1 0xC DUP2 MSTORE PUSH12 0x2B37BA32B939903634B9BA1D PUSH1 0xA1 SHL PUSH1 0x20 DUP3 ADD MSTORE DUP6 MLOAD SWAP3 DUP4 SWAP2 PUSH4 0x104C13EB PUSH1 0xE2 SHL PUSH1 0x20 DUP5 ADD MSTORE PUSH1 0x20 PUSH1 0x24 DUP5 ADD MSTORE PUSH1 0x44 DUP4 ADD SWAP1 PUSH2 0x149E JUMP JUMPDEST SUB PUSH1 0x1F NOT DUP2 ADD DUP4 MSTORE DUP3 PUSH2 0x12A9 JUMP JUMPDEST PUSH1 0x20 DUP2 MLOAD SWAP2 ADD PUSH11 0x636F6E736F6C652E6C6F67 GAS STATICCALL POP PUSH1 0x0 JUMPDEST DUP3 PUSH1 0x0 MSTORE PUSH1 0x2 PUSH1 0x20 MSTORE PUSH1 0x8 DUP3 PUSH1 0x0 KECCAK256 ADD SLOAD PUSH2 0xFFFF DUP3 AND LT ISZERO PUSH2 0x610 JUMPI PUSH2 0xFFFF SWAP1 DUP4 PUSH1 0x0 MSTORE PUSH1 0x2 PUSH1 0x20 MSTORE PUSH1 0x0 DUP1 PUSH2 0x59C DUP4 PUSH1 0x8 DUP8 DUP5 KECCAK256 ADD PUSH2 0x175A JUMP JUMPDEST SWAP1 SLOAD DUP7 MLOAD PUSH4 0x161765E1 PUSH1 0xE1 SHL PUSH1 0x20 DUP3 ADD MSTORE PUSH1 0x3 SWAP3 SWAP1 SWAP3 SHL SHR PUSH1 0x1 PUSH1 0x1 PUSH1 0xA0 SHL SUB AND PUSH1 0x24 DUP1 DUP4 ADD SWAP2 SWAP1 SWAP2 MSTORE DUP2 MSTORE PUSH2 0x5D3 PUSH1 0x44 DUP3 PUSH2 0x12A9 JUMP JUMPDEST PUSH1 0x20 DUP2 MLOAD SWAP2 ADD PUSH11 0x636F6E736F6C652E6C6F67 GAS STATICCALL POP AND PUSH2 0xFFFF DUP2 EQ PUSH2 0x5FA JUMPI PUSH1 0x1 ADD PUSH2 0x561 JUMP JUMPDEST PUSH4 0x4E487B71 PUSH1 0xE0 SHL PUSH1 0x0 MSTORE PUSH1 0x11 PUSH1 0x4 MSTORE PUSH1 0x24 PUSH1 0x0 REVERT JUMPDEST PUSH2 0x4BE PUSH2 0x635 DUP4 DUP6 PUSH1 0x0 MSTORE PUSH1 0x2 PUSH1 0x20 MSTORE PUSH2 0x63C PUSH1 0x8 DUP3 PUSH1 0x0 KECCAK256 ADD DUP3 MLOAD SWAP4 DUP5 DUP1 SWAP3 PUSH2 0x1650 JUMP JUMPDEST SUB DUP4 PUSH2 0x12A9 JUMP JUMPDEST MLOAD SWAP2 DUP3 SWAP2 DUP3 PUSH2 0x135A JUMP JUMPDEST POP PUSH1 0x1 SLOAD DUP2 GT ISZERO PUSH2 0x4DF JUMP JUMPDEST CALLVALUE PUSH2 0x1AC JUMPI PUSH1 0x0 CALLDATASIZE PUSH1 0x3 NOT ADD SLT PUSH2 0x1AC JUMPI PUSH1 0x20 PUSH1 0x40 MLOAD PUSH2 0x3E8 DUP2 MSTORE RETURN JUMPDEST CALLVALUE PUSH2 0x1AC JUMPI PUSH1 0x20 CALLDATASIZE PUSH1 0x3 NOT ADD SLT PUSH2 0x1AC JUMPI PUSH1 0x4 CALLDATALOAD PUSH1 0x0 MSTORE PUSH1 0x2 PUSH1 0x20 MSTORE PUSH1 0x40 PUSH1 0x0 KECCAK256 DUP1 SLOAD PUSH1 0x1 DUP3 ADD PUSH2 0x69F SWAP1 PUSH2 0x13D7 JUMP JUMPDEST SWAP2 PUSH2 0x6AC PUSH1 0x2 DUP3 ADD PUSH2 0x13D7 JUMP JUMPDEST PUSH1 0x1 PUSH1 0xA0 SHL PUSH1 0x1 SWAP1 SUB PUSH1 0x3 DUP4 ADD SLOAD AND SWAP2 PUSH1 0x1 PUSH1 0xA0 SHL PUSH1 0x1 SWAP1 SUB PUSH1 0x4 DUP3 ADD SLOAD AND PUSH1 0x5 DUP3 ADD SLOAD PUSH1 0x6 DUP4 ADD SLOAD PUSH1 0xB DUP5 ADD SLOAD PUSH1 0xC DUP6 ADD SLOAD SWAP1 PUSH1 0xD DUP7 ADD SLOAD SWAP3 PUSH1 0x1 PUSH1 0xA0 SHL PUSH1 0x1 SWAP1 SUB PUSH1 0xE DUP9 ADD SLOAD AND SWAP5 PUSH1 0xF DUP9 ADD SLOAD SWAP7 PUSH1 0x10 DUP10 ADD SLOAD SWAP9 PUSH1 0x11 ADD SLOAD SWAP10 PUSH1 0x40 MLOAD SWAP14 DUP15 SWAP14 DUP15 MSTORE DUP14 PUSH1 0x20 DUP2 ADD PUSH2 0x1E0 SWAP1 MSTORE PUSH2 0x1E0 ADD PUSH2 0x726 SWAP2 PUSH2 0x149E JUMP JUMPDEST DUP14 DUP2 SUB PUSH1 0x40 DUP16 ADD MSTORE PUSH2 0x737 SWAP2 PUSH2 0x149E JUMP JUMPDEST PUSH1 0x60 DUP14 ADD SWAP12 SWAP1 SWAP12 MSTORE PUSH1 0x80 DUP13 ADD MSTORE PUSH1 0xA0 DUP12 ADD MSTORE PUSH1 0xC0 DUP11 ADD MSTORE PUSH1 0xE0 DUP10 ADD MSTORE PUSH2 0x100 DUP9 ADD MSTORE PUSH1 0xFF DUP2 AND ISZERO ISZERO PUSH2 0x120 DUP9 ADD MSTORE PUSH1 0x8 SHR PUSH1 0x1 PUSH1 0x1 PUSH1 0xA0 SHL SUB AND PUSH2 0x140 DUP8 ADD MSTORE PUSH2 0x160 DUP7 ADD MSTORE PUSH2 0x180 DUP6 ADD MSTORE PUSH2 0x1A0 DUP5 ADD MSTORE PUSH2 0x1C0 DUP4 ADD MSTORE SUB SWAP1 RETURN JUMPDEST CALLVALUE PUSH2 0x1AC JUMPI PUSH1 0x20 CALLDATASIZE PUSH1 0x3 NOT ADD SLT PUSH2 0x1AC JUMPI PUSH1 0x4 CALLDATALOAD DUP1 ISZERO ISZERO DUP1 PUSH2 0x7DD JUMPI JUMPDEST PUSH2 0x7B9 SWAP1 PUSH2 0x160C JUMP JUMPDEST PUSH1 0x0 MSTORE PUSH1 0x2 PUSH1 0x20 MSTORE PUSH1 0x40 DUP1 PUSH1 0x0 KECCAK256 PUSH1 0x6 PUSH1 0x5 DUP3 ADD SLOAD SWAP2 ADD SLOAD DUP3 MLOAD SWAP2 DUP3 MSTORE PUSH1 0x20 DUP3 ADD MSTORE RETURN JUMPDEST POP PUSH1 0x1 SLOAD DUP2 GT ISZERO PUSH2 0x7B0 JUMP JUMPDEST CALLVALUE PUSH2 0x1AC JUMPI PUSH1 0x0 CALLDATASIZE PUSH1 0x3 NOT ADD SLT PUSH2 0x1AC JUMPI PUSH1 0x20 PUSH1 0x40 MLOAD PUSH1 0x3C DUP2 MSTORE RETURN JUMPDEST PUSH1 0x60 CALLDATASIZE PUSH1 0x3 NOT ADD SLT PUSH2 0x1AC JUMPI PUSH1 0x24 CALLDATALOAD PUSH1 0x4 CALLDATALOAD PUSH2 0x81F PUSH2 0x132E JUMP JUMPDEST PUSH2 0x82A CALLVALUE ISZERO ISZERO PUSH2 0x14E3 JUMP JUMPDEST DUP2 ISZERO ISZERO DUP1 PUSH2 0xC07 JUMPI JUMPDEST PUSH2 0x83C SWAP1 PUSH2 0x160C JUMP JUMPDEST DUP2 PUSH1 0x0 MSTORE PUSH1 0x2 PUSH1 0x20 MSTORE PUSH1 0x40 PUSH1 0x0 KECCAK256 SWAP1 PUSH2 0x853 PUSH2 0x1571 JUMP JUMPDEST PUSH1 0xFF PUSH1 0xD DUP5 ADD SLOAD AND ISZERO PUSH2 0xBCF JUMPI PUSH1 0xC DUP4 ADD SLOAD LT PUSH2 0xB8A JUMPI PUSH1 0x1 DUP5 EQ SWAP4 DUP5 DUP1 ISZERO PUSH2 0xB80 JUMPI JUMPDEST ISZERO PUSH2 0xB44 JUMPI PUSH1 0x1 PUSH1 0x1 PUSH1 0xA0 SHL SUB DUP3 AND SWAP5 DUP6 ISZERO PUSH2 0xB08 JUMPI PUSH1 0x7 DUP5 ADD SWAP3 DUP7 PUSH1 0x0 MSTORE DUP4 PUSH1 0x20 MSTORE PUSH1 0xFF PUSH1 0x40 PUSH1 0x0 KECCAK256 SLOAD AND PUSH2 0xACA JUMPI PUSH32 0x7FE1D4E6B34E228B5DC059FCDC037C71B216FB2417F47C171E505144A5E4F5FC SWAP5 PUSH1 0x20 SWAP5 DUP9 PUSH1 0x0 MSTORE DUP6 MSTORE PUSH1 0x40 PUSH1 0x0 KECCAK256 PUSH1 0x1 PUSH1 0xFF NOT DUP3 SLOAD AND OR SWAP1 SSTORE PUSH2 0x8EF DUP3 PUSH1 0x8 DUP4 ADD PUSH2 0x1788 JUMP JUMPDEST PUSH1 0x40 SWAP3 PUSH1 0x0 DUP1 PUSH2 0x96F PUSH2 0x986 DUP13 PUSH2 0x53B DUP10 MLOAD SWAP2 PUSH2 0x90C DUP12 DUP5 PUSH2 0x12A9 JUMP JUMPDEST PUSH1 0x13 DUP4 MSTORE PUSH19 0x2B37BA32B9103BB4BA341030B2323932B9B99D PUSH1 0x69 SHL DUP14 DUP5 ADD MSTORE DUP11 MLOAD PUSH2 0x937 DUP13 DUP3 PUSH2 0x12A9 JUMP JUMPDEST PUSH1 0x9 DUP2 MSTORE PUSH9 0x1A185CC81D9BDD1959 PUSH1 0xBA SHL DUP15 DUP3 ADD MSTORE DUP12 MLOAD PUSH4 0xE0E9AD4F PUSH1 0xE0 SHL PUSH1 0x20 DUP3 ADD MSTORE PUSH1 0x60 PUSH1 0x24 DUP3 ADD MSTORE SWAP6 DUP7 SWAP5 PUSH1 0x84 DUP7 ADD SWAP1 PUSH2 0x149E JUMP JUMPDEST SWAP2 PUSH1 0x44 DUP6 ADD MSTORE PUSH1 0x23 NOT DUP5 DUP4 SUB ADD PUSH1 0x64 DUP6 ADD MSTORE PUSH2 0x149E JUMP JUMPDEST DUP9 DUP2 MLOAD SWAP2 ADD PUSH11 0x636F6E736F6C652E6C6F67 GAS STATICCALL POP ISZERO PUSH2 0xA98 JUMPI PUSH2 0x9F8 SWAP2 PUSH1 0x10 DUP3 PUSH1 0x5 PUSH8 0xDE0B6B3A7640000 SWAP5 ADD PUSH2 0x9BD DUP2 SLOAD PUSH2 0x154B JUMP JUMPDEST SWAP1 SSTORE PUSH2 0x9CC DUP4 PUSH1 0x9 DUP4 ADD PUSH2 0x1788 JUMP JUMPDEST PUSH2 0x9E0 DUP5 DUP5 BALANCE DIV PUSH2 0x9DB PUSH2 0x17CE JUMP JUMPDEST PUSH2 0x4BF4 JUMP JUMPDEST ADD PUSH2 0x9EC CALLVALUE DUP3 SLOAD PUSH2 0x153E JUMP JUMPDEST SWAP1 SSTORE BALANCE DIV PUSH2 0x9DB PUSH2 0x1809 JUMP JUMPDEST PUSH2 0xA51 DUP2 MLOAD PUSH2 0xA08 PUSH1 0x60 DUP3 PUSH2 0x12A9 JUMP JUMPDEST PUSH1 0x27 DUP2 MSTORE PUSH32 0x416D6F756E7420776520686176652072656365697665642066726F6D20746865 DUP6 DUP3 ADD MSTORE PUSH7 0x102B37BA32B91D PUSH1 0xC9 SHL DUP4 DUP3 ADD MSTORE PUSH8 0xDE0B6B3A7640000 CALLVALUE DIV SWAP1 PUSH2 0x4BF4 JUMP JUMPDEST PUSH2 0xA91 PUSH8 0xDE0B6B3A7640000 SELFBALANCE DIV DUP3 MLOAD PUSH2 0xA6B DUP5 DUP3 PUSH2 0x12A9 JUMP JUMPDEST PUSH1 0x15 DUP2 MSTORE PUSH21 0x2130B630B731B29037B31031B7B73A3930B1BA101D PUSH1 0x59 SHL DUP7 DUP3 ADD MSTORE PUSH2 0x4BF4 JUMP JUMPDEST MLOAD SWAP1 DUP2 MSTORE LOG3 STOP JUMPDEST PUSH2 0xAC5 SWAP2 PUSH1 0x11 DUP3 PUSH1 0x6 PUSH8 0xDE0B6B3A7640000 SWAP5 ADD PUSH2 0xAB6 DUP2 SLOAD PUSH2 0x154B JUMP JUMPDEST SWAP1 SSTORE PUSH2 0x9CC DUP4 PUSH1 0xA DUP4 ADD PUSH2 0x1788 JUMP JUMPDEST PUSH2 0x9F8 JUMP JUMPDEST PUSH1 0x40 MLOAD PUSH3 0x461BCD PUSH1 0xE5 SHL DUP2 MSTORE PUSH1 0x20 PUSH1 0x4 DUP3 ADD MSTORE PUSH1 0x16 PUSH1 0x24 DUP3 ADD MSTORE PUSH22 0x165BDD481A185D9948185B1C9958591E481D9BDD1959 PUSH1 0x52 SHL PUSH1 0x44 DUP3 ADD MSTORE PUSH1 0x64 SWAP1 REVERT JUMPDEST PUSH1 0x40 MLOAD PUSH3 0x461BCD PUSH1 0xE5 SHL DUP2 MSTORE PUSH1 0x20 PUSH1 0x4 DUP3 ADD MSTORE PUSH1 0x14 PUSH1 0x24 DUP3 ADD MSTORE PUSH20 0x496E76616C696420757365722061646472657373 PUSH1 0x60 SHL PUSH1 0x44 DUP3 ADD MSTORE PUSH1 0x64 SWAP1 REVERT JUMPDEST PUSH1 0x40 MLOAD PUSH3 0x461BCD PUSH1 0xE5 SHL DUP2 MSTORE PUSH1 0x20 PUSH1 0x4 DUP3 ADD MSTORE PUSH1 0x14 PUSH1 0x24 DUP3 ADD MSTORE PUSH20 0x24B73B30B634B2103A3930B1B590373AB6B132B9 PUSH1 0x61 SHL PUSH1 0x44 DUP3 ADD MSTORE PUSH1 0x64 SWAP1 REVERT JUMPDEST POP PUSH1 0x2 DUP2 EQ PUSH2 0x877 JUMP JUMPDEST PUSH1 0x40 MLOAD PUSH3 0x461BCD PUSH1 0xE5 SHL DUP2 MSTORE PUSH1 0x20 PUSH1 0x4 DUP3 ADD MSTORE PUSH1 0x1E PUSH1 0x24 DUP3 ADD MSTORE PUSH32 0x426174746C6520766F74696E6720706572696F642068617320656E6465640000 PUSH1 0x44 DUP3 ADD MSTORE PUSH1 0x64 SWAP1 REVERT JUMPDEST PUSH1 0x40 MLOAD PUSH3 0x461BCD PUSH1 0xE5 SHL DUP2 MSTORE PUSH1 0x20 PUSH1 0x4 DUP3 ADD MSTORE PUSH1 0x10 PUSH1 0x24 DUP3 ADD MSTORE PUSH16 0x10985D1D1B19481A185CC8195B991959 PUSH1 0x82 SHL PUSH1 0x44 DUP3 ADD MSTORE PUSH1 0x64 SWAP1 REVERT JUMPDEST POP PUSH1 0x1 SLOAD DUP3 GT ISZERO PUSH2 0x833 JUMP JUMPDEST CALLVALUE PUSH2 0x1AC JUMPI PUSH1 0x20 CALLDATASIZE PUSH1 0x3 NOT ADD SLT PUSH2 0x1AC JUMPI PUSH1 0x4 CALLDATALOAD DUP1 ISZERO ISZERO DUP1 PUSH2 0xC54 JUMPI JUMPDEST PUSH2 0xC39 SWAP1 PUSH2 0x160C JUMP JUMPDEST PUSH1 0x0 MSTORE PUSH1 0x2 PUSH1 0x20 MSTORE PUSH1 0x20 PUSH1 0x8 PUSH1 0x40 PUSH1 0x0 KECCAK256 ADD SLOAD PUSH1 0x40 MLOAD SWAP1 DUP2 MSTORE RETURN JUMPDEST POP PUSH1 0x1 SLOAD DUP2 GT ISZERO PUSH2 0xC30 JUMP JUMPDEST CALLVALUE PUSH2 0x1AC JUMPI PUSH1 0x0 CALLDATASIZE PUSH1 0x3 NOT ADD SLT PUSH2 0x1AC JUMPI PUSH1 0x20 PUSH1 0x40 MLOAD PUSH8 0x8AC7230489E80000 DUP2 MSTORE RETURN JUMPDEST CALLVALUE PUSH2 0x1AC JUMPI PUSH1 0x40 CALLDATASIZE PUSH1 0x3 NOT ADD SLT PUSH2 0x1AC JUMPI PUSH2 0x4BE PUSH2 0xCA5 PUSH1 0x24 CALLDATALOAD PUSH1 0x4 CALLDATALOAD PUSH2 0x1693 JUMP JUMPDEST PUSH1 0x40 MLOAD SWAP2 DUP3 SWAP2 DUP3 PUSH2 0x135A JUMP JUMPDEST CALLVALUE PUSH2 0x1AC JUMPI PUSH1 0x0 CALLDATASIZE PUSH1 0x3 NOT ADD SLT PUSH2 0x1AC JUMPI PUSH1 0x20 PUSH2 0xCCC PUSH2 0x1571 JUMP JUMPDEST PUSH1 0x40 MLOAD SWAP1 DUP2 MSTORE RETURN JUMPDEST CALLVALUE PUSH2 0x1AC JUMPI PUSH1 0x40 CALLDATASIZE PUSH1 0x3 NOT ADD SLT PUSH2 0x1AC JUMPI PUSH2 0xCED PUSH2 0x1344 JUMP JUMPDEST PUSH1 0x4 CALLDATALOAD PUSH1 0x0 MSTORE PUSH1 0x2 PUSH1 0x20 MSTORE PUSH1 0x7 PUSH1 0x40 PUSH1 0x0 KECCAK256 ADD SWAP1 PUSH1 0x1 DUP1 PUSH1 0xA0 SHL SUB AND PUSH1 0x0 MSTORE PUSH1 0x20 MSTORE PUSH1 0x20 PUSH1 0xFF PUSH1 0x40 PUSH1 0x0 KECCAK256 SLOAD AND PUSH1 0x40 MLOAD SWAP1 ISZERO ISZERO DUP2 MSTORE RETURN JUMPDEST PUSH1 0x80 CALLDATASIZE PUSH1 0x3 NOT ADD SLT PUSH2 0x1AC JUMPI PUSH1 0x4 CALLDATALOAD PUSH8 0xFFFFFFFFFFFFFFFF DUP2 GT PUSH2 0x1AC JUMPI PUSH2 0xD50 SWAP1 CALLDATASIZE SWAP1 PUSH1 0x4 ADD PUSH2 0x12E7 JUMP JUMPDEST PUSH1 0x24 CALLDATALOAD PUSH8 0xFFFFFFFFFFFFFFFF DUP2 GT PUSH2 0x1AC JUMPI PUSH2 0xD70 SWAP1 CALLDATASIZE SWAP1 PUSH1 0x4 ADD PUSH2 0x12E7 JUMP JUMPDEST PUSH2 0xD78 PUSH2 0x132E JUMP JUMPDEST SWAP1 PUSH1 0x64 CALLDATALOAD SWAP3 PUSH1 0x1 DUP1 PUSH1 0xA0 SHL SUB DUP5 AND DUP1 SWAP5 SUB PUSH2 0x1AC JUMPI PUSH2 0xD98 CALLVALUE ISZERO ISZERO PUSH2 0x14E3 JUMP JUMPDEST DUP1 MLOAD ISZERO ISZERO DUP1 PUSH2 0x1231 JUMPI JUMPDEST ISZERO PUSH2 0x11F3 JUMPI PUSH1 0x1 SLOAD SWAP3 PUSH2 0x3E8 DUP5 LT ISZERO PUSH2 0x11AE JUMPI PUSH2 0xDBD PUSH2 0x1571 JUMP JUMPDEST SWAP4 PUSH1 0x3C DUP6 ADD SWAP1 DUP2 DUP7 GT PUSH2 0x5FA JUMPI PUSH2 0xDD3 SWAP1 PUSH2 0x154B JUMP JUMPDEST SWAP5 DUP6 PUSH1 0x1 SSTORE DUP6 PUSH1 0x0 MSTORE PUSH1 0x2 PUSH1 0x20 MSTORE PUSH1 0x40 PUSH1 0x0 KECCAK256 SWAP6 DUP7 SSTORE PUSH1 0x1 DUP7 ADD DUP5 MLOAD PUSH8 0xFFFFFFFFFFFFFFFF DUP2 GT PUSH2 0x10E2 JUMPI PUSH2 0xE08 DUP3 SLOAD PUSH2 0x139D JUMP JUMPDEST PUSH1 0x1F DUP2 GT PUSH2 0x1166 JUMPI JUMPDEST POP DUP1 PUSH1 0x20 PUSH1 0x1F DUP3 GT PUSH1 0x1 EQ PUSH2 0x1103 JUMPI PUSH1 0x0 SWAP2 PUSH2 0x10F8 JUMPI JUMPDEST POP DUP2 PUSH1 0x1 SHL SWAP2 PUSH1 0x0 NOT SWAP1 PUSH1 0x3 SHL SHR NOT AND OR SWAP1 SSTORE JUMPDEST DUP5 MLOAD SWAP7 PUSH1 0x2 DUP8 ADD PUSH8 0xFFFFFFFFFFFFFFFF DUP10 GT PUSH2 0x10E2 JUMPI PUSH2 0xE5C DUP2 SLOAD PUSH2 0x139D JUMP JUMPDEST SWAP9 PUSH1 0x1F DUP11 GT PUSH2 0x109A JUMPI JUMPDEST PUSH1 0x20 SWAP10 POP DUP10 PUSH1 0x1F DUP3 GT PUSH1 0x1 EQ PUSH2 0x1008 JUMPI SWAP3 PUSH2 0xF52 SWAP6 SWAP3 DUP3 PUSH2 0xF5F SWAP12 SWAP11 SWAP10 SWAP7 SWAP4 PUSH32 0x2B0F86F4308B4D7D35030E8403B47B32B3592CBADF1A5BA93FA44087A7FA289A SWAP10 SWAP7 PUSH1 0x0 SWAP2 PUSH2 0xFFD JUMPI JUMPDEST POP DUP2 PUSH1 0x1 SHL SWAP2 PUSH1 0x0 NOT SWAP1 PUSH1 0x3 SHL SHR NOT AND OR SWAP1 SSTORE JUMPDEST PUSH1 0x3 DUP10 ADD PUSH1 0x1 DUP1 PUSH1 0xA0 SHL SUB DUP6 AND PUSH1 0x1 PUSH1 0x1 PUSH1 0x60 SHL SUB PUSH1 0xA0 SHL DUP3 SLOAD AND OR SWAP1 SSTORE PUSH1 0x4 DUP10 ADD DUP2 PUSH1 0x1 PUSH1 0x1 PUSH1 0x60 SHL SUB PUSH1 0xA0 SHL DUP3 SLOAD AND OR SWAP1 SSTORE PUSH1 0xE PUSH1 0xB DUP11 ADD SWAP10 DUP4 DUP12 SSTORE DUP5 PUSH1 0xC DUP3 ADD SSTORE PUSH1 0xD DUP2 ADD PUSH1 0x1 PUSH1 0xFF NOT DUP3 SLOAD AND OR SWAP1 SSTORE CALLVALUE PUSH1 0xF DUP3 ADD SSTORE ADD PUSH1 0x1 DUP1 PUSH1 0xA0 SHL SUB CALLER AND PUSH1 0x1 PUSH1 0x1 PUSH1 0x60 SHL SUB PUSH1 0xA0 SHL DUP3 SLOAD AND OR SWAP1 SSTORE PUSH1 0x1 SLOAD SWAP10 DUP11 SWAP9 PUSH1 0x40 MLOAD SWAP8 DUP9 SWAP8 PUSH1 0xC0 DUP10 MSTORE PUSH1 0xC0 DUP10 ADD SWAP1 PUSH2 0x149E JUMP JUMPDEST SWAP1 DUP8 DUP3 SUB DUP15 DUP10 ADD MSTORE PUSH2 0x149E JUMP JUMPDEST PUSH1 0x1 PUSH1 0x1 PUSH1 0xA0 SHL SUB SWAP1 SWAP5 AND PUSH1 0x40 DUP7 ADD MSTORE PUSH1 0x60 DUP6 ADD MSTORE PUSH1 0x80 DUP5 ADD MSTORE PUSH1 0xA0 DUP4 ADD MSTORE SUB SWAP1 LOG2 PUSH2 0xFF7 PUSH1 0x40 SWAP2 PUSH2 0xFC5 DUP5 DUP5 MLOAD PUSH2 0xF97 DUP7 DUP3 PUSH2 0x12A9 JUMP JUMPDEST PUSH1 0x17 DUP2 MSTORE PUSH32 0x426174746C65204372656174656420776974682049443A000000000000000000 DUP9 DUP3 ADD MSTORE PUSH2 0x4BF4 JUMP JUMPDEST SLOAD DUP3 MLOAD PUSH2 0xFD2 DUP5 DUP3 PUSH2 0x12A9 JUMP JUMPDEST PUSH1 0x14 DUP2 MSTORE PUSH20 0x2130BA3A3632903A34B6B2B9BA30B6B81034B99D PUSH1 0x61 SHL DUP7 DUP3 ADD MSTORE PUSH2 0x4BF4 JUMP JUMPDEST MLOAD SWAP1 DUP2 MSTORE RETURN JUMPDEST SWAP1 POP DUP11 ADD MLOAD DUP15 PUSH2 0xEB0 JUMP JUMPDEST PUSH1 0x1F NOT DUP3 AND SWAP1 DUP4 PUSH1 0x0 MSTORE DUP1 PUSH1 0x0 KECCAK256 SWAP2 PUSH1 0x0 JUMPDEST DUP2 DUP2 LT PUSH2 0x1083 JUMPI POP DUP4 PUSH32 0x2B0F86F4308B4D7D35030E8403B47B32B3592CBADF1A5BA93FA44087A7FA289A SWAP10 SWAP7 SWAP4 PUSH2 0xF52 SWAP10 SWAP7 SWAP4 PUSH2 0xF5F SWAP15 SWAP14 SWAP13 SWAP10 SWAP7 PUSH1 0x1 SWAP5 LT PUSH2 0x106A JUMPI JUMPDEST POP POP DUP2 SHL ADD SWAP1 SSTORE PUSH2 0xEC4 JUMP JUMPDEST DUP13 ADD MLOAD PUSH1 0x0 NOT PUSH1 0xF8 DUP5 PUSH1 0x3 SHL AND SHR NOT AND SWAP1 SSTORE DUP15 DUP1 PUSH2 0x105E JUMP JUMPDEST SWAP2 SWAP3 DUP14 PUSH1 0x1 DUP2 SWAP3 DUP7 DUP16 ADD MLOAD DUP2 SSTORE ADD SWAP5 ADD SWAP3 ADD PUSH2 0x101A JUMP JUMPDEST DUP2 PUSH1 0x0 MSTORE PUSH1 0x20 PUSH1 0x0 KECCAK256 PUSH1 0x1F DUP3 ADD PUSH1 0x5 SHR DUP2 ADD SWAP11 PUSH1 0x20 DUP4 LT PUSH2 0x10D8 JUMPI JUMPDEST PUSH1 0x1F ADD PUSH1 0x5 SHR ADD SWAP10 JUMPDEST DUP11 DUP2 LT PUSH2 0x10CC JUMPI POP PUSH2 0xE66 JUMP JUMPDEST PUSH1 0x0 DUP2 SSTORE PUSH1 0x1 ADD PUSH2 0x10BF JUMP JUMPDEST SWAP1 SWAP11 POP DUP11 SWAP1 PUSH2 0x10B6 JUMP JUMPDEST PUSH4 0x4E487B71 PUSH1 0xE0 SHL PUSH1 0x0 MSTORE PUSH1 0x41 PUSH1 0x4 MSTORE PUSH1 0x24 PUSH1 0x0 REVERT JUMPDEST SWAP1 POP DUP7 ADD MLOAD DUP11 PUSH2 0xE28 JUMP JUMPDEST PUSH1 0x0 DUP5 DUP2 MSTORE DUP2 DUP2 KECCAK256 SWAP3 POP PUSH1 0x1F NOT DUP5 AND SWAP1 JUMPDEST DUP2 DUP2 LT PUSH2 0x114E JUMPI POP SWAP1 DUP4 PUSH1 0x1 SWAP5 SWAP4 SWAP3 LT PUSH2 0x1135 JUMPI JUMPDEST POP POP DUP2 SHL ADD SWAP1 SSTORE PUSH2 0xE3C JUMP JUMPDEST DUP9 ADD MLOAD PUSH1 0x0 NOT PUSH1 0xF8 DUP5 PUSH1 0x3 SHL AND SHR NOT AND SWAP1 SSTORE DUP11 DUP1 PUSH2 0x1129 JUMP JUMPDEST SWAP2 SWAP3 PUSH1 0x20 PUSH1 0x1 DUP2 SWAP3 DUP7 DUP14 ADD MLOAD DUP2 SSTORE ADD SWAP5 ADD SWAP3 ADD PUSH2 0x1114 JUMP JUMPDEST DUP3 PUSH1 0x0 MSTORE PUSH1 0x20 PUSH1 0x0 KECCAK256 PUSH1 0x1F DUP4 ADD PUSH1 0x5 SHR DUP2 ADD SWAP2 PUSH1 0x20 DUP5 LT PUSH2 0x11A4 JUMPI JUMPDEST PUSH1 0x1F ADD PUSH1 0x5 SHR ADD SWAP1 JUMPDEST DUP2 DUP2 LT PUSH2 0x1198 JUMPI POP PUSH2 0xE11 JUMP JUMPDEST PUSH1 0x0 DUP2 SSTORE PUSH1 0x1 ADD PUSH2 0x118B JUMP JUMPDEST SWAP1 SWAP2 POP DUP2 SWAP1 PUSH2 0x1182 JUMP JUMPDEST PUSH1 0x40 MLOAD PUSH3 0x461BCD PUSH1 0xE5 SHL DUP2 MSTORE PUSH1 0x20 PUSH1 0x4 DUP3 ADD MSTORE PUSH1 0x1C PUSH1 0x24 DUP3 ADD MSTORE PUSH32 0x4D6178696D756D20626174746C65206C696D6974207265616368656400000000 PUSH1 0x44 DUP3 ADD MSTORE PUSH1 0x64 SWAP1 REVERT JUMPDEST PUSH1 0x40 MLOAD PUSH3 0x461BCD PUSH1 0xE5 SHL DUP2 MSTORE PUSH1 0x20 PUSH1 0x4 DUP3 ADD MSTORE PUSH1 0x16 PUSH1 0x24 DUP3 ADD MSTORE PUSH22 0x547261636B732063616E6E6F7420626520656D707479 PUSH1 0x50 SHL PUSH1 0x44 DUP3 ADD MSTORE PUSH1 0x64 SWAP1 REVERT JUMPDEST POP DUP2 MLOAD ISZERO ISZERO PUSH2 0xDA2 JUMP JUMPDEST CALLVALUE PUSH2 0x1AC JUMPI PUSH1 0x0 CALLDATASIZE PUSH1 0x3 NOT ADD SLT PUSH2 0x1AC JUMPI PUSH1 0x20 PUSH8 0xDE0B6B3A7640000 SELFBALANCE DIV PUSH2 0x1299 PUSH1 0x40 SWAP2 DUP3 MLOAD PUSH2 0x126B DUP5 DUP3 PUSH2 0x12A9 JUMP JUMPDEST PUSH1 0x17 DUP2 MSTORE PUSH32 0x616464726573732874686973292E62616C616E63653A20000000000000000000 DUP6 DUP3 ADD MSTORE PUSH2 0x4BF4 JUMP JUMPDEST MLOAD PUSH8 0xDE0B6B3A7640000 SELFBALANCE DIV DUP2 MSTORE RETURN JUMPDEST SWAP1 PUSH1 0x1F DUP1 NOT SWAP2 ADD AND DUP2 ADD SWAP1 DUP2 LT PUSH8 0xFFFFFFFFFFFFFFFF DUP3 GT OR PUSH2 0x10E2 JUMPI PUSH1 0x40 MSTORE JUMP JUMPDEST PUSH8 0xFFFFFFFFFFFFFFFF DUP2 GT PUSH2 0x10E2 JUMPI PUSH1 0x1F ADD PUSH1 0x1F NOT AND PUSH1 0x20 ADD SWAP1 JUMP JUMPDEST DUP2 PUSH1 0x1F DUP3 ADD SLT ISZERO PUSH2 0x1AC JUMPI DUP1 CALLDATALOAD SWAP1 PUSH2 0x12FE DUP3 PUSH2 0x12CB JUMP JUMPDEST SWAP3 PUSH2 0x130C PUSH1 0x40 MLOAD SWAP5 DUP6 PUSH2 0x12A9 JUMP JUMPDEST DUP3 DUP5 MSTORE PUSH1 0x20 DUP4 DUP4 ADD ADD GT PUSH2 0x1AC JUMPI DUP2 PUSH1 0x0 SWAP3 PUSH1 0x20 DUP1 SWAP4 ADD DUP4 DUP7 ADD CALLDATACOPY DUP4 ADD ADD MSTORE SWAP1 JUMP JUMPDEST PUSH1 0x44 CALLDATALOAD SWAP1 PUSH1 0x1 PUSH1 0x1 PUSH1 0xA0 SHL SUB DUP3 AND DUP3 SUB PUSH2 0x1AC JUMPI JUMP JUMPDEST PUSH1 0x24 CALLDATALOAD SWAP1 PUSH1 0x1 PUSH1 0x1 PUSH1 0xA0 SHL SUB DUP3 AND DUP3 SUB PUSH2 0x1AC JUMPI JUMP JUMPDEST PUSH1 0x20 PUSH1 0x40 DUP2 DUP4 ADD SWAP3 DUP3 DUP2 MSTORE DUP5 MLOAD DUP1 SWAP5 MSTORE ADD SWAP3 ADD SWAP1 PUSH1 0x0 JUMPDEST DUP2 DUP2 LT PUSH2 0x137E JUMPI POP POP POP SWAP1 JUMP JUMPDEST DUP3 MLOAD PUSH1 0x1 PUSH1 0x1 PUSH1 0xA0 SHL SUB AND DUP5 MSTORE PUSH1 0x20 SWAP4 DUP5 ADD SWAP4 SWAP1 SWAP3 ADD SWAP2 PUSH1 0x1 ADD PUSH2 0x1371 JUMP JUMPDEST SWAP1 PUSH1 0x1 DUP3 DUP2 SHR SWAP3 AND DUP1 ISZERO PUSH2 0x13CD JUMPI JUMPDEST PUSH1 0x20 DUP4 LT EQ PUSH2 0x13B7 JUMPI JUMP JUMPDEST PUSH4 0x4E487B71 PUSH1 0xE0 SHL PUSH1 0x0 MSTORE PUSH1 0x22 PUSH1 0x4 MSTORE PUSH1 0x24 PUSH1 0x0 REVERT JUMPDEST SWAP2 PUSH1 0x7F AND SWAP2 PUSH2 0x13AC JUMP JUMPDEST SWAP1 PUSH1 0x40 MLOAD SWAP2 DUP3 PUSH1 0x0 DUP3 SLOAD SWAP3 PUSH2 0x13EB DUP5 PUSH2 0x139D JUMP JUMPDEST DUP1 DUP5 MSTORE SWAP4 PUSH1 0x1 DUP2 AND SWAP1 DUP2 ISZERO PUSH2 0x1459 JUMPI POP PUSH1 0x1 EQ PUSH2 0x1412 JUMPI JUMPDEST POP PUSH2 0x1410 SWAP3 POP SUB DUP4 PUSH2 0x12A9 JUMP JUMPDEST JUMP JUMPDEST SWAP1 POP PUSH1 0x0 SWAP3 SWAP2 SWAP3 MSTORE PUSH1 0x20 PUSH1 0x0 KECCAK256 SWAP1 PUSH1 0x0 SWAP2 JUMPDEST DUP2 DUP4 LT PUSH2 0x143D JUMPI POP POP SWAP1 PUSH1 0x20 PUSH2 0x1410 SWAP3 DUP3 ADD ADD CODESIZE PUSH2 0x1403 JUMP JUMPDEST PUSH1 0x20 SWAP2 SWAP4 POP DUP1 PUSH1 0x1 SWAP2 SLOAD DUP4 DUP6 DUP10 ADD ADD MSTORE ADD SWAP2 ADD SWAP1 SWAP2 DUP5 SWAP3 PUSH2 0x1424 JUMP JUMPDEST SWAP1 POP PUSH1 0x20 SWAP3 POP PUSH2 0x1410 SWAP5 SWAP2 POP PUSH1 0xFF NOT AND DUP3 DUP5 ADD MSTORE ISZERO ISZERO PUSH1 0x5 SHL DUP3 ADD ADD CODESIZE PUSH2 0x1403 JUMP JUMPDEST PUSH1 0x0 JUMPDEST DUP4 DUP2 LT PUSH2 0x148E JUMPI POP POP PUSH1 0x0 SWAP2 ADD MSTORE JUMP JUMPDEST DUP2 DUP2 ADD MLOAD DUP4 DUP3 ADD MSTORE PUSH1 0x20 ADD PUSH2 0x147E JUMP JUMPDEST SWAP1 PUSH1 0x20 SWAP2 PUSH2 0x14B7 DUP2 MLOAD DUP1 SWAP3 DUP2 DUP6 MSTORE DUP6 DUP1 DUP7 ADD SWAP2 ADD PUSH2 0x147B JUMP JUMPDEST PUSH1 0x1F ADD PUSH1 0x1F NOT AND ADD ADD SWAP1 JUMP JUMPDEST DUP2 ISZERO PUSH2 0x14CD JUMPI DIV SWAP1 JUMP JUMPDEST PUSH4 0x4E487B71 PUSH1 0xE0 SHL PUSH1 0x0 MSTORE PUSH1 0x12 PUSH1 0x4 MSTORE PUSH1 0x24 PUSH1 0x0 REVERT JUMPDEST ISZERO PUSH2 0x14EA JUMPI JUMP JUMPDEST PUSH1 0x40 MLOAD PUSH3 0x461BCD PUSH1 0xE5 SHL DUP2 MSTORE PUSH1 0x20 PUSH1 0x4 DUP3 ADD MSTORE PUSH1 0x26 PUSH1 0x24 DUP3 ADD MSTORE PUSH32 0x5061796D656E7420697320726571756972656420746F20737461727420612062 PUSH1 0x44 DUP3 ADD MSTORE PUSH6 0x30BA3A363297 PUSH1 0xD1 SHL PUSH1 0x64 DUP3 ADD MSTORE PUSH1 0x84 SWAP1 REVERT JUMPDEST SWAP2 SWAP1 DUP3 ADD DUP1 SWAP3 GT PUSH2 0x5FA JUMPI JUMP JUMPDEST PUSH1 0x0 NOT DUP2 EQ PUSH2 0x5FA JUMPI PUSH1 0x1 ADD SWAP1 JUMP JUMPDEST MLOAD SWAP1 PUSH10 0xFFFFFFFFFFFFFFFFFFFF DUP3 AND DUP3 SUB PUSH2 0x1AC JUMPI JUMP JUMPDEST PUSH1 0x0 SLOAD PUSH1 0xFF DUP2 PUSH1 0xA0 SHR AND PUSH2 0x1584 JUMPI POP TIMESTAMP SWAP1 JUMP JUMPDEST PUSH1 0x40 MLOAD PUSH4 0x3FABE5A3 PUSH1 0xE2 SHL DUP2 MSTORE SWAP1 PUSH1 0xA0 SWAP1 DUP3 SWAP1 PUSH1 0x4 SWAP1 DUP3 SWAP1 PUSH1 0x1 PUSH1 0x1 PUSH1 0xA0 SHL SUB AND GAS STATICCALL PUSH1 0x0 SWAP2 DUP2 PUSH2 0x15BD JUMPI JUMPDEST POP PUSH2 0x15BA JUMPI POP TIMESTAMP SWAP1 JUMP JUMPDEST SWAP1 JUMP JUMPDEST SWAP1 SWAP2 POP PUSH1 0xA0 DUP2 RETURNDATASIZE PUSH1 0xA0 GT PUSH2 0x1604 JUMPI JUMPDEST DUP2 PUSH2 0x15D9 PUSH1 0xA0 SWAP4 DUP4 PUSH2 0x12A9 JUMP JUMPDEST DUP2 ADD SUB SLT PUSH2 0x1AC JUMPI PUSH2 0x15EA DUP2 PUSH2 0x155A JUMP JUMPDEST POP PUSH2 0x15FC PUSH1 0x80 PUSH1 0x40 DUP4 ADD MLOAD SWAP3 ADD PUSH2 0x155A JUMP JUMPDEST POP SWAP1 CODESIZE PUSH2 0x15B0 JUMP JUMPDEST RETURNDATASIZE SWAP2 POP PUSH2 0x15CC JUMP JUMPDEST ISZERO PUSH2 0x1613 JUMPI JUMP JUMPDEST PUSH1 0x40 MLOAD PUSH3 0x461BCD PUSH1 0xE5 SHL DUP2 MSTORE PUSH1 0x20 PUSH1 0x4 DUP3 ADD MSTORE PUSH1 0x15 PUSH1 0x24 DUP3 ADD MSTORE PUSH21 0x10985D1D1B1948191BD95CC81B9BDD08195E1A5CDD PUSH1 0x5A SHL PUSH1 0x44 DUP3 ADD MSTORE PUSH1 0x64 SWAP1 REVERT JUMPDEST SWAP1 PUSH1 0x20 DUP3 SLOAD SWAP2 DUP3 DUP2 MSTORE ADD SWAP2 PUSH1 0x0 MSTORE PUSH1 0x20 PUSH1 0x0 KECCAK256 SWAP1 PUSH1 0x0 JUMPDEST DUP2 DUP2 LT PUSH2 0x1674 JUMPI POP POP POP SWAP1 JUMP JUMPDEST DUP3 SLOAD PUSH1 0x1 PUSH1 0x1 PUSH1 0xA0 SHL SUB AND DUP5 MSTORE PUSH1 0x20 SWAP1 SWAP4 ADD SWAP3 PUSH1 0x1 SWAP3 DUP4 ADD SWAP3 ADD PUSH2 0x1667 JUMP JUMPDEST DUP2 ISZERO ISZERO DUP1 PUSH2 0x174E JUMPI JUMPDEST PUSH2 0x16A5 SWAP1 PUSH2 0x160C JUMP JUMPDEST PUSH1 0x1 DUP2 EQ DUP1 SWAP2 DUP2 ISZERO PUSH2 0x1743 JUMPI JUMPDEST POP ISZERO PUSH2 0x1708 JUMPI ISZERO PUSH2 0x16E6 JUMPI PUSH1 0x0 MSTORE PUSH1 0x2 PUSH1 0x20 MSTORE PUSH2 0x16DF PUSH2 0x15BA PUSH1 0x9 PUSH1 0x40 PUSH1 0x0 KECCAK256 ADD PUSH1 0x40 MLOAD SWAP3 DUP4 DUP1 SWAP3 PUSH2 0x1650 JUMP JUMPDEST SUB DUP3 PUSH2 0x12A9 JUMP JUMPDEST PUSH1 0x0 MSTORE PUSH1 0x2 PUSH1 0x20 MSTORE PUSH2 0x16DF PUSH2 0x15BA PUSH1 0xA PUSH1 0x40 PUSH1 0x0 KECCAK256 ADD PUSH1 0x40 MLOAD SWAP3 DUP4 DUP1 SWAP3 PUSH2 0x1650 JUMP JUMPDEST PUSH1 0x40 MLOAD PUSH3 0x461BCD PUSH1 0xE5 SHL DUP2 MSTORE PUSH1 0x20 PUSH1 0x4 DUP3 ADD MSTORE PUSH1 0x13 PUSH1 0x24 DUP3 ADD MSTORE PUSH19 0x24B73B30B634B2103A3930B1B5A73AB6B132B9 PUSH1 0x69 SHL PUSH1 0x44 DUP3 ADD MSTORE PUSH1 0x64 SWAP1 REVERT JUMPDEST PUSH1 0x2 SWAP2 POP EQ CODESIZE PUSH2 0x16B2 JUMP JUMPDEST POP PUSH1 0x1 SLOAD DUP3 GT ISZERO PUSH2 0x169C JUMP JUMPDEST DUP1 SLOAD DUP3 LT ISZERO PUSH2 0x1772 JUMPI PUSH1 0x0 MSTORE PUSH1 0x20 PUSH1 0x0 KECCAK256 ADD SWAP1 PUSH1 0x0 SWAP1 JUMP JUMPDEST PUSH4 0x4E487B71 PUSH1 0xE0 SHL PUSH1 0x0 MSTORE PUSH1 0x32 PUSH1 0x4 MSTORE PUSH1 0x24 PUSH1 0x0 REVERT JUMPDEST DUP1 SLOAD PUSH9 0x10000000000000000 DUP2 LT ISZERO PUSH2 0x10E2 JUMPI PUSH2 0x17AA SWAP2 PUSH1 0x1 DUP3 ADD DUP2 SSTORE PUSH2 0x175A JUMP JUMPDEST DUP2 SLOAD PUSH1 0x1 PUSH1 0x1 PUSH1 0xA0 SHL SUB SWAP4 DUP5 AND PUSH1 0x3 SWAP3 SWAP1 SWAP3 SHL SWAP2 DUP3 SHL SWAP4 SWAP1 SWAP2 SHL NOT AND SWAP2 SWAP1 SWAP2 OR SWAP1 SSTORE JUMP JUMPDEST PUSH1 0x40 MLOAD SWAP1 PUSH2 0x17DD PUSH1 0x40 DUP4 PUSH2 0x12A9 JUMP JUMPDEST PUSH1 0x17 DUP3 MSTORE PUSH32 0x766F746572203120696E7469616C2062616C616E63653A000000000000000000 PUSH1 0x20 DUP4 ADD MSTORE JUMP JUMPDEST PUSH1 0x40 MLOAD SWAP1 PUSH2 0x1818 PUSH1 0x40 DUP4 PUSH2 0x12A9 JUMP JUMPDEST PUSH1 0x16 DUP3 MSTORE PUSH22 0x3B37BA32B910189030B33A32B9103130B630B731B29D PUSH1 0x51 SHL PUSH1 0x20 DUP4 ADD MSTORE JUMP JUMPDEST SWAP2 SWAP1 DUP3 SUB SWAP2 DUP3 GT PUSH2 0x5FA JUMPI JUMP JUMPDEST PUSH32 0x446966666572656E636520696E20547261636B2043726561746F722031277320 DUP2 MSTORE PUSH9 0x3130B630B731B29D1 PUSH1 0xBD SHL PUSH1 0x20 DUP3 ADD MSTORE PUSH1 0x29 ADD SWAP1 JUMP JUMPDEST SWAP3 SWAP2 PUSH2 0x18CC PUSH1 0x60 SWAP2 PUSH1 0x1 SWAP4 PUSH1 0x80 DUP8 MSTORE PUSH1 0xB PUSH1 0x80 DUP9 ADD MSTORE PUSH11 0x2A3930B1B59018902BB7B7 PUSH1 0xA9 SHL PUSH1 0xA0 DUP9 ADD MSTORE DUP5 DUP1 PUSH1 0xA0 SHL SUB AND PUSH1 0x20 DUP8 ADD MSTORE PUSH1 0xC0 PUSH1 0x40 DUP8 ADD MSTORE PUSH1 0xC0 DUP7 ADD SWAP1 PUSH2 0x1650 JUMP JUMPDEST SWAP4 ADD MSTORE JUMP JUMPDEST SWAP3 SWAP2 PUSH2 0x18CC PUSH1 0x60 SWAP2 PUSH1 0x1 SWAP4 PUSH1 0x80 DUP8 MSTORE PUSH1 0xB PUSH1 0x80 DUP9 ADD MSTORE PUSH11 0x2A3930B1B59019102BB7B7 PUSH1 0xA9 SHL PUSH1 0xA0 DUP9 ADD MSTORE DUP5 DUP1 PUSH1 0xA0 SHL SUB AND PUSH1 0x20 DUP8 ADD MSTORE PUSH1 0xC0 PUSH1 0x40 DUP8 ADD MSTORE PUSH1 0xC0 DUP7 ADD SWAP1 PUSH2 0x1650 JUMP JUMPDEST PUSH32 0x52656D61696E696E672042616C616E6365204C656674206F6E20636F6E747261 DUP2 MSTORE PUSH3 0x31BA1D PUSH1 0xE9 SHL PUSH1 0x20 DUP3 ADD MSTORE PUSH1 0x23 ADD SWAP1 JUMP JUMPDEST ISZERO PUSH2 0x1954 JUMPI JUMP JUMPDEST PUSH1 0x40 MLOAD PUSH3 0x461BCD PUSH1 0xE5 SHL DUP2 MSTORE PUSH1 0x20 PUSH1 0x4 DUP3 ADD MSTORE PUSH1 0x1C PUSH1 0x24 DUP3 ADD MSTORE PUSH32 0x566F74657273206172726179206C656E677468206D69736D6174636800000000 PUSH1 0x44 DUP3 ADD MSTORE PUSH1 0x64 SWAP1 REVERT JUMPDEST ISZERO PUSH2 0x19A0 JUMPI JUMP JUMPDEST PUSH1 0x40 MLOAD PUSH3 0x461BCD PUSH1 0xE5 SHL DUP2 MSTORE PUSH1 0x20 PUSH1 0x4 DUP3 ADD MSTORE PUSH1 0x15 PUSH1 0x24 DUP3 ADD MSTORE PUSH21 0x496E76616C696420766F7465722061646472657373 PUSH1 0x58 SHL PUSH1 0x44 DUP3 ADD MSTORE PUSH1 0x64 SWAP1 REVERT JUMPDEST PUSH32 0x416D6F756E742077696C6C20626520676976656E20746F206561636820766F74 DUP2 MSTORE PUSH3 0x32B91D PUSH1 0xE9 SHL PUSH1 0x20 DUP3 ADD MSTORE PUSH1 0x23 ADD SWAP1 JUMP JUMPDEST PUSH32 0x416D6F756E742077696C6C20626520676976656E20746F2057696E6E65722054 DUP2 MSTORE PUSH13 0x3930B1B59021B932B0BA37B91D PUSH1 0x99 SHL PUSH1 0x20 DUP3 ADD MSTORE PUSH1 0x2D ADD SWAP1 JUMP JUMPDEST PUSH1 0x40 MLOAD PUSH1 0x20 SWAP3 PUSH1 0x60 PUSH2 0x1A63 DUP6 DUP5 PUSH2 0x12A9 JUMP JUMPDEST PUSH1 0x0 DUP4 MSTORE SELFBALANCE SWAP1 DUP6 PUSH2 0x1AF3 PUSH1 0x1 PUSH1 0x1B PUSH2 0x1A84 PUSH8 0xDE0B6B3A7640000 SELFBALANCE DIV PUSH2 0x4C60 JUMP JUMPDEST PUSH1 0x40 MLOAD SWAP5 DUP6 SWAP2 DUP2 PUSH2 0x1A9E DUP2 DUP6 ADD SWAP13 DUP14 DUP2 MLOAD SWAP4 DUP5 SWAP3 ADD PUSH2 0x147B JUMP JUMPDEST DUP4 ADD PUSH32 0x496E7469616C2042616C616E6365206F6620636F6E74726163743A0000000000 DUP4 DUP3 ADD MSTORE PUSH2 0x1AD8 DUP3 MLOAD DUP1 SWAP4 DUP6 PUSH1 0x3B DUP6 ADD SWAP2 ADD PUSH2 0x147B JUMP JUMPDEST ADD ADD PUSH1 0x5 PUSH1 0xF9 SHL DUP4 DUP3 ADD MSTORE SUB ADD PUSH1 0x1E NOT DUP2 ADD DUP5 MSTORE ADD DUP3 PUSH2 0x12A9 JUMP JUMPDEST PUSH2 0x1B64 PUSH1 0x1 PUSH1 0x24 PUSH2 0x1B03 DUP10 PUSH2 0x4C60 JUMP JUMPDEST SWAP4 DUP11 PUSH1 0x40 MLOAD SWAP6 DUP7 SWAP3 PUSH2 0x1B1D DUP4 DUP6 ADD SWAP13 DUP14 SWAP3 MLOAD SWAP3 DUP4 SWAP2 PUSH2 0x147B JUMP JUMPDEST DUP4 ADD PUSH32 0x417474656D7074696E6720746F20636C6F736520626174746C65207769746820 DUP4 DUP3 ADD MSTORE PUSH4 0x24A21D1 PUSH1 0xE5 SHL PUSH1 0x40 DUP3 ADD MSTORE PUSH2 0x1AD8 DUP3 MLOAD DUP1 SWAP4 DUP6 PUSH1 0x44 DUP6 ADD SWAP2 ADD PUSH2 0x147B JUMP JUMPDEST DUP6 ISZERO ISZERO DUP1 PUSH2 0x4BAB JUMPI JUMPDEST PUSH2 0x1B76 SWAP1 PUSH2 0x160C JUMP JUMPDEST DUP6 PUSH1 0x0 MSTORE PUSH1 0x2 DUP8 MSTORE PUSH1 0x40 PUSH1 0x0 KECCAK256 SWAP5 PUSH1 0xFF PUSH1 0xD DUP8 ADD SLOAD AND PUSH1 0x0 DUP2 PUSH1 0x0 EQ PUSH2 0x4B7E JUMPI POP PUSH2 0x1C24 PUSH1 0x1 PUSH1 0x15 PUSH1 0x40 MLOAD PUSH2 0x1BAC PUSH1 0x40 DUP3 PUSH2 0x12A9 JUMP JUMPDEST PUSH1 0x4 DUP2 MSTORE PUSH4 0x74727565 PUSH1 0xE0 SHL DUP14 DUP3 ADD MSTORE SWAP6 JUMPDEST DUP13 PUSH1 0x40 MLOAD SWAP8 DUP9 SWAP3 PUSH2 0x1BD7 DUP4 DUP6 ADD SWAP10 DUP11 SWAP3 MLOAD SWAP3 DUP4 SWAP2 PUSH2 0x147B JUMP JUMPDEST DUP4 ADD PUSH21 0x2130BA3A36329030B1BA34BB329039BA30BA329D1 PUSH1 0x5D SHL DUP4 DUP3 ADD MSTORE PUSH2 0x1C09 DUP3 MLOAD DUP1 SWAP4 DUP6 PUSH1 0x35 DUP6 ADD SWAP2 ADD PUSH2 0x147B JUMP JUMPDEST ADD ADD PUSH1 0x5 PUSH1 0xF9 SHL DUP4 DUP3 ADD MSTORE SUB ADD PUSH1 0x1E NOT DUP2 ADD DUP7 MSTORE ADD DUP5 PUSH2 0x12A9 JUMP JUMPDEST ISZERO PUSH2 0x4B42 JUMPI PUSH2 0x1CC4 PUSH2 0x1CF2 PUSH1 0x1 PUSH1 0x11 DUP10 SWAP8 SWAP7 SWAP6 DUP13 DUP1 SWAP7 PUSH2 0x1CA4 DUP6 PUSH1 0x19 PUSH2 0x1C50 PUSH2 0x1C4B PUSH2 0x1571 JUMP JUMPDEST PUSH2 0x4C60 JUMP JUMPDEST SWAP6 DUP6 PUSH1 0x40 MLOAD SWAP8 DUP9 SWAP3 PUSH2 0x1C6A DUP4 DUP6 ADD SWAP9 DUP10 SWAP3 MLOAD SWAP3 DUP4 SWAP2 PUSH2 0x147B JUMP JUMPDEST DUP4 ADD PUSH32 0x43757272656E7420626C6F636B2074696D657374616D703A2000000000000000 DUP4 DUP3 ADD MSTORE PUSH2 0x1C09 DUP3 MLOAD DUP1 SWAP4 DUP6 PUSH1 0x39 DUP6 ADD SWAP2 ADD PUSH2 0x147B JUMP JUMPDEST PUSH2 0x1CB1 PUSH1 0xC DUP13 ADD SLOAD PUSH2 0x4C60 JUMP JUMPDEST SWAP1 PUSH1 0x40 MLOAD SWAP8 DUP9 SWAP5 MLOAD DUP1 SWAP3 DUP6 DUP8 ADD SWAP1 PUSH2 0x147B JUMP JUMPDEST DUP4 ADD PUSH17 0x2130BA3A36329032B732103A34B6B29D1 PUSH1 0x7D SHL DUP4 DUP3 ADD MSTORE PUSH2 0x1AD8 DUP3 MLOAD DUP1 SWAP4 DUP6 PUSH1 0x31 DUP6 ADD SWAP2 ADD PUSH2 0x147B JUMP JUMPDEST PUSH1 0x10 DUP6 ADD SLOAD SWAP3 PUSH2 0x1DFB PUSH1 0x1 PUSH1 0x25 PUSH2 0x1D12 PUSH8 0xDE0B6B3A7640000 DUP9 DIV PUSH2 0x4C60 JUMP JUMPDEST SWAP5 PUSH1 0x24 PUSH1 0x11 DUP12 ADD SLOAD SWAP8 PUSH2 0x1D2E PUSH8 0xDE0B6B3A7640000 DUP11 DIV PUSH2 0x4C60 JUMP JUMPDEST SWAP1 PUSH2 0x1DE0 DUP2 PUSH1 0x40 MLOAD SWAP11 DUP7 PUSH2 0x1D4B DUP14 SWAP9 MLOAD DUP1 SWAP3 DUP6 DUP1 DUP13 ADD SWAP2 ADD PUSH2 0x147B JUMP JUMPDEST DUP8 ADD PUSH32 0x416D6F756E742052656365697665642066726F6D20547261636B203120766F74 DUP4 DUP3 ADD MSTORE PUSH4 0x32B9399D PUSH1 0xE1 SHL PUSH1 0x40 DUP3 ADD MSTORE PUSH2 0x1D92 DUP3 MLOAD DUP1 SWAP4 DUP6 PUSH1 0x44 DUP6 ADD SWAP2 ADD PUSH2 0x147B JUMP JUMPDEST ADD ADD SWAP2 PUSH1 0x5 PUSH1 0xF9 SHL DUP6 DUP5 ADD MSTORE PUSH32 0x416D6F756E742052656365697665642066726F6D20547261636B203220766F74 DUP8 DUP5 ADD MSTORE PUSH4 0x32B9399D PUSH1 0xE1 SHL PUSH1 0x45 DUP5 ADD MSTORE DUP4 MLOAD SWAP4 DUP5 SWAP2 PUSH1 0x49 DUP6 ADD SWAP2 ADD PUSH2 0x147B JUMP JUMPDEST ADD ADD PUSH1 0x5 PUSH1 0xF9 SHL DUP4 DUP3 ADD MSTORE SUB ADD PUSH1 0x1E NOT DUP2 ADD DUP6 MSTORE ADD DUP4 PUSH2 0x12A9 JUMP JUMPDEST PUSH2 0x1E81 PUSH1 0x1 PUSH1 0x1E PUSH2 0x1E2D PUSH8 0xDE0B6B3A7640000 PUSH2 0x1E27 PUSH1 0xF PUSH2 0x1E1D DUP11 DUP13 PUSH2 0x153E JUMP JUMPDEST SWAP13 ADD SLOAD DUP1 SWAP13 PUSH2 0x153E JUMP JUMPDEST DIV PUSH2 0x4C60 JUMP JUMPDEST SWAP5 DUP14 PUSH1 0x40 MLOAD SWAP7 DUP3 PUSH2 0x1E47 DUP10 SWAP5 MLOAD DUP1 SWAP3 DUP6 DUP1 DUP9 ADD SWAP2 ADD PUSH2 0x147B JUMP JUMPDEST DUP4 ADD PUSH32 0x546F74616C20616D6F756E742074686520426174746C6520686F6C64733A0000 DUP4 DUP3 ADD MSTORE PUSH2 0x1DE0 DUP3 MLOAD DUP1 SWAP4 DUP6 PUSH1 0x3E DUP6 ADD SWAP2 ADD PUSH2 0x147B JUMP JUMPDEST DUP2 SWAP6 PUSH1 0x5 DUP10 ADD SLOAD SWAP3 PUSH1 0x6 DUP11 ADD SLOAD SWAP5 DUP6 DUP6 GT PUSH1 0x0 EQ PUSH2 0x297F JUMPI POP POP POP POP POP POP POP PUSH2 0x1EED PUSH1 0x16 DUP8 PUSH1 0x40 MLOAD DUP6 PUSH2 0x1EBD DUP3 SWAP8 MLOAD DUP1 SWAP3 DUP6 DUP1 DUP7 ADD SWAP2 ADD PUSH2 0x147B JUMP JUMPDEST DUP2 ADD PUSH22 0x2A3930B1B590189034B9903A3432903BB4B73732B905 PUSH1 0x51 SHL DUP4 DUP3 ADD MSTORE SUB ADD PUSH1 0x9 NOT DUP2 ADD DUP6 MSTORE ADD DUP4 PUSH2 0x12A9 JUMP JUMPDEST PUSH1 0x10 DUP5 ADD SLOAD SWAP3 PUSH1 0x11 DUP6 ADD SLOAD SWAP2 PUSH2 0x1F06 DUP4 PUSH1 0x1 SHR DUP7 PUSH2 0x153E JUMP JUMPDEST SWAP4 PUSH2 0x1F16 PUSH1 0x5 DUP9 ADD SLOAD DUP1 SWAP7 PUSH2 0x14C3 JUMP JUMPDEST SWAP5 PUSH8 0x429D069189E0000 DUP6 MUL SWAP5 DUP1 DUP7 DIV PUSH8 0x429D069189E0000 EQ SWAP1 ISZERO OR ISZERO PUSH2 0x5FA JUMPI PUSH8 0xDE0B6B3A7640000 DUP11 SWAP6 DIV SWAP7 PUSH1 0x6 DUP10 ADD SLOAD ISZERO PUSH2 0x293B JUMPI JUMPDEST POP POP PUSH8 0xDE0B6B3A7640000 DUP6 DIV SWAP6 PUSH2 0x1F67 DUP8 PUSH2 0x4C60 JUMP JUMPDEST SWAP2 DUP6 PUSH2 0x1F7C PUSH8 0xDE0B6B3A7640000 DUP5 DIV PUSH2 0x4C60 JUMP JUMPDEST PUSH1 0x3 DUP12 ADD SLOAD PUSH1 0x1 PUSH1 0x1 PUSH1 0xA0 SHL SUB AND SWAP5 SWAP1 DUP3 SWAP1 DUP2 PUSH2 0x1FA3 PUSH8 0xDE0B6B3A7640000 DUP10 BALANCE DIV PUSH2 0x4C60 JUMP JUMPDEST SWAP4 PUSH1 0x40 MLOAD SWAP12 DUP8 DUP14 SWAP9 MLOAD SWAP1 DUP2 DUP4 DUP1 DUP13 ADD SWAP3 ADD SWAP2 PUSH2 0x1FBE SWAP3 PUSH2 0x147B JUMP JUMPDEST DUP9 ADD ADD PUSH2 0x1FCA SWAP1 PUSH2 0x19DD JUMP JUMPDEST DUP2 DUP2 SWAP3 MLOAD SWAP4 DUP5 SWAP2 ADD SWAP2 PUSH2 0x1FDC SWAP3 PUSH2 0x147B JUMP JUMPDEST ADD PUSH1 0x5 PUSH1 0xF9 SHL DUP2 MSTORE PUSH1 0x1 ADD PUSH2 0x1FF0 SWAP1 PUSH2 0x1A12 JUMP JUMPDEST DUP2 DUP2 SWAP3 MLOAD SWAP4 DUP5 SWAP2 ADD SWAP2 PUSH2 0x2002 SWAP3 PUSH2 0x147B JUMP JUMPDEST PUSH1 0x5 PUSH1 0xF9 SHL SWAP2 ADD SWAP1 DUP2 MSTORE PUSH1 0x0 DUP1 MLOAD PUSH1 0x20 PUSH2 0x4E74 DUP4 CODECOPY DUP2 MLOAD SWAP2 MSTORE PUSH1 0x1 DUP3 ADD MSTORE PUSH5 0x30BA37B905 PUSH1 0xD9 SHL PUSH1 0x21 DUP3 ADD MSTORE PUSH1 0x26 ADD SWAP1 PUSH23 0x2BB4B73732B9103130B630B731B2903132B337B9329D1 PUSH1 0x4D SHL DUP3 MSTORE DUP1 MLOAD DUP1 SWAP4 PUSH1 0x17 DUP5 ADD SWAP3 ADD SWAP2 PUSH2 0x2063 SWAP3 PUSH2 0x147B JUMP JUMPDEST ADD PUSH1 0x5 PUSH1 0xF9 SHL PUSH1 0x17 DUP3 ADD MSTORE SUB PUSH1 0x17 ADD PUSH1 0x1E NOT DUP2 ADD DUP7 MSTORE PUSH1 0x1 ADD PUSH2 0x2086 SWAP1 DUP7 PUSH2 0x12A9 JUMP JUMPDEST DUP1 DUP3 BALANCE SWAP3 PUSH1 0x0 DUP3 ISZERO PUSH1 0x0 SWAP4 DUP5 SWAP4 DUP5 SWAP4 DUP5 SWAP4 PUSH2 0x2932 JUMPI JUMPDEST CALL ISZERO PUSH2 0x2759 JUMPI DUP10 SWAP2 PUSH8 0xDE0B6B3A7640000 DUP4 SWAP3 DIV PUSH2 0x20B9 SWAP1 PUSH2 0x4C60 JUMP JUMPDEST PUSH1 0x3 DUP11 ADD SLOAD PUSH1 0x1 PUSH1 0x1 PUSH1 0xA0 SHL SUB AND SWAP1 PUSH2 0x20DC PUSH8 0xDE0B6B3A7640000 DUP4 BALANCE DIV PUSH2 0x4C60 JUMP JUMPDEST PUSH1 0x40 MLOAD SWAP6 DUP7 SWAP3 DUP2 DUP1 DUP6 ADD DUP13 DUP2 SWAP14 MLOAD SWAP3 DUP4 SWAP2 ADD SWAP2 PUSH2 0x20F8 SWAP3 PUSH2 0x147B JUMP JUMPDEST DUP5 ADD DUP3 DUP2 ADD PUSH32 0x547261636B20312043726561746F72207265636569766573203A200000000000 SWAP1 MSTORE DUP2 MLOAD SWAP2 DUP3 DUP5 PUSH1 0x3B DUP5 ADD SWAP3 ADD SWAP2 PUSH2 0x2135 SWAP3 PUSH2 0x147B JUMP JUMPDEST ADD ADD PUSH1 0x5 PUSH1 0xF9 SHL PUSH1 0x1B DUP3 ADD MSTORE PUSH1 0x1C DUP2 ADD PUSH22 0x2BB4B73732B9103130B630B731B29030B33A32B91D1 PUSH1 0x55 SHL SWAP1 MSTORE DUP2 MLOAD SWAP2 DUP3 DUP8 PUSH1 0x32 DUP5 ADD SWAP3 ADD SWAP2 PUSH2 0x2176 SWAP3 PUSH2 0x147B JUMP JUMPDEST ADD PUSH1 0x1B ADD PUSH1 0x5 PUSH1 0xF9 SHL PUSH1 0x17 DUP3 ADD MSTORE SUB PUSH1 0x17 ADD PUSH1 0x1E NOT DUP2 ADD DUP6 MSTORE PUSH1 0x1 ADD PUSH2 0x219C SWAP1 DUP6 PUSH2 0x12A9 JUMP JUMPDEST BALANCE SWAP1 PUSH2 0x21A7 SWAP2 PUSH2 0x183D JUMP JUMPDEST PUSH8 0xDE0B6B3A7640000 SWAP1 DIV SWAP5 DUP2 PUSH2 0x21BD DUP8 PUSH2 0x4C60 JUMP JUMPDEST SWAP4 DUP2 PUSH1 0x40 MLOAD SWAP6 DUP7 SWAP3 DUP3 DUP5 ADD SWAP6 DUP7 SWAP2 MLOAD DUP1 SWAP3 PUSH2 0x21D7 SWAP3 PUSH2 0x147B JUMP JUMPDEST DUP4 ADD DUP3 DUP2 ADD PUSH32 0x446966666572656E636520696E2077696E6E657227732062616C616E63653A20 SWAP1 MSTORE DUP2 MLOAD SWAP2 DUP3 DUP5 PUSH1 0x40 DUP5 ADD SWAP3 ADD SWAP2 PUSH2 0x2214 SWAP3 PUSH2 0x147B JUMP JUMPDEST ADD ADD PUSH1 0x5 PUSH1 0xF9 SHL DUP4 DUP3 ADD MSTORE SUB ADD PUSH1 0x1E NOT DUP2 ADD DUP5 MSTORE PUSH1 0x1 ADD PUSH2 0x2235 SWAP1 DUP5 PUSH2 0x12A9 JUMP JUMPDEST DUP3 SWAP6 ISZERO PUSH2 0x2905 JUMPI JUMPDEST POP PUSH2 0x2307 SWAP2 POP PUSH2 0x22FA PUSH1 0x1 PUSH1 0x14 PUSH1 0x5 DUP12 SWAP9 SWAP7 SWAP8 SWAP9 ADD SLOAD SWAP6 PUSH2 0x225D DUP8 PUSH2 0x4C60 JUMP JUMPDEST DUP6 PUSH2 0x22E0 PUSH2 0x22B6 PUSH1 0x40 MLOAD SWAP9 DUP6 PUSH2 0x227C DUP12 SWAP8 MLOAD DUP1 SWAP3 DUP5 DUP1 DUP12 ADD SWAP2 ADD PUSH2 0x147B JUMP JUMPDEST DUP7 ADD ADD PUSH32 0x5472616E7366657272696E672072657761726420746F2077696E6E657220766F DUP2 MSTORE PUSH5 0x3A32B93985 PUSH1 0xD9 SHL PUSH1 0x20 DUP3 ADD MSTORE PUSH1 0x25 ADD SWAP1 JUMP JUMPDEST SWAP2 PUSH20 0x3130BA3A3632973B37BA32B9AA3930B1B5989D1 PUSH1 0x65 SHL DUP4 MSTORE DUP4 MLOAD SWAP4 DUP5 SWAP2 DUP8 DUP6 ADD SWAP2 ADD PUSH2 0x147B JUMP JUMPDEST ADD PUSH1 0x5 PUSH1 0xF9 SHL DUP4 DUP3 ADD MSTORE SUB ADD PUSH1 0x1E NOT DUP2 ADD DUP5 MSTORE ADD DUP3 PUSH2 0x12A9 JUMP JUMPDEST SWAP2 PUSH1 0x9 DUP9 ADD SLOAD LT ISZERO PUSH2 0x194D JUMP JUMPDEST PUSH1 0x0 SWAP1 JUMPDEST PUSH1 0x5 DUP8 ADD SLOAD DUP3 LT ISZERO PUSH2 0x276E JUMPI SWAP1 PUSH2 0x2423 PUSH1 0x1 PUSH1 0x1D DUP10 SWAP7 SWAP6 SWAP5 PUSH2 0x2348 PUSH2 0x2333 DUP7 PUSH1 0x9 DUP12 ADD PUSH2 0x175A JUMP JUMPDEST DUP6 DUP1 PUSH1 0xA0 SHL SUB SWAP2 SLOAD SWAP1 PUSH1 0x3 SHL SHR AND ISZERO ISZERO PUSH2 0x1999 JUMP JUMPDEST PUSH1 0x14 DUP14 PUSH2 0x2382 PUSH8 0xDE0B6B3A7640000 PUSH2 0x236D DUP10 PUSH1 0x9 PUSH2 0x2366 DUP3 PUSH2 0x4C60 JUMP JUMPDEST SWAP15 ADD PUSH2 0x175A JUMP JUMPDEST DUP9 DUP1 PUSH1 0xA0 SHL SUB SWAP2 SLOAD SWAP1 PUSH1 0x3 SHL SHR AND BALANCE DIV PUSH2 0x4C60 JUMP JUMPDEST SWAP1 PUSH2 0x2408 DUP2 PUSH1 0x40 MLOAD SWAP13 DUP7 PUSH2 0x239F DUP16 SWAP9 MLOAD DUP1 SWAP3 DUP6 DUP1 DUP13 ADD SWAP2 ADD PUSH2 0x147B JUMP JUMPDEST DUP8 ADD PUSH20 0x2BB4B73732B9102B37BA32B910273AB6B132B91D PUSH1 0x61 SHL DUP4 DUP3 ADD MSTORE PUSH2 0x23D0 DUP3 MLOAD DUP1 SWAP4 DUP6 PUSH1 0x34 DUP6 ADD SWAP2 ADD PUSH2 0x147B JUMP JUMPDEST ADD ADD SWAP2 PUSH32 0x57696E6E657220566F7465722062616C616E6365206265666F72653A20000000 DUP6 DUP5 ADD MSTORE DUP4 MLOAD SWAP4 DUP5 SWAP2 PUSH1 0x31 DUP6 ADD SWAP2 ADD PUSH2 0x147B JUMP JUMPDEST ADD ADD PUSH1 0x5 PUSH1 0xF9 SHL DUP4 DUP3 ADD MSTORE SUB ADD PUSH1 0x1E NOT DUP2 ADD DUP8 MSTORE ADD DUP6 PUSH2 0x12A9 JUMP JUMPDEST DUP7 PUSH1 0x0 DUP1 DUP1 DUP1 DUP10 PUSH2 0x2456 DUP8 PUSH1 0x9 PUSH2 0x243C DUP3 DUP3 DUP12 ADD PUSH2 0x175A JUMP JUMPDEST SWAP1 SLOAD PUSH1 0x3 SWAP2 SWAP1 SWAP2 SHL SHR PUSH1 0x1 PUSH1 0x1 PUSH1 0xA0 SHL SUB AND BALANCE SWAP9 ADD PUSH2 0x175A JUMP JUMPDEST SWAP1 SLOAD PUSH1 0x3 SWAP2 SWAP1 SWAP2 SHL SHR PUSH1 0x1 PUSH1 0x1 PUSH1 0xA0 SHL SUB AND DUP3 DUP3 ISZERO PUSH2 0x2765 JUMPI JUMPDEST CALL ISZERO PUSH2 0x2759 JUMPI DUP10 DUP1 SWAP2 PUSH2 0x2482 DUP5 PUSH2 0x4C60 JUMP JUMPDEST SWAP7 PUSH2 0x248C DUP11 PUSH2 0x4C60 JUMP JUMPDEST DUP12 DUP5 DUP8 PUSH2 0x2498 DUP2 PUSH2 0x4C60 JUMP JUMPDEST SWAP3 PUSH1 0x9 ADD SWAP1 PUSH2 0x24A6 SWAP2 PUSH2 0x175A JUMP JUMPDEST SWAP1 SLOAD PUSH2 0x24CF SWAP2 PUSH8 0xDE0B6B3A7640000 PUSH1 0x3 SWAP2 SWAP1 SWAP2 SHL SWAP2 SWAP1 SWAP2 SHR PUSH1 0x1 PUSH1 0x1 PUSH1 0xA0 SHL SUB AND BALANCE DIV PUSH2 0x4C60 JUMP JUMPDEST SWAP3 DUP2 PUSH1 0x40 MLOAD SWAP13 DUP7 DUP15 SWAP8 MLOAD SWAP1 DUP2 DUP5 DUP1 DUP12 ADD SWAP3 ADD SWAP2 PUSH2 0x24EB SWAP3 PUSH2 0x147B JUMP JUMPDEST DUP8 ADD DUP3 DUP2 ADD PUSH1 0x0 DUP1 MLOAD PUSH1 0x20 PUSH2 0x4EF4 DUP4 CODECOPY DUP2 MLOAD SWAP2 MSTORE SWAP1 MSTORE DUP2 MLOAD SWAP2 DUP3 DUP5 PUSH1 0x40 DUP5 ADD SWAP3 ADD SWAP2 PUSH2 0x2516 SWAP3 PUSH2 0x147B JUMP JUMPDEST ADD ADD DUP3 DUP2 ADD PUSH3 0x101D1 PUSH1 0xED SHL SWAP1 MSTORE DUP2 MLOAD SWAP2 DUP3 DUP5 PUSH1 0x23 DUP5 ADD SWAP3 ADD SWAP2 PUSH2 0x2539 SWAP3 PUSH2 0x147B JUMP JUMPDEST ADD ADD PUSH1 0x5 PUSH1 0xF9 SHL PUSH1 0x3 DUP3 ADD MSTORE PUSH1 0x4 DUP2 ADD PUSH20 0x2BB4B73732B9102B37BA32B910273AB6B132B91D PUSH1 0x61 SHL SWAP1 MSTORE DUP2 MLOAD SWAP2 DUP3 DUP8 PUSH1 0x18 DUP5 ADD SWAP3 ADD SWAP2 PUSH2 0x2578 SWAP3 PUSH2 0x147B JUMP JUMPDEST ADD PUSH1 0x3 ADD PUSH1 0x15 DUP2 ADD PUSH1 0x0 DUP1 MLOAD PUSH1 0x20 PUSH2 0x4E54 DUP4 CODECOPY DUP2 MLOAD SWAP2 MSTORE SWAP1 MSTORE DUP2 MLOAD SWAP2 DUP3 DUP7 PUSH1 0x31 DUP5 ADD SWAP3 ADD SWAP2 PUSH2 0x25A6 SWAP3 PUSH2 0x147B JUMP JUMPDEST ADD PUSH1 0x15 ADD PUSH1 0x5 PUSH1 0xF9 SHL PUSH1 0x1C DUP3 ADD MSTORE SUB PUSH1 0x1C ADD PUSH1 0x1E NOT DUP2 ADD DUP9 MSTORE PUSH1 0x1 ADD PUSH2 0x25CC SWAP1 DUP9 PUSH2 0x12A9 JUMP JUMPDEST PUSH2 0x25D9 DUP5 PUSH1 0x9 DUP13 ADD PUSH2 0x175A JUMP JUMPDEST SWAP1 SLOAD PUSH2 0x25F3 SWAP3 SWAP2 PUSH1 0x3 SHL SHR PUSH1 0x1 PUSH1 0x1 PUSH1 0xA0 SHL SUB AND BALANCE PUSH2 0x183D JUMP JUMPDEST PUSH8 0xDE0B6B3A7640000 SWAP1 DIV SWAP6 PUSH2 0x2608 DUP8 PUSH2 0x4C60 JUMP JUMPDEST PUSH1 0x40 MLOAD SWAP4 DUP5 SWAP2 DUP2 DUP1 DUP5 ADD DUP6 DUP2 SWAP7 MLOAD SWAP3 DUP4 SWAP2 ADD SWAP2 PUSH2 0x2624 SWAP3 PUSH2 0x147B JUMP JUMPDEST DUP4 ADD DUP3 DUP2 ADD PUSH1 0x0 DUP1 MLOAD PUSH1 0x20 PUSH2 0x4F14 DUP4 CODECOPY DUP2 MLOAD SWAP2 MSTORE SWAP1 MSTORE DUP2 MLOAD SWAP2 DUP3 DUP5 PUSH1 0x3F DUP5 ADD SWAP3 ADD SWAP2 PUSH2 0x264F SWAP3 PUSH2 0x147B JUMP JUMPDEST ADD ADD PUSH1 0x5 PUSH1 0xF9 SHL PUSH1 0x1F DUP3 ADD MSTORE SUB PUSH1 0x1F ADD PUSH1 0x1E NOT DUP2 ADD DUP5 MSTORE PUSH1 0x1 ADD PUSH2 0x2673 SWAP1 DUP5 PUSH2 0x12A9 JUMP JUMPDEST DUP3 SWAP7 ISZERO PUSH2 0x2689 JUMPI JUMPDEST POP POP POP PUSH1 0x1 ADD SWAP1 SWAP2 SWAP3 PUSH2 0x230B JUMP JUMPDEST PUSH1 0x1 SWAP4 SWAP7 POP SWAP2 PUSH2 0x53B PUSH2 0x26EB PUSH2 0x2750 SWAP4 PUSH2 0x26AF SWAP6 PUSH1 0x40 MLOAD SWAP7 DUP8 SWAP6 MLOAD DUP1 SWAP3 DUP5 DUP9 ADD SWAP1 PUSH2 0x147B JUMP JUMPDEST DUP5 ADD ADD PUSH32 0x4D6F6E6579206973207265766572746564206261636B20746F2074686520636F DUP2 MSTORE PUSH7 0x373A3930B1BA05 PUSH1 0xC9 SHL PUSH1 0x20 DUP3 ADD MSTORE PUSH1 0x27 ADD SWAP1 JUMP JUMPDEST PUSH32 0x4F6E6520526561736F6E20697320746861742077616C6C657420636F6E746169 DUP2 MSTORE PUSH32 0x6E73206D6178696D756D20616C6C6F77656420616D6F756E74202C2077686963 PUSH1 0x20 DUP3 ADD MSTORE PUSH13 0x34101898161818181022AA2405 PUSH1 0x99 SHL PUSH1 0x40 DUP3 ADD MSTORE PUSH1 0x4D ADD SWAP1 JUMP JUMPDEST SWAP4 SWAP1 DUP10 CODESIZE PUSH2 0x267B JUMP JUMPDEST PUSH1 0x40 MLOAD RETURNDATASIZE PUSH1 0x0 DUP3 RETURNDATACOPY RETURNDATASIZE SWAP1 REVERT JUMPDEST POP PUSH2 0x8FC PUSH2 0x2470 JUMP JUMPDEST SWAP8 SWAP6 SWAP2 SWAP4 POP POP DUP5 SWAP4 POP SWAP5 SWAP1 SWAP5 PUSH1 0xFF NOT PUSH1 0xD DUP3 ADD SLOAD AND PUSH1 0xD DUP3 ADD SSTORE PUSH1 0x1 PUSH1 0xA0 SHL PUSH1 0x1 SWAP1 SUB PUSH1 0x3 DUP3 ADD SLOAD AND SWAP1 DUP3 PUSH1 0x40 MLOAD DUP7 DUP5 DUP3 MSTORE PUSH1 0x0 DUP1 MLOAD PUSH1 0x20 PUSH2 0x4ED4 DUP4 CODECOPY DUP2 MLOAD SWAP2 MSTORE SWAP2 LOG2 PUSH1 0x40 MLOAD SWAP2 PUSH1 0x8 DUP4 SWAP3 ADD PUSH2 0x27C4 SWAP2 DUP4 PUSH2 0x1885 JUMP JUMPDEST SUB PUSH1 0x0 DUP1 MLOAD PUSH1 0x20 PUSH2 0x4E94 DUP4 CODECOPY DUP2 MLOAD SWAP2 MSTORE SWAP2 LOG2 PUSH2 0x27E9 PUSH8 0xDE0B6B3A7640000 SELFBALANCE DIV PUSH2 0x4C60 JUMP JUMPDEST PUSH1 0x40 MLOAD SWAP4 DUP5 SWAP2 DUP2 DUP1 DUP1 DUP6 ADD DUP11 DUP2 SWAP12 MLOAD SWAP3 DUP4 SWAP2 ADD SWAP2 PUSH2 0x2806 SWAP3 PUSH2 0x147B JUMP JUMPDEST DUP5 ADD ADD PUSH2 0x2812 SWAP1 PUSH2 0x1918 JUMP JUMPDEST DUP2 DUP2 SWAP3 MLOAD SWAP4 DUP5 SWAP2 ADD SWAP2 PUSH2 0x2824 SWAP3 PUSH2 0x147B JUMP JUMPDEST ADD PUSH1 0x5 PUSH1 0xF9 SHL DUP2 MSTORE SUB PUSH1 0x1E NOT DUP2 ADD DUP5 MSTORE PUSH1 0x1 ADD PUSH2 0x2841 SWAP1 DUP5 PUSH2 0x12A9 JUMP JUMPDEST SELFBALANCE PUSH2 0x284B SWAP2 PUSH2 0x183D JUMP JUMPDEST PUSH8 0xDE0B6B3A7640000 SWAP1 DIV SWAP4 DUP2 PUSH2 0x2861 DUP7 PUSH2 0x4C60 JUMP JUMPDEST SWAP4 DUP2 PUSH1 0x40 MLOAD SWAP6 DUP7 SWAP3 DUP3 DUP5 ADD SWAP6 DUP7 SWAP2 MLOAD DUP1 SWAP3 PUSH2 0x287B SWAP3 PUSH2 0x147B JUMP JUMPDEST DUP4 ADD DUP3 DUP2 ADD PUSH1 0x0 DUP1 MLOAD PUSH1 0x20 PUSH2 0x4EB4 DUP4 CODECOPY DUP2 MLOAD SWAP2 MSTORE SWAP1 MSTORE DUP2 MLOAD SWAP2 DUP3 DUP5 PUSH1 0x40 DUP5 ADD SWAP3 ADD SWAP2 PUSH2 0x28A6 SWAP3 PUSH2 0x147B JUMP JUMPDEST ADD ADD PUSH1 0x5 PUSH1 0xF9 SHL DUP4 DUP3 ADD MSTORE SUB ADD PUSH1 0x1E NOT DUP2 ADD DUP5 MSTORE PUSH1 0x1 ADD PUSH2 0x28C7 SWAP1 DUP5 PUSH2 0x12A9 JUMP JUMPDEST DUP3 SWAP5 ISZERO PUSH2 0x28D8 JUMPI JUMPDEST POP POP POP PUSH1 0x1 SWAP2 SWAP1 JUMP JUMPDEST PUSH2 0x26AF SWAP4 SWAP5 POP PUSH2 0x26EB PUSH2 0x28FC SWAP4 SWAP3 PUSH2 0x53B SWAP3 PUSH1 0x40 MLOAD SWAP7 DUP8 SWAP6 MLOAD DUP1 SWAP3 DUP5 DUP9 ADD SWAP1 PUSH2 0x147B JUMP JUMPDEST SWAP1 CODESIZE DUP1 DUP1 PUSH2 0x28CF JUMP JUMPDEST PUSH2 0x26AF SWAP4 SWAP6 POP PUSH2 0x26EB PUSH2 0x2929 SWAP4 SWAP3 PUSH2 0x53B SWAP3 PUSH1 0x40 MLOAD SWAP7 DUP8 SWAP6 MLOAD DUP1 SWAP3 DUP5 DUP9 ADD SWAP1 PUSH2 0x147B JUMP JUMPDEST SWAP2 CODESIZE DUP9 DUP2 PUSH2 0x223D JUMP JUMPDEST POP PUSH2 0x8FC PUSH2 0x209C JUMP JUMPDEST SWAP5 POP SWAP5 POP SWAP5 POP DUP3 PUSH1 0x3 SHL DUP4 ISZERO SWAP5 DUP5 DUP3 DIV PUSH1 0x8 EQ DUP7 OR ISZERO PUSH2 0x5FA JUMPI PUSH1 0xA PUSH2 0x2961 SWAP3 DIV PUSH2 0x14C3 JUMP JUMPDEST SWAP4 PUSH1 0x12 DUP5 MUL SWAP4 DUP5 DIV PUSH1 0x12 EQ OR ISZERO PUSH2 0x5FA JUMPI PUSH1 0x64 DUP9 SWAP4 DIV SWAP5 CODESIZE DUP1 PUSH2 0x1F50 JUMP JUMPDEST DUP13 DUP7 DUP7 LT ISZERO PUSH2 0x3283 JUMPI SWAP5 POP POP POP POP POP PUSH2 0x29DE SWAP3 POP PUSH1 0x16 SWAP2 POP PUSH1 0x40 MLOAD DUP6 PUSH2 0x29AE DUP3 SWAP8 MLOAD DUP1 SWAP3 DUP6 DUP1 DUP7 ADD SWAP2 ADD PUSH2 0x147B JUMP JUMPDEST DUP2 ADD PUSH22 0x2A3930B1B590191034B9903A3432903BB4B73732B905 PUSH1 0x51 SHL DUP4 DUP3 ADD MSTORE SUB ADD PUSH1 0x9 NOT DUP2 ADD DUP6 MSTORE ADD DUP4 PUSH2 0x12A9 JUMP JUMPDEST PUSH1 0x11 DUP5 ADD SLOAD SWAP3 PUSH1 0x10 DUP6 ADD SLOAD SWAP2 PUSH2 0x29F7 DUP4 PUSH1 0x1 SHR DUP7 PUSH2 0x153E JUMP JUMPDEST SWAP4 PUSH2 0x2A07 PUSH1 0x6 DUP9 ADD SLOAD DUP1 SWAP7 PUSH2 0x14C3 JUMP JUMPDEST SWAP5 PUSH8 0x429D069189E0000 DUP6 MUL SWAP5 DUP1 DUP7 DIV PUSH8 0x429D069189E0000 EQ SWAP1 ISZERO OR ISZERO PUSH2 0x5FA JUMPI PUSH8 0xDE0B6B3A7640000 DUP11 SWAP6 DIV SWAP7 PUSH1 0x5 DUP10 ADD SLOAD ISZERO PUSH2 0x323F JUMPI JUMPDEST POP POP PUSH8 0xDE0B6B3A7640000 DUP6 DIV SWAP6 PUSH2 0x2A58 DUP8 PUSH2 0x4C60 JUMP JUMPDEST SWAP2 DUP6 PUSH2 0x2A6D PUSH8 0xDE0B6B3A7640000 DUP5 DIV PUSH2 0x4C60 JUMP JUMPDEST PUSH1 0x4 DUP12 ADD SLOAD PUSH1 0x1 PUSH1 0x1 PUSH1 0xA0 SHL SUB AND SWAP5 SWAP1 DUP3 SWAP1 DUP2 PUSH2 0x2A94 PUSH8 0xDE0B6B3A7640000 DUP10 BALANCE DIV PUSH2 0x4C60 JUMP JUMPDEST SWAP4 PUSH1 0x40 MLOAD SWAP12 DUP8 DUP14 SWAP9 MLOAD SWAP1 DUP2 DUP4 DUP1 DUP13 ADD SWAP3 ADD SWAP2 PUSH2 0x2AAF SWAP3 PUSH2 0x147B JUMP JUMPDEST DUP9 ADD ADD PUSH2 0x2ABB SWAP1 PUSH2 0x19DD JUMP JUMPDEST DUP2 DUP2 SWAP3 MLOAD SWAP4 DUP5 SWAP2 ADD SWAP2 PUSH2 0x2ACD SWAP3 PUSH2 0x147B JUMP JUMPDEST ADD PUSH1 0x5 PUSH1 0xF9 SHL DUP2 MSTORE PUSH1 0x1 ADD PUSH2 0x2AE1 SWAP1 PUSH2 0x1A12 JUMP JUMPDEST DUP2 DUP2 SWAP3 MLOAD SWAP4 DUP5 SWAP2 ADD SWAP2 PUSH2 0x2AF3 SWAP3 PUSH2 0x147B JUMP JUMPDEST PUSH1 0x5 PUSH1 0xF9 SHL SWAP2 ADD SWAP1 DUP2 MSTORE PUSH1 0x0 DUP1 MLOAD PUSH1 0x20 PUSH2 0x4E74 DUP4 CODECOPY DUP2 MLOAD SWAP2 MSTORE PUSH1 0x1 DUP3 ADD MSTORE PUSH5 0x30BA37B905 PUSH1 0xD9 SHL PUSH1 0x21 DUP3 ADD MSTORE PUSH1 0x26 ADD SWAP1 PUSH23 0x2BB4B73732B9103130B630B731B2903132B337B9329D1 PUSH1 0x4D SHL DUP3 MSTORE DUP1 MLOAD DUP1 SWAP4 PUSH1 0x17 DUP5 ADD SWAP3 ADD SWAP2 PUSH2 0x2B54 SWAP3 PUSH2 0x147B JUMP JUMPDEST ADD PUSH1 0x5 PUSH1 0xF9 SHL PUSH1 0x17 DUP3 ADD MSTORE SUB PUSH1 0x17 ADD PUSH1 0x1E NOT DUP2 ADD DUP7 MSTORE PUSH1 0x1 ADD PUSH2 0x2B77 SWAP1 DUP7 PUSH2 0x12A9 JUMP JUMPDEST DUP1 DUP3 BALANCE SWAP3 PUSH1 0x0 DUP3 ISZERO PUSH1 0x0 SWAP4 DUP5 SWAP4 DUP5 SWAP4 DUP5 SWAP4 PUSH2 0x3236 JUMPI JUMPDEST CALL ISZERO PUSH2 0x2759 JUMPI DUP10 SWAP2 PUSH8 0xDE0B6B3A7640000 DUP4 SWAP3 DIV PUSH2 0x2BAA SWAP1 PUSH2 0x4C60 JUMP JUMPDEST PUSH1 0x4 DUP11 ADD SLOAD PUSH1 0x1 PUSH1 0x1 PUSH1 0xA0 SHL SUB AND SWAP1 PUSH2 0x2BCD PUSH8 0xDE0B6B3A7640000 DUP4 BALANCE DIV PUSH2 0x4C60 JUMP JUMPDEST PUSH1 0x40 MLOAD SWAP6 DUP7 SWAP3 DUP2 DUP1 DUP6 ADD DUP13 DUP2 SWAP14 MLOAD SWAP3 DUP4 SWAP2 ADD SWAP2 PUSH2 0x2BE9 SWAP3 PUSH2 0x147B JUMP JUMPDEST DUP5 ADD DUP3 DUP2 ADD PUSH32 0x547261636B20322043726561746F72207265636569766573203A200000000000 SWAP1 MSTORE DUP2 MLOAD SWAP2 DUP3 DUP5 PUSH1 0x3B DUP5 ADD SWAP3 ADD SWAP2 PUSH2 0x2C26 SWAP3 PUSH2 0x147B JUMP JUMPDEST ADD ADD PUSH1 0x5 PUSH1 0xF9 SHL PUSH1 0x1B DUP3 ADD MSTORE PUSH1 0x1C DUP2 ADD PUSH22 0x2BB4B73732B9103130B630B731B29030B33A32B91D1 PUSH1 0x55 SHL SWAP1 MSTORE DUP2 MLOAD SWAP2 DUP3 DUP8 PUSH1 0x32 DUP5 ADD SWAP3 ADD SWAP2 PUSH2 0x2C67 SWAP3 PUSH2 0x147B JUMP JUMPDEST ADD PUSH1 0x1B ADD PUSH1 0x5 PUSH1 0xF9 SHL PUSH1 0x17 DUP3 ADD MSTORE SUB PUSH1 0x17 ADD PUSH1 0x1E NOT DUP2 ADD DUP6 MSTORE PUSH1 0x1 ADD PUSH2 0x2C8D SWAP1 DUP6 PUSH2 0x12A9 JUMP JUMPDEST BALANCE SWAP1 PUSH2 0x2C98 SWAP2 PUSH2 0x183D JUMP JUMPDEST PUSH8 0xDE0B6B3A7640000 SWAP1 DIV SWAP5 DUP2 PUSH2 0x2CAE DUP8 PUSH2 0x4C60 JUMP JUMPDEST SWAP4 DUP2 PUSH1 0x40 MLOAD SWAP6 DUP7 SWAP3 DUP3 DUP5 ADD SWAP6 DUP7 SWAP2 MLOAD DUP1 SWAP3 PUSH2 0x2CC8 SWAP3 PUSH2 0x147B JUMP JUMPDEST DUP4 ADD DUP3 DUP2 ADD PUSH32 0x446966666572656E636520696E2077696E6E657227732062616C616E63653A20 SWAP1 MSTORE DUP2 MLOAD SWAP2 DUP3 DUP5 PUSH1 0x40 DUP5 ADD SWAP3 ADD SWAP2 PUSH2 0x2D05 SWAP3 PUSH2 0x147B JUMP JUMPDEST ADD ADD PUSH1 0x5 PUSH1 0xF9 SHL DUP4 DUP3 ADD MSTORE SUB ADD PUSH1 0x1E NOT DUP2 ADD DUP5 MSTORE PUSH1 0x1 ADD PUSH2 0x2D26 SWAP1 DUP5 PUSH2 0x12A9 JUMP JUMPDEST DUP3 SWAP6 ISZERO PUSH2 0x3209 JUMPI JUMPDEST POP PUSH2 0x2DA4 SWAP2 POP PUSH2 0x2D97 PUSH1 0x1 PUSH1 0x14 PUSH1 0x6 DUP12 SWAP9 SWAP7 SWAP8 SWAP9 ADD SLOAD SWAP6 PUSH2 0x2D4E DUP8 PUSH2 0x4C60 JUMP JUMPDEST DUP6 PUSH2 0x22E0 PUSH2 0x2D6D PUSH1 0x40 MLOAD SWAP9 DUP6 PUSH2 0x227C DUP12 SWAP8 MLOAD DUP1 SWAP3 DUP5 DUP1 DUP12 ADD SWAP2 ADD PUSH2 0x147B JUMP JUMPDEST SWAP2 PUSH20 0x3130BA3A3632973B37BA32B9AA3930B1B5991D1 PUSH1 0x65 SHL DUP4 MSTORE DUP4 MLOAD SWAP4 DUP5 SWAP2 DUP8 DUP6 ADD SWAP2 ADD PUSH2 0x147B JUMP JUMPDEST SWAP2 PUSH1 0xA DUP9 ADD SLOAD LT ISZERO PUSH2 0x194D JUMP JUMPDEST PUSH1 0x0 SWAP1 JUMPDEST PUSH1 0x6 DUP8 ADD SLOAD DUP3 LT ISZERO PUSH2 0x3072 JUMPI SWAP1 PUSH2 0x2DEE PUSH1 0x1 PUSH1 0x1D DUP10 SWAP7 SWAP6 SWAP5 PUSH2 0x2DD0 PUSH2 0x2333 DUP7 PUSH1 0xA DUP12 ADD PUSH2 0x175A JUMP JUMPDEST PUSH1 0x14 DUP14 PUSH2 0x2382 PUSH8 0xDE0B6B3A7640000 PUSH2 0x236D DUP10 PUSH1 0xA PUSH2 0x2366 DUP3 PUSH2 0x4C60 JUMP JUMPDEST DUP7 PUSH1 0x0 DUP1 DUP1 DUP1 DUP10 PUSH2 0x2E07 DUP8 PUSH1 0xA PUSH2 0x243C DUP3 DUP3 DUP12 ADD PUSH2 0x175A JUMP JUMPDEST SWAP1 SLOAD PUSH1 0x3 SWAP2 SWAP1 SWAP2 SHL SHR PUSH1 0x1 PUSH1 0x1 PUSH1 0xA0 SHL SUB AND DUP3 DUP3 ISZERO PUSH2 0x3069 JUMPI JUMPDEST CALL ISZERO PUSH2 0x2759 JUMPI DUP10 DUP1 SWAP2 PUSH2 0x2E33 DUP5 PUSH2 0x4C60 JUMP JUMPDEST SWAP7 PUSH2 0x2E3D DUP11 PUSH2 0x4C60 JUMP JUMPDEST DUP12 DUP5 DUP8 PUSH2 0x2E49 DUP2 PUSH2 0x4C60 JUMP JUMPDEST SWAP3 PUSH1 0xA ADD SWAP1 PUSH2 0x2E57 SWAP2 PUSH2 0x175A JUMP JUMPDEST SWAP1 SLOAD PUSH2 0x2E80 SWAP2 PUSH8 0xDE0B6B3A7640000 PUSH1 0x3 SWAP2 SWAP1 SWAP2 SHL SWAP2 SWAP1 SWAP2 SHR PUSH1 0x1 PUSH1 0x1 PUSH1 0xA0 SHL SUB AND BALANCE DIV PUSH2 0x4C60 JUMP JUMPDEST SWAP3 DUP2 PUSH1 0x40 MLOAD SWAP13 DUP7 DUP15 SWAP8 MLOAD SWAP1 DUP2 DUP5 DUP1 DUP12 ADD SWAP3 ADD SWAP2 PUSH2 0x2E9C SWAP3 PUSH2 0x147B JUMP JUMPDEST DUP8 ADD DUP3 DUP2 ADD PUSH1 0x0 DUP1 MLOAD PUSH1 0x20 PUSH2 0x4EF4 DUP4 CODECOPY DUP2 MLOAD SWAP2 MSTORE SWAP1 MSTORE DUP2 MLOAD SWAP2 DUP3 DUP5 PUSH1 0x40 DUP5 ADD SWAP3 ADD SWAP2 PUSH2 0x2EC7 SWAP3 PUSH2 0x147B JUMP JUMPDEST ADD ADD DUP3 DUP2 ADD PUSH3 0x101D1 PUSH1 0xED SHL SWAP1 MSTORE DUP2 MLOAD SWAP2 DUP3 DUP5 PUSH1 0x23 DUP5 ADD SWAP3 ADD SWAP2 PUSH2 0x2EEA SWAP3 PUSH2 0x147B JUMP JUMPDEST ADD ADD PUSH1 0x5 PUSH1 0xF9 SHL PUSH1 0x3 DUP3 ADD MSTORE PUSH1 0x4 DUP2 ADD PUSH20 0x2BB4B73732B9102B37BA32B910273AB6B132B91D PUSH1 0x61 SHL SWAP1 MSTORE DUP2 MLOAD SWAP2 DUP3 DUP8 PUSH1 0x18 DUP5 ADD SWAP3 ADD SWAP2 PUSH2 0x2F29 SWAP3 PUSH2 0x147B JUMP JUMPDEST ADD PUSH1 0x3 ADD PUSH1 0x15 DUP2 ADD PUSH1 0x0 DUP1 MLOAD PUSH1 0x20 PUSH2 0x4E54 DUP4 CODECOPY DUP2 MLOAD SWAP2 MSTORE SWAP1 MSTORE DUP2 MLOAD SWAP2 DUP3 DUP7 PUSH1 0x31 DUP5 ADD SWAP3 ADD SWAP2 PUSH2 0x2F57 SWAP3 PUSH2 0x147B JUMP JUMPDEST ADD PUSH1 0x15 ADD PUSH1 0x5 PUSH1 0xF9 SHL PUSH1 0x1C DUP3 ADD MSTORE SUB PUSH1 0x1C ADD PUSH1 0x1E NOT DUP2 ADD DUP9 MSTORE PUSH1 0x1 ADD PUSH2 0x2F7D SWAP1 DUP9 PUSH2 0x12A9 JUMP JUMPDEST PUSH2 0x2F8A DUP5 PUSH1 0xA DUP13 ADD PUSH2 0x175A JUMP JUMPDEST SWAP1 SLOAD PUSH2 0x2FA4 SWAP3 SWAP2 PUSH1 0x3 SHL SHR PUSH1 0x1 PUSH1 0x1 PUSH1 0xA0 SHL SUB AND BALANCE PUSH2 0x183D JUMP JUMPDEST PUSH8 0xDE0B6B3A7640000 SWAP1 DIV SWAP6 PUSH2 0x2FB9 DUP8 PUSH2 0x4C60 JUMP JUMPDEST PUSH1 0x40 MLOAD SWAP4 DUP5 SWAP2 DUP2 DUP1 DUP5 ADD DUP6 DUP2 SWAP7 MLOAD SWAP3 DUP4 SWAP2 ADD SWAP2 PUSH2 0x2FD5 SWAP3 PUSH2 0x147B JUMP JUMPDEST DUP4 ADD DUP3 DUP2 ADD PUSH1 0x0 DUP1 MLOAD PUSH1 0x20 PUSH2 0x4F14 DUP4 CODECOPY DUP2 MLOAD SWAP2 MSTORE SWAP1 MSTORE DUP2 MLOAD SWAP2 DUP3 DUP5 PUSH1 0x3F DUP5 ADD SWAP3 ADD SWAP2 PUSH2 0x3000 SWAP3 PUSH2 0x147B JUMP JUMPDEST ADD ADD PUSH1 0x5 PUSH1 0xF9 SHL PUSH1 0x1F DUP3 ADD MSTORE SUB PUSH1 0x1F ADD PUSH1 0x1E NOT DUP2 ADD DUP5 MSTORE PUSH1 0x1 ADD PUSH2 0x3024 SWAP1 DUP5 PUSH2 0x12A9 JUMP JUMPDEST DUP3 SWAP7 ISZERO PUSH2 0x303A JUMPI JUMPDEST POP POP POP PUSH1 0x1 ADD SWAP1 SWAP2 SWAP3 PUSH2 0x2DA8 JUMP JUMPDEST PUSH1 0x1 SWAP4 SWAP7 POP SWAP2 PUSH2 0x53B PUSH2 0x26EB PUSH2 0x3060 SWAP4 PUSH2 0x26AF SWAP6 PUSH1 0x40 MLOAD SWAP7 DUP8 SWAP6 MLOAD DUP1 SWAP3 DUP5 DUP9 ADD SWAP1 PUSH2 0x147B JUMP JUMPDEST SWAP4 SWAP1 DUP10 CODESIZE PUSH2 0x302C JUMP JUMPDEST POP PUSH2 0x8FC PUSH2 0x2E21 JUMP JUMPDEST SWAP8 SWAP6 SWAP2 SWAP4 POP POP DUP5 SWAP4 POP SWAP5 SWAP1 SWAP5 PUSH1 0xFF NOT PUSH1 0xD DUP3 ADD SLOAD AND PUSH1 0xD DUP3 ADD SSTORE PUSH1 0x1 PUSH1 0xA0 SHL PUSH1 0x1 SWAP1 SUB PUSH1 0x4 DUP3 ADD SLOAD AND SWAP1 DUP3 PUSH1 0x40 MLOAD DUP7 DUP5 DUP3 MSTORE PUSH1 0x0 DUP1 MLOAD PUSH1 0x20 PUSH2 0x4ED4 DUP4 CODECOPY DUP2 MLOAD SWAP2 MSTORE SWAP2 LOG2 PUSH1 0x40 MLOAD SWAP2 PUSH1 0x8 DUP4 SWAP3 ADD PUSH2 0x30C8 SWAP2 DUP4 PUSH2 0x18D1 JUMP JUMPDEST SUB PUSH1 0x0 DUP1 MLOAD PUSH1 0x20 PUSH2 0x4E94 DUP4 CODECOPY DUP2 MLOAD SWAP2 MSTORE SWAP2 LOG2 PUSH2 0x30ED PUSH8 0xDE0B6B3A7640000 SELFBALANCE DIV PUSH2 0x4C60 JUMP JUMPDEST PUSH1 0x40 MLOAD SWAP4 DUP5 SWAP2 DUP2 DUP1 DUP1 DUP6 ADD DUP11 DUP2 SWAP12 MLOAD SWAP3 DUP4 SWAP2 ADD SWAP2 PUSH2 0x310A SWAP3 PUSH2 0x147B JUMP JUMPDEST DUP5 ADD ADD PUSH2 0x3116 SWAP1 PUSH2 0x1918 JUMP JUMPDEST DUP2 DUP2 SWAP3 MLOAD SWAP4 DUP5 SWAP2 ADD SWAP2 PUSH2 0x3128 SWAP3 PUSH2 0x147B JUMP JUMPDEST ADD PUSH1 0x5 PUSH1 0xF9 SHL DUP2 MSTORE SUB PUSH1 0x1E NOT DUP2 ADD DUP5 MSTORE PUSH1 0x1 ADD PUSH2 0x3145 SWAP1 DUP5 PUSH2 0x12A9 JUMP JUMPDEST SELFBALANCE PUSH2 0x314F SWAP2 PUSH2 0x183D JUMP JUMPDEST PUSH8 0xDE0B6B3A7640000 SWAP1 DIV SWAP4 DUP2 PUSH2 0x3165 DUP7 PUSH2 0x4C60 JUMP JUMPDEST SWAP4 DUP2 PUSH1 0x40 MLOAD SWAP6 DUP7 SWAP3 DUP3 DUP5 ADD SWAP6 DUP7 SWAP2 MLOAD DUP1 SWAP3 PUSH2 0x317F SWAP3 PUSH2 0x147B JUMP JUMPDEST DUP4 ADD DUP3 DUP2 ADD PUSH1 0x0 DUP1 MLOAD PUSH1 0x20 PUSH2 0x4EB4 DUP4 CODECOPY DUP2 MLOAD SWAP2 MSTORE SWAP1 MSTORE DUP2 MLOAD SWAP2 DUP3 DUP5 PUSH1 0x40 DUP5 ADD SWAP3 ADD SWAP2 PUSH2 0x31AA SWAP3 PUSH2 0x147B JUMP JUMPDEST ADD ADD PUSH1 0x5 PUSH1 0xF9 SHL DUP4 DUP3 ADD MSTORE SUB ADD PUSH1 0x1E NOT DUP2 ADD DUP5 MSTORE PUSH1 0x1 ADD PUSH2 0x31CB SWAP1 DUP5 PUSH2 0x12A9 JUMP JUMPDEST DUP3 SWAP5 ISZERO PUSH2 0x31DC JUMPI JUMPDEST POP POP POP PUSH1 0x2 SWAP2 SWAP1 JUMP JUMPDEST PUSH2 0x26AF SWAP4 SWAP5 POP PUSH2 0x26EB PUSH2 0x3200 SWAP4 SWAP3 PUSH2 0x53B SWAP3 PUSH1 0x40 MLOAD SWAP7 DUP8 SWAP6 MLOAD DUP1 SWAP3 DUP5 DUP9 ADD SWAP1 PUSH2 0x147B JUMP JUMPDEST SWAP1 CODESIZE DUP1 DUP1 PUSH2 0x31D3 JUMP JUMPDEST PUSH2 0x26AF SWAP4 SWAP6 POP PUSH2 0x26EB PUSH2 0x322D SWAP4 SWAP3 PUSH2 0x53B SWAP3 PUSH1 0x40 MLOAD SWAP7 DUP8 SWAP6 MLOAD DUP1 SWAP3 DUP5 DUP9 ADD SWAP1 PUSH2 0x147B JUMP JUMPDEST SWAP2 CODESIZE DUP9 DUP2 PUSH2 0x2D2E JUMP JUMPDEST POP PUSH2 0x8FC PUSH2 0x2B8D JUMP JUMPDEST SWAP5 POP SWAP5 POP SWAP5 POP DUP3 PUSH1 0x3 SHL DUP4 ISZERO SWAP5 DUP5 DUP3 DIV PUSH1 0x8 EQ DUP7 OR ISZERO PUSH2 0x5FA JUMPI PUSH1 0xA PUSH2 0x3265 SWAP3 DIV PUSH2 0x14C3 JUMP JUMPDEST SWAP4 PUSH1 0x12 DUP5 MUL SWAP4 DUP5 DIV PUSH1 0x12 EQ OR ISZERO PUSH2 0x5FA JUMPI PUSH1 0x64 DUP9 SWAP4 DIV SWAP5 CODESIZE DUP1 PUSH2 0x2A41 JUMP JUMPDEST PUSH2 0x3305 SWAP3 SWAP4 SWAP5 SWAP6 SWAP7 SWAP10 POP PUSH1 0x2B PUSH2 0x32FE SWAP2 PUSH1 0x40 SWAP15 SWAP11 SWAP15 SWAP13 SWAP10 SWAP13 MLOAD DUP7 PUSH2 0x32B0 DUP3 SWAP9 MLOAD DUP1 SWAP3 DUP6 DUP1 DUP7 ADD SWAP2 ADD PUSH2 0x147B JUMP JUMPDEST DUP2 ADD PUSH15 0x2A3432B9329034B99030902A34B285 PUSH1 0x89 SHL DUP4 DUP3 ADD MSTORE PUSH32 0x547261636B20312026203220617265207468652077696E6E6572730A00000000 PUSH1 0x2F DUP3 ADD MSTORE SUB ADD PUSH1 0xB DUP2 ADD DUP7 MSTORE ADD DUP5 PUSH2 0x12A9 JUMP JUMPDEST DUP3 SWAP10 PUSH2 0x153E JUMP JUMPDEST SWAP4 PUSH8 0xB1A2BC2EC500000 DUP6 MUL SWAP5 DUP1 DUP7 DIV PUSH8 0xB1A2BC2EC500000 EQ SWAP1 ISZERO OR ISZERO PUSH2 0x5FA JUMPI DUP12 SWAP8 PUSH2 0x3332 SWAP2 PUSH2 0x153E JUMP JUMPDEST ISZERO PUSH2 0x406E JUMPI POP POP POP PUSH2 0x3361 SWAP1 PUSH8 0xDE0B6B3A7640000 PUSH2 0x335A PUSH1 0x5 DUP10 ADD SLOAD PUSH1 0x6 DUP11 ADD SLOAD SWAP1 PUSH2 0x153E JUMP JUMPDEST SWAP2 DIV PUSH2 0x14C3 JUMP JUMPDEST SWAP4 PUSH1 0xA PUSH2 0x3377 PUSH1 0x10 DUP9 ADD SLOAD PUSH1 0x11 DUP10 ADD SLOAD SWAP1 PUSH2 0x153E JUMP JUMPDEST DIV PUSH1 0x1 SHR SWAP1 PUSH1 0x1 DUP1 PUSH1 0xA0 SHL SUB PUSH1 0x3 DUP9 ADD SLOAD AND PUSH2 0x3442 PUSH1 0x1 PUSH1 0x49 PUSH2 0x33A4 PUSH8 0xDE0B6B3A7640000 DUP6 BALANCE DIV PUSH2 0x4C60 JUMP JUMPDEST PUSH1 0x40 MLOAD SWAP10 DUP11 SWAP2 DUP2 PUSH2 0x33BE DUP2 DUP6 ADD SWAP10 DUP11 DUP2 MLOAD SWAP4 DUP5 SWAP3 ADD PUSH2 0x147B JUMP JUMPDEST DUP4 ADD PUSH1 0x0 DUP1 MLOAD PUSH1 0x20 PUSH2 0x4E74 DUP4 CODECOPY DUP2 MLOAD SWAP2 MSTORE DUP4 DUP3 ADD MSTORE PUSH7 0x30BA37B9101885 PUSH1 0xC9 SHL PUSH1 0x40 DUP3 ADD MSTORE PUSH32 0x547261636B2043726561746F72203127732042616C616E6365206265666F7265 PUSH1 0x47 DUP3 ADD MSTORE PUSH2 0x1D1 PUSH1 0xF5 SHL PUSH1 0x67 DUP3 ADD MSTORE PUSH2 0x3427 DUP3 MLOAD DUP1 SWAP4 DUP6 PUSH1 0x69 DUP6 ADD SWAP2 ADD PUSH2 0x147B JUMP JUMPDEST ADD ADD PUSH1 0x5 PUSH1 0xF9 SHL DUP4 DUP3 ADD MSTORE SUB ADD PUSH1 0x1E NOT DUP2 ADD DUP10 MSTORE ADD DUP8 PUSH2 0x12A9 JUMP JUMPDEST PUSH1 0x0 DUP1 DUP1 DUP1 DUP7 DUP6 BALANCE SWAP6 DUP3 DUP3 ISZERO PUSH2 0x4065 JUMPI JUMPDEST CALL ISZERO PUSH2 0x2759 JUMPI DUP10 SWAP2 DUP3 SWAP2 PUSH2 0x3470 PUSH8 0xDE0B6B3A7640000 DUP7 DIV PUSH2 0x4C60 JUMP JUMPDEST PUSH1 0x3 DUP12 ADD SLOAD SWAP1 SWAP9 PUSH1 0x1 PUSH1 0x1 PUSH1 0xA0 SHL SUB SWAP1 SWAP2 AND SWAP1 PUSH2 0x3497 PUSH8 0xDE0B6B3A7640000 DUP4 BALANCE DIV PUSH2 0x4C60 JUMP JUMPDEST DUP6 PUSH1 0x40 MLOAD SWAP12 DUP13 SWAP4 DUP3 DUP6 ADD SWAP8 DUP9 SWAP2 MLOAD DUP1 SWAP3 PUSH2 0x34B0 SWAP3 PUSH2 0x147B JUMP JUMPDEST DUP5 ADD DUP3 DUP2 ADD PUSH32 0x547261636B20312043726561746F72207265636569766573203A200000000000 SWAP1 MSTORE DUP2 MLOAD SWAP2 DUP3 DUP5 PUSH1 0x3B DUP5 ADD SWAP3 ADD SWAP2 PUSH2 0x34ED SWAP3 PUSH2 0x147B JUMP JUMPDEST ADD ADD PUSH1 0x5 PUSH1 0xF9 SHL PUSH1 0x1B DUP3 ADD MSTORE PUSH1 0x1C DUP2 ADD PUSH32 0x547261636B2043726561746F72203127732042616C616E63652061667465723A SWAP1 MSTORE PUSH1 0x3C DUP2 ADD PUSH1 0x1 PUSH1 0xFD SHL SWAP1 MSTORE DUP2 MLOAD SWAP2 DUP3 DUP9 PUSH1 0x3D DUP5 ADD SWAP3 ADD SWAP2 PUSH2 0x3540 SWAP3 PUSH2 0x147B JUMP JUMPDEST ADD PUSH1 0x1B ADD PUSH1 0x5 PUSH1 0xF9 SHL PUSH1 0x22 DUP3 ADD MSTORE SUB PUSH1 0x22 ADD PUSH1 0x1E NOT DUP2 ADD DUP11 MSTORE PUSH1 0x1 ADD PUSH2 0x3566 SWAP1 DUP11 PUSH2 0x12A9 JUMP JUMPDEST BALANCE SWAP1 PUSH2 0x3571 SWAP2 PUSH2 0x183D JUMP JUMPDEST PUSH8 0xDE0B6B3A7640000 SWAP1 DIV SWAP7 DUP3 PUSH2 0x3587 DUP10 PUSH2 0x4C60 JUMP JUMPDEST PUSH1 0x40 MLOAD SWAP6 DUP7 SWAP4 DUP2 DUP6 ADD SWAP6 DUP7 SWAP2 MLOAD DUP1 SWAP3 PUSH2 0x359F SWAP3 PUSH2 0x147B JUMP JUMPDEST DUP5 ADD ADD PUSH2 0x35AB SWAP1 PUSH2 0x184A JUMP JUMPDEST DUP2 DUP2 SWAP3 MLOAD SWAP4 DUP5 SWAP2 ADD SWAP2 PUSH2 0x35BD SWAP3 PUSH2 0x147B JUMP JUMPDEST ADD PUSH1 0x5 PUSH1 0xF9 SHL DUP2 MSTORE SUB PUSH1 0x1E NOT DUP2 ADD DUP5 MSTORE PUSH1 0x1 ADD PUSH2 0x35DA SWAP1 DUP5 PUSH2 0x12A9 JUMP JUMPDEST DUP3 SWAP7 ISZERO PUSH2 0x4038 JUMPI JUMPDEST POP POP POP PUSH1 0x4 DUP7 ADD SLOAD PUSH1 0x1 PUSH1 0x1 PUSH1 0xA0 SHL SUB AND SWAP1 PUSH2 0x36AD PUSH1 0x1 PUSH1 0x49 PUSH2 0x360F PUSH8 0xDE0B6B3A7640000 DUP7 BALANCE DIV PUSH2 0x4C60 JUMP JUMPDEST SWAP8 DUP13 PUSH1 0x40 MLOAD SWAP10 DUP3 PUSH2 0x3629 DUP13 SWAP5 MLOAD DUP1 SWAP3 DUP6 DUP1 DUP9 ADD SWAP2 ADD PUSH2 0x147B JUMP JUMPDEST DUP4 ADD PUSH1 0x0 DUP1 MLOAD PUSH1 0x20 PUSH2 0x4E74 DUP4 CODECOPY DUP2 MLOAD SWAP2 MSTORE DUP4 DUP3 ADD MSTORE PUSH7 0x30BA37B9101905 PUSH1 0xC9 SHL PUSH1 0x40 DUP3 ADD MSTORE PUSH32 0x547261636B2043726561746F72203227732042616C616E6365206265666F7265 PUSH1 0x47 DUP3 ADD MSTORE PUSH2 0x1D1 PUSH1 0xF5 SHL PUSH1 0x67 DUP3 ADD MSTORE PUSH2 0x3692 DUP3 MLOAD DUP1 SWAP4 DUP6 PUSH1 0x69 DUP6 ADD SWAP2 ADD PUSH2 0x147B JUMP JUMPDEST ADD ADD PUSH1 0x5 PUSH1 0xF9 SHL DUP4 DUP3 ADD MSTORE SUB ADD PUSH1 0x1E NOT DUP2 ADD DUP9 MSTORE ADD DUP7 PUSH2 0x12A9 JUMP JUMPDEST PUSH1 0x0 DUP1 DUP1 DUP1 DUP5 DUP7 BALANCE SWAP7 DUP3 DUP3 ISZERO PUSH2 0x402F JUMPI JUMPDEST CALL ISZERO PUSH2 0x2759 JUMPI DUP9 SWAP2 PUSH8 0xDE0B6B3A7640000 DUP4 SWAP3 DIV PUSH2 0x36DB SWAP1 PUSH2 0x4C60 JUMP JUMPDEST PUSH1 0x4 DUP10 ADD SLOAD SWAP1 SWAP7 PUSH1 0x1 PUSH1 0x1 PUSH1 0xA0 SHL SUB SWAP1 SWAP2 AND SWAP1 PUSH2 0x3702 PUSH8 0xDE0B6B3A7640000 DUP4 BALANCE DIV PUSH2 0x4C60 JUMP JUMPDEST DUP5 PUSH1 0x40 MLOAD SWAP10 DUP4 DUP12 SWAP5 MLOAD SWAP1 DUP2 DUP5 DUP1 DUP9 ADD SWAP3 ADD SWAP2 PUSH2 0x371D SWAP3 PUSH2 0x147B JUMP JUMPDEST DUP5 ADD DUP3 DUP2 ADD PUSH32 0x547261636B20322043726561746F72207265636569766573203A200000000000 SWAP1 MSTORE DUP2 MLOAD SWAP2 DUP3 DUP5 PUSH1 0x3B DUP5 ADD SWAP3 ADD SWAP2 PUSH2 0x375A SWAP3 PUSH2 0x147B JUMP JUMPDEST ADD ADD PUSH1 0x5 PUSH1 0xF9 SHL PUSH1 0x1B DUP3 ADD MSTORE PUSH1 0x1C DUP2 ADD PUSH32 0x547261636B2043726561746F72203227732042616C616E63652061667465723A SWAP1 MSTORE PUSH1 0x3C DUP2 ADD PUSH1 0x1 PUSH1 0xFD SHL SWAP1 MSTORE DUP2 MLOAD SWAP2 DUP3 DUP8 PUSH1 0x3D DUP5 ADD SWAP3 ADD SWAP2 PUSH2 0x37AD SWAP3 PUSH2 0x147B JUMP JUMPDEST ADD PUSH1 0x1B ADD PUSH1 0x5 PUSH1 0xF9 SHL PUSH1 0x22 DUP3 ADD MSTORE SUB PUSH1 0x22 ADD PUSH1 0x1E NOT DUP2 ADD DUP9 MSTORE PUSH1 0x1 ADD PUSH2 0x37D3 SWAP1 DUP9 PUSH2 0x12A9 JUMP JUMPDEST BALANCE SWAP1 PUSH2 0x37DE SWAP2 PUSH2 0x183D JUMP JUMPDEST PUSH8 0xDE0B6B3A7640000 SWAP1 DIV SWAP5 PUSH2 0x37F3 DUP7 PUSH2 0x4C60 JUMP JUMPDEST PUSH1 0x40 MLOAD SWAP4 DUP5 SWAP2 DUP2 DUP1 DUP5 ADD DUP6 DUP2 SWAP7 MLOAD SWAP3 DUP4 SWAP2 ADD SWAP2 PUSH2 0x380F SWAP3 PUSH2 0x147B JUMP JUMPDEST DUP4 ADD DUP3 DUP2 ADD PUSH32 0x446966666572656E636520696E20547261636B2043726561746F722032277320 SWAP1 MSTORE PUSH1 0x40 DUP2 ADD PUSH9 0x3130B630B731B29D1 PUSH1 0xBD SHL SWAP1 MSTORE DUP2 MLOAD SWAP2 DUP3 DUP5 PUSH1 0x49 DUP5 ADD SWAP3 ADD SWAP2 PUSH2 0x385F SWAP3 PUSH2 0x147B JUMP JUMPDEST ADD ADD PUSH1 0x5 PUSH1 0xF9 SHL PUSH1 0x29 DUP3 ADD MSTORE SUB PUSH1 0x29 ADD PUSH1 0x1E NOT DUP2 ADD DUP5 MSTORE PUSH1 0x1 ADD PUSH2 0x3883 SWAP1 DUP5 PUSH2 0x12A9 JUMP JUMPDEST DUP3 SWAP6 ISZERO PUSH2 0x4002 JUMPI JUMPDEST POP PUSH2 0x38B8 SWAP2 POP PUSH2 0x38AB PUSH1 0x1 PUSH1 0x14 PUSH1 0x5 DUP11 SWAP9 SWAP7 SWAP8 SWAP9 ADD SLOAD SWAP6 PUSH2 0x225D DUP8 PUSH2 0x4C60 JUMP JUMPDEST SWAP2 PUSH1 0x9 DUP8 ADD SLOAD LT ISZERO PUSH2 0x194D JUMP JUMPDEST PUSH1 0x0 SWAP1 JUMPDEST PUSH1 0x5 DUP7 ADD SLOAD DUP3 LT ISZERO PUSH2 0x3BC8 JUMPI SWAP1 PUSH2 0x393A PUSH1 0x1 PUSH1 0x1D DUP9 SWAP7 SWAP6 SWAP5 PUSH2 0x38E4 PUSH2 0x2333 DUP7 PUSH1 0x9 DUP12 ADD PUSH2 0x175A JUMP JUMPDEST PUSH1 0x14 PUSH2 0x391D PUSH8 0xDE0B6B3A7640000 PUSH2 0x3908 DUP9 PUSH1 0x9 PUSH2 0x3901 DUP3 PUSH2 0x4C60 JUMP JUMPDEST SWAP14 ADD PUSH2 0x175A JUMP JUMPDEST DUP8 DUP1 PUSH1 0xA0 SHL SUB SWAP2 SLOAD SWAP1 PUSH1 0x3 SHL SHR AND BALANCE DIV PUSH2 0x4C60 JUMP JUMPDEST DUP14 PUSH2 0x2408 DUP2 PUSH1 0x40 MLOAD SWAP13 DUP7 PUSH2 0x239F DUP16 SWAP9 MLOAD DUP1 SWAP3 DUP6 DUP1 DUP13 ADD SWAP2 ADD PUSH2 0x147B JUMP JUMPDEST DUP6 PUSH1 0x0 DUP1 DUP1 DUP1 DUP10 PUSH2 0x3953 DUP8 PUSH1 0x9 PUSH2 0x243C DUP3 DUP3 DUP12 ADD PUSH2 0x175A JUMP JUMPDEST SWAP1 SLOAD PUSH1 0x3 SWAP2 SWAP1 SWAP2 SHL SHR PUSH1 0x1 PUSH1 0x1 PUSH1 0xA0 SHL SUB AND DUP3 DUP3 ISZERO PUSH2 0x3BBF JUMPI JUMPDEST CALL ISZERO PUSH2 0x2759 JUMPI DUP9 DUP1 SWAP2 PUSH2 0x397F DUP5 PUSH2 0x4C60 JUMP JUMPDEST SWAP7 PUSH2 0x3993 PUSH8 0xDE0B6B3A7640000 DUP11 DIV PUSH2 0x4C60 JUMP JUMPDEST DUP11 DUP5 DUP8 PUSH2 0x399F DUP2 PUSH2 0x4C60 JUMP JUMPDEST SWAP3 PUSH1 0x9 ADD SWAP1 PUSH2 0x39AD SWAP2 PUSH2 0x175A JUMP JUMPDEST SWAP1 SLOAD PUSH2 0x39D6 SWAP2 PUSH8 0xDE0B6B3A7640000 PUSH1 0x3 SWAP2 SWAP1 SWAP2 SHL SWAP2 SWAP1 SWAP2 SHR PUSH1 0x1 PUSH1 0x1 PUSH1 0xA0 SHL SUB AND BALANCE DIV PUSH2 0x4C60 JUMP JUMPDEST SWAP3 DUP2 PUSH1 0x40 MLOAD SWAP13 DUP7 DUP15 SWAP8 MLOAD SWAP1 DUP2 DUP5 DUP1 DUP12 ADD SWAP3 ADD SWAP2 PUSH2 0x39F2 SWAP3 PUSH2 0x147B JUMP JUMPDEST DUP8 ADD DUP3 DUP2 ADD PUSH1 0x0 DUP1 MLOAD PUSH1 0x20 PUSH2 0x4EF4 DUP4 CODECOPY DUP2 MLOAD SWAP2 MSTORE SWAP1 MSTORE DUP2 MLOAD SWAP2 DUP3 DUP5 PUSH1 0x40 DUP5 ADD SWAP3 ADD SWAP2 PUSH2 0x3A1D SWAP3 PUSH2 0x147B JUMP JUMPDEST ADD ADD DUP3 DUP2 ADD PUSH3 0x101D1 PUSH1 0xED SHL SWAP1 MSTORE DUP2 MLOAD SWAP2 DUP3 DUP5 PUSH1 0x23 DUP5 ADD SWAP3 ADD SWAP2 PUSH2 0x3A40 SWAP3 PUSH2 0x147B JUMP JUMPDEST ADD ADD PUSH1 0x5 PUSH1 0xF9 SHL PUSH1 0x3 DUP3 ADD MSTORE PUSH1 0x4 DUP2 ADD PUSH20 0x2BB4B73732B9102B37BA32B910273AB6B132B91D PUSH1 0x61 SHL SWAP1 MSTORE DUP2 MLOAD SWAP2 DUP3 DUP8 PUSH1 0x18 DUP5 ADD SWAP3 ADD SWAP2 PUSH2 0x3A7F SWAP3 PUSH2 0x147B JUMP JUMPDEST ADD PUSH1 0x3 ADD PUSH1 0x15 DUP2 ADD PUSH1 0x0 DUP1 MLOAD PUSH1 0x20 PUSH2 0x4E54 DUP4 CODECOPY DUP2 MLOAD SWAP2 MSTORE SWAP1 MSTORE DUP2 MLOAD SWAP2 DUP3 DUP7 PUSH1 0x31 DUP5 ADD SWAP3 ADD SWAP2 PUSH2 0x3AAD SWAP3 PUSH2 0x147B JUMP JUMPDEST ADD PUSH1 0x15 ADD PUSH1 0x5 PUSH1 0xF9 SHL PUSH1 0x1C DUP3 ADD MSTORE SUB PUSH1 0x1C ADD PUSH1 0x1E NOT DUP2 ADD DUP9 MSTORE PUSH1 0x1 ADD PUSH2 0x3AD3 SWAP1 DUP9 PUSH2 0x12A9 JUMP JUMPDEST PUSH2 0x3AE0 DUP5 PUSH1 0x9 DUP12 ADD PUSH2 0x175A JUMP JUMPDEST SWAP1 SLOAD PUSH2 0x3AFA SWAP3 SWAP2 PUSH1 0x3 SHL SHR PUSH1 0x1 PUSH1 0x1 PUSH1 0xA0 SHL SUB AND BALANCE PUSH2 0x183D JUMP JUMPDEST PUSH8 0xDE0B6B3A7640000 SWAP1 DIV SWAP6 PUSH2 0x3B0F DUP8 PUSH2 0x4C60 JUMP JUMPDEST PUSH1 0x40 MLOAD SWAP4 DUP5 SWAP2 DUP2 DUP1 DUP5 ADD DUP6 DUP2 SWAP7 MLOAD SWAP3 DUP4 SWAP2 ADD SWAP2 PUSH2 0x3B2B SWAP3 PUSH2 0x147B JUMP JUMPDEST DUP4 ADD DUP3 DUP2 ADD PUSH1 0x0 DUP1 MLOAD PUSH1 0x20 PUSH2 0x4F14 DUP4 CODECOPY DUP2 MLOAD SWAP2 MSTORE SWAP1 MSTORE DUP2 MLOAD SWAP2 DUP3 DUP5 PUSH1 0x3F DUP5 ADD SWAP3 ADD SWAP2 PUSH2 0x3B56 SWAP3 PUSH2 0x147B JUMP JUMPDEST ADD ADD PUSH1 0x5 PUSH1 0xF9 SHL PUSH1 0x1F DUP3 ADD MSTORE SUB PUSH1 0x1F ADD PUSH1 0x1E NOT DUP2 ADD DUP5 MSTORE PUSH1 0x1 ADD PUSH2 0x3B7A SWAP1 DUP5 PUSH2 0x12A9 JUMP JUMPDEST DUP3 SWAP7 ISZERO PUSH2 0x3B90 JUMPI JUMPDEST POP POP POP PUSH1 0x1 ADD SWAP1 SWAP2 SWAP3 PUSH2 0x38BC JUMP JUMPDEST PUSH1 0x1 SWAP4 SWAP7 POP SWAP2 PUSH2 0x53B PUSH2 0x26EB PUSH2 0x3BB6 SWAP4 PUSH2 0x26AF SWAP6 PUSH1 0x40 MLOAD SWAP7 DUP8 SWAP6 MLOAD DUP1 SWAP3 DUP5 DUP9 ADD SWAP1 PUSH2 0x147B JUMP JUMPDEST SWAP4 SWAP1 DUP9 CODESIZE PUSH2 0x3B82 JUMP JUMPDEST POP PUSH2 0x8FC PUSH2 0x396D JUMP JUMPDEST SWAP1 POP SWAP5 SWAP1 SWAP2 SWAP5 PUSH2 0x3BE2 PUSH1 0xA DUP7 ADD SLOAD PUSH1 0x6 DUP8 ADD SLOAD GT ISZERO PUSH2 0x194D JUMP JUMPDEST PUSH1 0x0 SWAP1 JUMPDEST PUSH1 0x6 DUP7 ADD SLOAD DUP3 LT ISZERO PUSH2 0x3EB9 JUMPI SWAP1 PUSH2 0x3C2B PUSH1 0x1 PUSH1 0x1D DUP9 SWAP7 SWAP6 SWAP5 PUSH2 0x3C0E PUSH2 0x2333 DUP7 PUSH1 0xA DUP12 ADD PUSH2 0x175A JUMP JUMPDEST PUSH1 0x14 PUSH2 0x391D PUSH8 0xDE0B6B3A7640000 PUSH2 0x3908 DUP9 PUSH1 0xA PUSH2 0x3901 DUP3 PUSH2 0x4C60 JUMP JUMPDEST DUP6 PUSH1 0x0 DUP1 DUP1 DUP1 DUP10 PUSH2 0x3C44 DUP8 PUSH1 0xA PUSH2 0x243C DUP3 DUP3 DUP12 ADD PUSH2 0x175A JUMP JUMPDEST SWAP1 SLOAD PUSH1 0x3 SWAP2 SWAP1 SWAP2 SHL SHR PUSH1 0x1 PUSH1 0x1 PUSH1 0xA0 SHL SUB AND DUP3 DUP3 ISZERO PUSH2 0x3EB0 JUMPI JUMPDEST CALL ISZERO PUSH2 0x2759 JUMPI DUP9 DUP1 SWAP2 PUSH2 0x3C70 DUP5 PUSH2 0x4C60 JUMP JUMPDEST SWAP7 PUSH2 0x3C84 PUSH8 0xDE0B6B3A7640000 DUP11 DIV PUSH2 0x4C60 JUMP JUMPDEST DUP11 DUP5 DUP8 PUSH2 0x3C90 DUP2 PUSH2 0x4C60 JUMP JUMPDEST SWAP3 PUSH1 0xA ADD SWAP1 PUSH2 0x3C9E SWAP2 PUSH2 0x175A JUMP JUMPDEST SWAP1 SLOAD PUSH2 0x3CC7 SWAP2 PUSH8 0xDE0B6B3A7640000 PUSH1 0x3 SWAP2 SWAP1 SWAP2 SHL SWAP2 SWAP1 SWAP2 SHR PUSH1 0x1 PUSH1 0x1 PUSH1 0xA0 SHL SUB AND BALANCE DIV PUSH2 0x4C60 JUMP JUMPDEST SWAP3 DUP2 PUSH1 0x40 MLOAD SWAP13 DUP7 DUP15 SWAP8 MLOAD SWAP1 DUP2 DUP5 DUP1 DUP12 ADD SWAP3 ADD SWAP2 PUSH2 0x3CE3 SWAP3 PUSH2 0x147B JUMP JUMPDEST DUP8 ADD DUP3 DUP2 ADD PUSH1 0x0 DUP1 MLOAD PUSH1 0x20 PUSH2 0x4EF4 DUP4 CODECOPY DUP2 MLOAD SWAP2 MSTORE SWAP1 MSTORE DUP2 MLOAD SWAP2 DUP3 DUP5 PUSH1 0x40 DUP5 ADD SWAP3 ADD SWAP2 PUSH2 0x3D0E SWAP3 PUSH2 0x147B JUMP JUMPDEST ADD ADD DUP3 DUP2 ADD PUSH3 0x101D1 PUSH1 0xED SHL SWAP1 MSTORE DUP2 MLOAD SWAP2 DUP3 DUP5 PUSH1 0x23 DUP5 ADD SWAP3 ADD SWAP2 PUSH2 0x3D31 SWAP3 PUSH2 0x147B JUMP JUMPDEST ADD ADD PUSH1 0x5 PUSH1 0xF9 SHL PUSH1 0x3 DUP3 ADD MSTORE PUSH1 0x4 DUP2 ADD PUSH20 0x2BB4B73732B9102B37BA32B910273AB6B132B91D PUSH1 0x61 SHL SWAP1 MSTORE DUP2 MLOAD SWAP2 DUP3 DUP8 PUSH1 0x18 DUP5 ADD SWAP3 ADD SWAP2 PUSH2 0x3D70 SWAP3 PUSH2 0x147B JUMP JUMPDEST ADD PUSH1 0x3 ADD PUSH1 0x15 DUP2 ADD PUSH1 0x0 DUP1 MLOAD PUSH1 0x20 PUSH2 0x4E54 DUP4 CODECOPY DUP2 MLOAD SWAP2 MSTORE SWAP1 MSTORE DUP2 MLOAD SWAP2 DUP3 DUP7 PUSH1 0x31 DUP5 ADD SWAP3 ADD SWAP2 PUSH2 0x3D9E SWAP3 PUSH2 0x147B JUMP JUMPDEST ADD PUSH1 0x15 ADD PUSH1 0x5 PUSH1 0xF9 SHL PUSH1 0x1C DUP3 ADD MSTORE SUB PUSH1 0x1C ADD PUSH1 0x1E NOT DUP2 ADD DUP9 MSTORE PUSH1 0x1 ADD PUSH2 0x3DC4 SWAP1 DUP9 PUSH2 0x12A9 JUMP JUMPDEST PUSH2 0x3DD1 DUP5 PUSH1 0xA DUP12 ADD PUSH2 0x175A JUMP JUMPDEST SWAP1 SLOAD PUSH2 0x3DEB SWAP3 SWAP2 PUSH1 0x3 SHL SHR PUSH1 0x1 PUSH1 0x1 PUSH1 0xA0 SHL SUB AND BALANCE PUSH2 0x183D JUMP JUMPDEST PUSH8 0xDE0B6B3A7640000 SWAP1 DIV SWAP6 PUSH2 0x3E00 DUP8 PUSH2 0x4C60 JUMP JUMPDEST PUSH1 0x40 MLOAD SWAP4 DUP5 SWAP2 DUP2 DUP1 DUP5 ADD DUP6 DUP2 SWAP7 MLOAD SWAP3 DUP4 SWAP2 ADD SWAP2 PUSH2 0x3E1C SWAP3 PUSH2 0x147B JUMP JUMPDEST DUP4 ADD DUP3 DUP2 ADD PUSH1 0x0 DUP1 MLOAD PUSH1 0x20 PUSH2 0x4F14 DUP4 CODECOPY DUP2 MLOAD SWAP2 MSTORE SWAP1 MSTORE DUP2 MLOAD SWAP2 DUP3 DUP5 PUSH1 0x3F DUP5 ADD SWAP3 ADD SWAP2 PUSH2 0x3E47 SWAP3 PUSH2 0x147B JUMP JUMPDEST ADD ADD PUSH1 0x5 PUSH1 0xF9 SHL PUSH1 0x1F DUP3 ADD MSTORE SUB PUSH1 0x1F ADD PUSH1 0x1E NOT DUP2 ADD DUP5 MSTORE PUSH1 0x1 ADD PUSH2 0x3E6B SWAP1 DUP5 PUSH2 0x12A9 JUMP JUMPDEST DUP3 SWAP7 ISZERO PUSH2 0x3E81 JUMPI JUMPDEST POP POP POP PUSH1 0x1 ADD SWAP1 SWAP2 SWAP3 PUSH2 0x3BE6 JUMP JUMPDEST PUSH1 0x1 SWAP4 SWAP7 POP SWAP2 PUSH2 0x53B PUSH2 0x26EB PUSH2 0x3EA7 SWAP4 PUSH2 0x26AF SWAP6 PUSH1 0x40 MLOAD SWAP7 DUP8 SWAP6 MLOAD DUP1 SWAP3 DUP5 DUP9 ADD SWAP1 PUSH2 0x147B JUMP JUMPDEST SWAP4 SWAP1 DUP9 CODESIZE PUSH2 0x3E73 JUMP JUMPDEST POP PUSH2 0x8FC PUSH2 0x3C5E JUMP JUMPDEST SWAP2 SWAP1 POP PUSH1 0x1 SWAP4 POP PUSH2 0x3FA2 SWAP7 PUSH1 0x21 SWAP4 SWAP7 PUSH1 0x0 DUP1 MLOAD PUSH1 0x20 PUSH2 0x4E94 DUP4 CODECOPY DUP2 MLOAD SWAP2 MSTORE PUSH1 0xA PUSH2 0x3FFC SWAP9 PUSH1 0xFF NOT PUSH1 0xD DUP3 ADD SLOAD AND PUSH1 0xD DUP3 ADD SSTORE PUSH2 0x3F5B DUP10 DUP1 PUSH1 0xA0 SHL SUB PUSH1 0x3 DUP4 ADD SLOAD AND DUP6 PUSH1 0x0 DUP1 MLOAD PUSH1 0x20 PUSH2 0x4ED4 DUP4 CODECOPY DUP2 MLOAD SWAP2 MSTORE DUP9 PUSH1 0x40 MLOAD DUP5 DUP2 MSTORE LOG2 DUP6 PUSH1 0x0 DUP1 MLOAD PUSH1 0x20 PUSH2 0x4ED4 DUP4 CODECOPY DUP2 MLOAD SWAP2 MSTORE DUP9 DUP14 DUP1 PUSH1 0xA0 SHL SUB PUSH1 0x4 DUP8 ADD SLOAD AND PUSH1 0x40 MLOAD SWAP1 DUP2 MSTORE LOG2 DUP6 DUP6 PUSH1 0x40 MLOAD DUP1 PUSH2 0x3F4A PUSH1 0x9 DUP9 ADD DUP7 DUP4 PUSH2 0x1885 JUMP JUMPDEST SUB SWAP1 LOG2 PUSH1 0x40 MLOAD SWAP4 DUP5 SWAP4 ADD SWAP1 DUP4 PUSH2 0x18D1 JUMP JUMPDEST SUB SWAP1 LOG2 PUSH2 0x3FE2 DUP2 PUSH2 0x3F84 PUSH8 0xDE0B6B3A7640000 PUSH2 0x1E27 PUSH2 0x3F7C DUP3 SELFBALANCE DIV PUSH2 0x4C60 JUMP JUMPDEST SWAP7 SELFBALANCE SWAP1 PUSH2 0x183D JUMP JUMPDEST SWAP4 PUSH2 0x3FB7 PUSH2 0x3FAA DUP4 DUP1 PUSH1 0x40 MLOAD SWAP15 DUP16 DUP12 DUP4 DUP3 SWAP14 MLOAD SWAP5 DUP6 SWAP4 ADD SWAP2 ADD PUSH2 0x147B JUMP JUMPDEST DUP10 ADD ADD PUSH2 0x1918 JUMP JUMPDEST SWAP2 DUP3 DUP2 MLOAD SWAP5 DUP6 SWAP3 ADD PUSH2 0x147B JUMP JUMPDEST ADD SWAP2 PUSH1 0x5 PUSH1 0xF9 SHL DUP4 MSTORE PUSH1 0x0 DUP1 MLOAD PUSH1 0x20 PUSH2 0x4EB4 DUP4 CODECOPY DUP2 MLOAD SWAP2 MSTORE DUP8 DUP5 ADD MSTORE DUP4 MLOAD SWAP4 DUP5 SWAP2 DUP8 DUP6 ADD SWAP2 ADD PUSH2 0x147B JUMP JUMPDEST ADD PUSH1 0x5 PUSH1 0xF9 SHL DUP4 DUP3 ADD MSTORE SUB ADD PUSH1 0x1E NOT DUP2 ADD DUP6 MSTORE ADD DUP4 PUSH2 0x12A9 JUMP JUMPDEST PUSH1 0x0 SWAP2 SWAP1 JUMP JUMPDEST PUSH2 0x26AF SWAP4 SWAP6 POP PUSH2 0x26EB PUSH2 0x4026 SWAP4 SWAP3 PUSH2 0x53B SWAP3 PUSH1 0x40 MLOAD SWAP7 DUP8 SWAP6 MLOAD DUP1 SWAP3 DUP5 DUP9 ADD SWAP1 PUSH2 0x147B JUMP JUMPDEST SWAP2 CODESIZE DUP8 DUP2 PUSH2 0x388B JUMP JUMPDEST POP PUSH2 0x8FC PUSH2 0x36BE JUMP JUMPDEST PUSH2 0x26AF SWAP4 SWAP7 POP PUSH2 0x26EB PUSH2 0x405C SWAP4 SWAP3 PUSH2 0x53B SWAP3 PUSH1 0x40 MLOAD SWAP7 DUP8 SWAP6 MLOAD DUP1 SWAP3 DUP5 DUP9 ADD SWAP1 PUSH2 0x147B JUMP JUMPDEST SWAP3 CODESIZE DUP9 DUP2 PUSH2 0x35E2 JUMP JUMPDEST POP PUSH2 0x8FC PUSH2 0x3453 JUMP JUMPDEST PUSH1 0xE DUP10 ADD DUP1 SLOAD SWAP6 SWAP11 SWAP4 SWAP10 SWAP8 SWAP9 POP SWAP3 SWAP7 PUSH1 0x1 PUSH1 0x1 PUSH1 0xA0 SHL SUB SWAP1 SWAP6 AND SWAP5 SWAP4 POP SWAP1 PUSH2 0x4095 DUP6 PUSH2 0x4D21 JUMP JUMPDEST DUP9 PUSH2 0x40AA PUSH8 0xDE0B6B3A7640000 DUP9 BALANCE DIV PUSH2 0x4C60 JUMP JUMPDEST PUSH1 0x40 MLOAD SWAP11 DUP12 SWAP4 DUP2 DUP1 DUP7 ADD DUP9 DUP2 SWAP10 MLOAD SWAP3 DUP4 SWAP2 ADD SWAP2 PUSH2 0x40C6 SWAP3 PUSH2 0x147B JUMP JUMPDEST PUSH20 0x2A3432B9329030B932903737903B37BA32B93985 PUSH1 0x61 SHL SWAP1 DUP7 ADD DUP4 DUP2 ADD SWAP2 SWAP1 SWAP2 MSTORE PUSH32 0x53656E64696E6720353025206D6F6E6579206F66205374617274696E67204261 PUSH1 0x34 DUP3 ADD MSTORE PUSH32 0x74746C652046656573204261636B20746F2074686520706572736F6E2077616C PUSH1 0x54 DUP3 ADD MSTORE PUSH32 0x6C65742077686F20737461727465642074686520626174746C650A0000000000 PUSH1 0x74 DUP3 ADD MSTORE PUSH32 0x426174746C652043726561746F7220616464726573733A000000000000000000 PUSH1 0x8F DUP3 ADD MSTORE DUP2 MLOAD SWAP2 PUSH2 0x4195 SWAP1 DUP4 SWAP1 PUSH1 0xA6 DUP5 ADD SWAP1 DUP7 ADD PUSH2 0x147B JUMP JUMPDEST ADD ADD SWAP1 PUSH1 0x5 PUSH1 0xF9 SHL PUSH1 0x86 DUP4 ADD MSTORE PUSH1 0x87 DUP3 ADD PUSH15 0x24B73A34B0B6102130B630B731B29D PUSH1 0x89 SHL SWAP1 MSTORE DUP1 MLOAD DUP1 SWAP4 PUSH1 0x96 DUP5 ADD SWAP3 ADD SWAP2 PUSH2 0x41CF SWAP3 PUSH2 0x147B JUMP JUMPDEST ADD PUSH1 0x86 ADD PUSH1 0x5 PUSH1 0xF9 SHL PUSH1 0x10 DUP3 ADD MSTORE SUB PUSH1 0x10 ADD PUSH1 0x1E NOT DUP2 ADD DUP10 MSTORE PUSH1 0x1 ADD PUSH2 0x41F5 SWAP1 DUP10 PUSH2 0x12A9 JUMP JUMPDEST PUSH1 0x5 DUP2 MUL SWAP1 DUP1 DUP3 DIV PUSH1 0x5 EQ SWAP1 ISZERO OR ISZERO PUSH2 0x5FA JUMPI PUSH1 0x0 DUP1 DUP1 PUSH1 0xA DUP2 SWAP5 DIV DUP9 BALANCE SWAP9 DUP3 DUP3 ISZERO PUSH2 0x4B39 JUMPI JUMPDEST CALL ISZERO PUSH2 0x2759 JUMPI SWAP1 SLOAD DUP10 SWAP4 DUP5 SWAP3 SWAP2 PUSH1 0x1 PUSH1 0x1 PUSH1 0xA0 SHL SUB AND PUSH2 0x4246 PUSH8 0xDE0B6B3A7640000 DUP3 BALANCE DIV PUSH2 0x4C60 JUMP JUMPDEST SWAP9 DUP5 PUSH1 0x40 MLOAD SWAP11 DUP12 SWAP3 DUP3 DUP5 ADD SWAP7 DUP8 SWAP2 MLOAD DUP1 SWAP3 PUSH2 0x4260 SWAP3 PUSH2 0x147B JUMP JUMPDEST DUP4 ADD DUP3 DUP2 ADD PUSH32 0x41667465722047657474696E67205061796D656E742042616C616E63653A0000 SWAP1 MSTORE DUP2 MLOAD SWAP2 DUP3 DUP5 PUSH1 0x3E DUP5 ADD SWAP3 ADD SWAP2 PUSH2 0x429D SWAP3 PUSH2 0x147B JUMP JUMPDEST ADD ADD PUSH1 0x5 PUSH1 0xF9 SHL PUSH1 0x1E DUP3 ADD MSTORE SUB PUSH1 0x1E ADD PUSH1 0x1E NOT DUP2 ADD DUP11 MSTORE PUSH1 0x1 ADD PUSH2 0x42C1 SWAP1 DUP11 PUSH2 0x12A9 JUMP JUMPDEST BALANCE SWAP1 PUSH2 0x42CC SWAP2 PUSH2 0x183D JUMP JUMPDEST PUSH8 0xDE0B6B3A7640000 SWAP1 DIV SWAP7 DUP3 PUSH2 0x42E2 DUP10 PUSH2 0x4C60 JUMP JUMPDEST PUSH1 0x40 MLOAD SWAP5 DUP6 SWAP4 DUP2 DUP6 ADD SWAP6 DUP7 SWAP2 MLOAD DUP1 SWAP3 PUSH2 0x42FA SWAP3 PUSH2 0x147B JUMP JUMPDEST DUP5 ADD ADD PUSH2 0x4306 SWAP1 PUSH2 0x184A JUMP JUMPDEST DUP2 DUP2 SWAP3 MLOAD SWAP4 DUP5 SWAP2 ADD SWAP2 PUSH2 0x4318 SWAP3 PUSH2 0x147B JUMP JUMPDEST ADD PUSH1 0x5 PUSH1 0xF9 SHL DUP2 MSTORE SUB PUSH1 0x1E NOT DUP2 ADD DUP4 MSTORE PUSH1 0x1 ADD PUSH2 0x4335 SWAP1 DUP4 PUSH2 0x12A9 JUMP JUMPDEST DUP2 SWAP7 ISZERO PUSH2 0x4B0D JUMPI JUMPDEST POP POP PUSH1 0x3 DUP2 ADD DUP1 SLOAD PUSH1 0x1 PUSH1 0x1 PUSH1 0xA0 SHL SUB AND PUSH2 0x4357 DUP2 PUSH2 0x4D21 JUMP JUMPDEST DUP5 PUSH2 0x436C PUSH8 0xDE0B6B3A7640000 DUP5 BALANCE DIV PUSH2 0x4C60 JUMP JUMPDEST PUSH1 0x40 MLOAD SWAP7 DUP8 SWAP4 DUP2 DUP1 DUP7 ADD DUP14 DUP2 SWAP15 MLOAD SWAP3 DUP4 SWAP2 ADD SWAP2 PUSH2 0x4388 SWAP3 PUSH2 0x147B JUMP JUMPDEST PUSH32 0x53656E64696E6720323025206D6F6E6579206F66205374617274696E67204261 SWAP1 DUP7 ADD DUP4 DUP2 ADD SWAP2 SWAP1 SWAP2 MSTORE PUSH32 0x74746C65204665657320746F2043726561746F72206F6620547261636B20313A PUSH1 0x40 DUP3 ADD MSTORE PUSH1 0x5 PUSH1 0xF9 SHL DUP15 DUP3 ADD MSTORE PUSH32 0x43726561746F72206F6620547261636B203120616464726573733A0000000000 PUSH1 0x61 DUP3 ADD MSTORE DUP2 MLOAD SWAP2 PUSH2 0x441D SWAP1 DUP4 SWAP1 PUSH1 0x7C DUP5 ADD SWAP1 DUP7 ADD PUSH2 0x147B JUMP JUMPDEST ADD ADD SWAP1 PUSH1 0x5 PUSH1 0xF9 SHL PUSH1 0x5C DUP4 ADD MSTORE PUSH1 0x5D DUP3 ADD PUSH15 0x24B73A34B0B6102130B630B731B29D PUSH1 0x89 SHL SWAP1 MSTORE DUP1 MLOAD DUP1 SWAP4 PUSH1 0x6C DUP5 ADD SWAP3 ADD SWAP2 PUSH2 0x4457 SWAP3 PUSH2 0x147B JUMP JUMPDEST ADD PUSH1 0x5C ADD PUSH1 0x5 PUSH1 0xF9 SHL PUSH1 0x10 DUP3 ADD MSTORE SUB PUSH1 0x10 ADD PUSH1 0x1E NOT DUP2 ADD DUP6 MSTORE PUSH1 0x1 ADD PUSH2 0x447D SWAP1 DUP6 PUSH2 0x12A9 JUMP JUMPDEST PUSH1 0xF DUP4 ADD SLOAD DUP1 PUSH1 0x1 SHL SWAP1 DUP1 DUP3 DIV PUSH1 0x2 EQ SWAP1 ISZERO OR ISZERO PUSH2 0x5FA JUMPI PUSH1 0x0 DUP1 DUP1 PUSH1 0xA DUP2 SWAP5 DIV DUP6 BALANCE SWAP6 DUP3 DUP3 ISZERO PUSH2 0x4B04 JUMPI JUMPDEST CALL ISZERO PUSH2 0x2759 JUMPI DUP2 SLOAD DUP11 SWAP2 SWAP1 PUSH1 0x1 PUSH1 0x1 PUSH1 0xA0 SHL SUB AND PUSH2 0x44D1 PUSH8 0xDE0B6B3A7640000 DUP3 BALANCE DIV PUSH2 0x4C60 JUMP JUMPDEST SWAP6 DUP4 PUSH1 0x40 MLOAD SWAP8 DUP9 SWAP3 DUP3 DUP5 ADD SWAP13 DUP14 SWAP2 MLOAD DUP1 SWAP3 PUSH2 0x44EB SWAP3 PUSH2 0x147B JUMP JUMPDEST DUP4 ADD DUP3 DUP2 ADD PUSH32 0x41667465722047657474696E67205061796D656E742042616C616E63653A0000 SWAP1 MSTORE DUP2 MLOAD SWAP2 DUP3 DUP5 PUSH1 0x3E DUP5 ADD SWAP3 ADD SWAP2 PUSH2 0x4528 SWAP3 PUSH2 0x147B JUMP JUMPDEST ADD ADD PUSH1 0x5 PUSH1 0xF9 SHL PUSH1 0x1E DUP3 ADD MSTORE SUB PUSH1 0x1E ADD PUSH1 0x1E NOT DUP2 ADD DUP8 MSTORE PUSH1 0x1 ADD PUSH2 0x454C SWAP1 DUP8 PUSH2 0x12A9 JUMP JUMPDEST BALANCE SWAP1 PUSH2 0x4557 SWAP2 PUSH2 0x183D JUMP JUMPDEST PUSH8 0xDE0B6B3A7640000 SWAP1 DIV SWAP4 DUP2 PUSH2 0x456D DUP7 PUSH2 0x4C60 JUMP JUMPDEST PUSH1 0x40 MLOAD SWAP4 DUP5 SWAP4 DUP2 DUP6 ADD SWAP12 DUP13 SWAP2 MLOAD DUP1 SWAP3 PUSH2 0x4585 SWAP3 PUSH2 0x147B JUMP JUMPDEST DUP5 ADD ADD PUSH2 0x4591 SWAP1 PUSH2 0x184A JUMP JUMPDEST DUP2 DUP2 SWAP3 MLOAD SWAP4 DUP5 SWAP2 ADD SWAP2 PUSH2 0x45A3 SWAP3 PUSH2 0x147B JUMP JUMPDEST ADD PUSH1 0x5 PUSH1 0xF9 SHL DUP2 MSTORE SUB PUSH1 0x1E NOT DUP2 ADD DUP3 MSTORE PUSH1 0x1 ADD PUSH2 0x45C0 SWAP1 DUP3 PUSH2 0x12A9 JUMP JUMPDEST DUP10 DUP2 SWAP5 ISZERO SWAP8 PUSH1 0x5C SWAP9 PUSH2 0x4AD7 JUMPI JUMPDEST POP SWAP1 POP PUSH1 0x4 DUP4 ADD SWAP4 PUSH2 0x46E9 PUSH1 0x1 PUSH1 0x10 DUP12 DUP3 DUP1 PUSH1 0xA0 SHL SUB DUP10 SLOAD AND SWAP12 DUP13 SWAP7 PUSH2 0x4606 PUSH8 0xDE0B6B3A7640000 PUSH2 0x45FE DUP11 PUSH2 0x4D21 JUMP JUMPDEST SWAP10 BALANCE DIV PUSH2 0x4C60 JUMP JUMPDEST SWAP1 PUSH2 0x1DE0 DUP2 PUSH1 0x40 MLOAD SWAP11 DUP12 SWAP7 DUP3 PUSH2 0x4625 DUP2 DUP11 ADD SWAP14 DUP15 DUP2 MLOAD SWAP4 DUP5 SWAP3 ADD PUSH2 0x147B JUMP JUMPDEST DUP9 ADD SWAP1 PUSH32 0x53656E64696E6720323025206D6F6E6579206F66205374617274696E67204261 DUP5 DUP4 ADD MSTORE PUSH32 0x74746C65204665657320746F2043726561746F72206F6620547261636B20323A PUSH1 0x40 DUP4 ADD MSTORE PUSH1 0x5 PUSH1 0xF9 SHL SWAP1 DUP3 ADD MSTORE PUSH32 0x43726561746F72206F6620547261636B203220616464726573733A0000000000 PUSH1 0x61 DUP3 ADD MSTORE PUSH2 0x46B5 DUP3 MLOAD DUP1 SWAP4 DUP6 PUSH1 0x7C DUP6 ADD SWAP2 ADD PUSH2 0x147B JUMP JUMPDEST ADD ADD SWAP2 PUSH1 0x5 PUSH1 0xF9 SHL DUP6 DUP5 ADD MSTORE PUSH15 0x24B73A34B0B6102130B630B731B29D PUSH1 0x89 SHL PUSH1 0x5D DUP5 ADD MSTORE DUP4 MLOAD SWAP4 DUP5 SWAP2 PUSH1 0x6C DUP6 ADD SWAP2 ADD PUSH2 0x147B JUMP JUMPDEST PUSH1 0xF DUP5 ADD SLOAD DUP1 PUSH1 0x1 SHL SWAP1 DUP1 DUP3 DIV PUSH1 0x2 EQ SWAP1 ISZERO OR ISZERO PUSH2 0x5FA JUMPI PUSH1 0x0 DUP1 DUP1 PUSH1 0xA DUP2 SWAP5 DIV DUP13 BALANCE SWAP13 DUP3 DUP3 ISZERO PUSH2 0x4ACE JUMPI JUMPDEST CALL ISZERO PUSH2 0x2759 JUMPI DUP5 SLOAD DUP12 SWAP9 DUP10 SWAP4 SWAP1 SWAP2 PUSH1 0x1 PUSH1 0x1 PUSH1 0xA0 SHL SUB AND SWAP1 PUSH2 0x4741 PUSH8 0xDE0B6B3A7640000 DUP4 BALANCE DIV PUSH2 0x4C60 JUMP JUMPDEST SWAP1 PUSH1 0x40 MLOAD SWAP15 DUP16 SWAP3 DUP4 SWAP3 DUP3 DUP5 ADD SWAP8 DUP9 SWAP2 MLOAD DUP1 SWAP3 PUSH2 0x475C SWAP3 PUSH2 0x147B JUMP JUMPDEST DUP4 ADD DUP3 DUP2 ADD PUSH32 0x41667465722047657474696E67205061796D656E742042616C616E63653A0000 SWAP1 MSTORE DUP2 MLOAD SWAP2 DUP3 DUP5 PUSH1 0x3E DUP5 ADD SWAP3 ADD SWAP2 PUSH2 0x4799 SWAP3 PUSH2 0x147B JUMP JUMPDEST ADD ADD PUSH1 0x5 PUSH1 0xF9 SHL PUSH1 0x1E DUP3 ADD MSTORE SUB PUSH1 0x1E ADD PUSH1 0x1E NOT DUP2 ADD DUP3 MSTORE PUSH1 0x1 ADD PUSH2 0x47BC SWAP2 PUSH2 0x12A9 JUMP JUMPDEST BALANCE SWAP1 PUSH2 0x47C7 SWAP2 PUSH2 0x183D JUMP JUMPDEST PUSH8 0xDE0B6B3A7640000 SWAP1 DIV SWAP11 DUP3 PUSH2 0x47DD DUP14 PUSH2 0x4C60 JUMP JUMPDEST PUSH1 0x40 MLOAD SWAP5 DUP6 SWAP4 DUP2 DUP6 ADD SWAP6 DUP7 SWAP2 MLOAD DUP1 SWAP3 PUSH2 0x47F5 SWAP3 PUSH2 0x147B JUMP JUMPDEST DUP5 ADD ADD PUSH2 0x4801 SWAP1 PUSH2 0x184A JUMP JUMPDEST DUP2 DUP2 SWAP3 MLOAD SWAP4 DUP5 SWAP2 ADD SWAP2 PUSH2 0x4813 SWAP3 PUSH2 0x147B JUMP JUMPDEST ADD PUSH1 0x5 PUSH1 0xF9 SHL DUP2 MSTORE SUB PUSH1 0x1E NOT DUP2 ADD DUP4 MSTORE PUSH1 0x1 ADD PUSH2 0x4830 SWAP1 DUP4 PUSH2 0x12A9 JUMP JUMPDEST DUP2 SWAP11 ISZERO PUSH2 0x4AA2 JUMPI JUMPDEST POP POP PUSH1 0xF DUP3 ADD SLOAD SWAP1 DUP2 DUP1 DIV PUSH1 0x1 EQ DUP3 ISZERO OR ISZERO PUSH2 0x5FA JUMPI PUSH1 0xA DUP6 SWAP3 DIV PUSH8 0xDE0B6B3A7640000 SWAP1 DIV PUSH2 0x4867 SWAP1 PUSH2 0x4C60 JUMP JUMPDEST SWAP8 DUP8 PUSH1 0x40 MLOAD SWAP10 DUP11 SWAP3 DUP3 DUP1 DUP6 ADD SWAP15 DUP16 SWAP1 DUP1 MLOAD SWAP3 DUP4 SWAP2 ADD SWAP2 PUSH2 0x4886 SWAP3 PUSH2 0x147B JUMP JUMPDEST DUP5 ADD SWAP1 DUP4 DUP3 ADD PUSH32 0x313025206F6620626174746C6520666565732072656D61696E73206261636B20 SWAP1 MSTORE PUSH1 0x40 DUP3 ADD PUSH32 0x696E2074686520636F6E747261637420617320636F6E74726163742066756E64 SWAP1 MSTORE PUSH1 0x5 PUSH1 0xF9 SHL SWAP1 DUP3 ADD MSTORE PUSH1 0x61 DUP2 ADD PUSH22 0x1898129037B3103130BA3A3632903332B2B99034B99D PUSH1 0x51 SHL SWAP1 MSTORE DUP2 MLOAD SWAP2 DUP3 DUP5 PUSH1 0x77 DUP5 ADD SWAP3 ADD SWAP2 PUSH2 0x4914 SWAP3 PUSH2 0x147B JUMP JUMPDEST ADD ADD PUSH1 0x5 PUSH1 0xF9 SHL PUSH1 0x57 DUP3 ADD MSTORE SUB PUSH1 0x57 ADD PUSH1 0x1E NOT DUP2 ADD DUP10 MSTORE PUSH1 0x1 ADD PUSH2 0x4938 SWAP1 DUP10 PUSH2 0x12A9 JUMP JUMPDEST DUP2 PUSH1 0x0 MSTORE PUSH1 0x2 DUP8 MSTORE PUSH1 0x40 PUSH1 0x0 KECCAK256 PUSH1 0xD ADD PUSH1 0xFF NOT DUP2 SLOAD AND SWAP1 SSTORE PUSH1 0x1 PUSH1 0xA0 SHL PUSH1 0x1 SWAP1 SUB SWAP1 SLOAD AND SWAP3 DUP2 PUSH1 0x40 MLOAD DUP9 DUP7 DUP3 MSTORE PUSH1 0x0 DUP1 MLOAD PUSH1 0x20 PUSH2 0x4ED4 DUP4 CODECOPY DUP2 MLOAD SWAP2 MSTORE SWAP2 LOG2 SLOAD PUSH1 0x40 MLOAD PUSH1 0x1 PUSH1 0x1 PUSH1 0xA0 SHL SUB SWAP1 SWAP2 AND DUP2 MSTORE PUSH1 0x0 DUP1 MLOAD PUSH1 0x20 PUSH2 0x4ED4 DUP4 CODECOPY DUP2 MLOAD SWAP2 MSTORE SWAP1 DUP8 SWAP1 LOG2 DUP3 PUSH1 0x40 MLOAD DUP1 PUSH1 0x9 DUP5 ADD PUSH2 0x49AE SWAP1 DUP7 DUP4 PUSH2 0x1885 JUMP JUMPDEST SUB PUSH1 0x0 DUP1 MLOAD PUSH1 0x20 PUSH2 0x4E94 DUP4 CODECOPY DUP2 MLOAD SWAP2 MSTORE SWAP2 LOG2 PUSH1 0x40 MLOAD SWAP2 PUSH1 0xA DUP4 SWAP3 ADD PUSH2 0x49D3 SWAP2 DUP4 PUSH2 0x18D1 JUMP JUMPDEST SUB PUSH1 0x0 DUP1 MLOAD PUSH1 0x20 PUSH2 0x4E94 DUP4 CODECOPY DUP2 MLOAD SWAP2 MSTORE SWAP2 LOG2 DUP2 PUSH2 0x49F9 PUSH8 0xDE0B6B3A7640000 SELFBALANCE DIV PUSH2 0x4C60 JUMP JUMPDEST SWAP2 SELFBALANCE PUSH2 0x4A04 SWAP2 PUSH2 0x183D JUMP JUMPDEST PUSH8 0xDE0B6B3A7640000 SWAP1 DIV PUSH2 0x4A18 SWAP1 PUSH2 0x4C60 JUMP JUMPDEST SWAP2 DUP2 PUSH1 0x40 MLOAD SWAP8 DUP9 SWAP7 MLOAD SWAP1 DUP2 DUP4 DUP10 ADD PUSH2 0x4A2F SWAP3 PUSH2 0x147B JUMP JUMPDEST DUP7 ADD ADD PUSH2 0x4A3B SWAP1 PUSH2 0x1918 JUMP JUMPDEST DUP2 DUP2 SWAP3 MLOAD SWAP4 DUP5 SWAP2 ADD SWAP2 PUSH2 0x4A4D SWAP3 PUSH2 0x147B JUMP JUMPDEST ADD SWAP1 PUSH1 0x5 PUSH1 0xF9 SHL DUP3 MSTORE PUSH1 0x1 DUP3 ADD PUSH1 0x0 DUP1 MLOAD PUSH1 0x20 PUSH2 0x4EB4 DUP4 CODECOPY DUP2 MLOAD SWAP2 MSTORE SWAP1 MSTORE DUP1 MLOAD DUP1 SWAP4 PUSH1 0x21 DUP5 ADD SWAP3 ADD SWAP2 PUSH2 0x4A7F SWAP3 PUSH2 0x147B JUMP JUMPDEST ADD PUSH1 0x5 PUSH1 0xF9 SHL PUSH1 0x21 DUP3 ADD MSTORE SUB PUSH1 0x21 ADD PUSH1 0x1E NOT DUP2 ADD DUP4 MSTORE PUSH1 0x1 ADD PUSH2 0x3FFC SWAP1 DUP4 PUSH2 0x12A9 JUMP JUMPDEST PUSH2 0x26AF SWAP3 SWAP11 POP SWAP1 PUSH2 0x53B PUSH2 0x26EB DUP10 PUSH2 0x4AC6 SWAP5 PUSH1 0x40 MLOAD SWAP7 DUP8 SWAP6 MLOAD DUP1 SWAP3 DUP5 DUP9 ADD SWAP1 PUSH2 0x147B JUMP JUMPDEST SWAP8 CODESIZE DUP1 PUSH2 0x4838 JUMP JUMPDEST POP PUSH2 0x8FC PUSH2 0x4715 JUMP JUMPDEST PUSH2 0x26AF SWAP4 SWAP6 POP PUSH2 0x26EB PUSH2 0x4AFB SWAP4 SWAP3 PUSH2 0x53B SWAP3 PUSH1 0x40 MLOAD SWAP7 DUP8 SWAP6 MLOAD DUP1 SWAP3 DUP5 DUP9 ADD SWAP1 PUSH2 0x147B JUMP JUMPDEST SWAP2 CODESIZE DUP10 DUP2 PUSH2 0x45CD JUMP JUMPDEST POP PUSH2 0x8FC PUSH2 0x44A9 JUMP JUMPDEST PUSH2 0x26AF SWAP3 SWAP7 POP SWAP1 PUSH2 0x53B PUSH2 0x26EB DUP6 PUSH2 0x4B31 SWAP5 PUSH1 0x40 MLOAD SWAP7 DUP8 SWAP6 MLOAD DUP1 SWAP3 DUP5 DUP9 ADD SWAP1 PUSH2 0x147B JUMP JUMPDEST SWAP4 CODESIZE DUP1 PUSH2 0x433D JUMP JUMPDEST POP PUSH2 0x8FC PUSH2 0x421C JUMP JUMPDEST PUSH1 0x40 MLOAD PUSH3 0x461BCD PUSH1 0xE5 SHL DUP2 MSTORE PUSH1 0x4 DUP2 ADD DUP10 SWAP1 MSTORE PUSH1 0x14 PUSH1 0x24 DUP3 ADD MSTORE PUSH20 0x10985D1D1B1948185B1C9958591E48195B991959 PUSH1 0x62 SHL PUSH1 0x44 DUP3 ADD MSTORE PUSH1 0x64 SWAP1 REVERT JUMPDEST POP PUSH2 0x1C24 PUSH1 0x1 PUSH1 0x15 PUSH1 0x40 MLOAD PUSH2 0x4B94 PUSH1 0x40 DUP3 PUSH2 0x12A9 JUMP JUMPDEST PUSH1 0x5 DUP2 MSTORE PUSH5 0x66616C7365 PUSH1 0xD8 SHL DUP14 DUP3 ADD MSTORE SWAP6 PUSH2 0x1BBE JUMP JUMPDEST POP PUSH1 0x1 SLOAD DUP7 GT ISZERO PUSH2 0x1B6D JUMP JUMPDEST ISZERO PUSH2 0x4BBE JUMPI JUMP JUMPDEST PUSH1 0x40 MLOAD PUSH3 0x461BCD PUSH1 0xE5 SHL DUP2 MSTORE PUSH1 0x20 PUSH1 0x4 DUP3 ADD MSTORE PUSH1 0xE PUSH1 0x24 DUP3 ADD MSTORE PUSH14 0x139BDD08185D5D1A1BDC9A5E9959 PUSH1 0x92 SHL PUSH1 0x44 DUP3 ADD MSTORE PUSH1 0x64 SWAP1 REVERT JUMPDEST PUSH2 0x4C24 PUSH2 0x4C38 PUSH1 0x0 SWAP4 SWAP3 DUP5 SWAP4 PUSH1 0x40 MLOAD SWAP4 DUP5 SWAP3 PUSH4 0x2D839CB3 PUSH1 0xE2 SHL PUSH1 0x20 DUP6 ADD MSTORE PUSH1 0x40 PUSH1 0x24 DUP6 ADD MSTORE PUSH1 0x64 DUP5 ADD SWAP1 PUSH2 0x149E JUMP JUMPDEST SWAP1 PUSH1 0x44 DUP4 ADD MSTORE SUB PUSH1 0x1F NOT DUP2 ADD DUP4 MSTORE DUP3 PUSH2 0x12A9 JUMP JUMPDEST PUSH1 0x20 DUP2 MLOAD SWAP2 ADD PUSH11 0x636F6E736F6C652E6C6F67 GAS STATICCALL POP JUMP JUMPDEST SWAP1 DUP2 MLOAD DUP2 LT ISZERO PUSH2 0x1772 JUMPI ADD PUSH1 0x20 ADD SWAP1 JUMP JUMPDEST DUP1 ISZERO PUSH2 0x4D01 JUMPI DUP1 DUP2 PUSH1 0x0 SWAP3 JUMPDEST PUSH2 0x4CED JUMPI POP PUSH2 0x4C7A DUP3 PUSH2 0x12CB JUMP JUMPDEST SWAP2 PUSH2 0x4C88 PUSH1 0x40 MLOAD SWAP4 DUP5 PUSH2 0x12A9 JUMP JUMPDEST DUP1 DUP4 MSTORE PUSH1 0x1F NOT PUSH2 0x4C97 DUP3 PUSH2 0x12CB JUMP JUMPDEST ADD CALLDATASIZE PUSH1 0x20 DUP6 ADD CALLDATACOPY DUP2 JUMPDEST PUSH2 0x4CA9 JUMPI POP POP SWAP1 JUMP JUMPDEST PUSH1 0xA DUP3 MOD PUSH1 0x30 ADD SWAP2 DUP3 PUSH1 0x30 GT PUSH2 0x5FA JUMPI DUP2 ISZERO PUSH2 0x5FA JUMPI PUSH1 0x0 NOT SWAP1 SWAP2 ADD SWAP2 PUSH1 0xA SWAP2 SWAP1 PUSH1 0xF8 SHL PUSH1 0x1 PUSH1 0x1 PUSH1 0xF8 SHL SUB NOT AND PUSH1 0x0 BYTE PUSH2 0x4CE4 DUP5 DUP7 PUSH2 0x4C4F JUMP JUMPDEST MSTORE8 DIV SWAP1 DUP2 PUSH2 0x4CA0 JUMP JUMPDEST SWAP2 PUSH2 0x4CF9 PUSH1 0xA SWAP2 PUSH2 0x154B JUMP JUMPDEST SWAP3 DIV DUP1 PUSH2 0x4C6C JUMP JUMPDEST POP PUSH1 0x40 MLOAD PUSH2 0x4D10 PUSH1 0x40 DUP3 PUSH2 0x12A9 JUMP JUMPDEST PUSH1 0x1 DUP2 MSTORE PUSH1 0x3 PUSH1 0xFC SHL PUSH1 0x20 DUP3 ADD MSTORE SWAP1 JUMP JUMPDEST PUSH1 0x1 DUP1 PUSH1 0xA0 SHL SUB AND PUSH1 0x40 DUP1 MLOAD SWAP1 PUSH2 0x4D38 DUP2 DUP4 PUSH2 0x12A9 JUMP JUMPDEST PUSH1 0x10 DUP3 MSTORE PUSH16 0x181899199A1A9B1B9C1CB0B131B232B3 PUSH1 0x81 SHL PUSH1 0x20 DUP4 ADD MSTORE MLOAD SWAP2 PUSH2 0x4D62 PUSH1 0x60 DUP5 PUSH2 0x12A9 JUMP JUMPDEST PUSH1 0x2A DUP4 MSTORE PUSH1 0x20 DUP4 ADD PUSH1 0x40 CALLDATASIZE DUP3 CALLDATACOPY DUP4 MLOAD ISZERO PUSH2 0x1772 JUMPI PUSH1 0x30 SWAP1 MSTORE8 DUP3 MLOAD PUSH1 0x1 LT ISZERO PUSH2 0x1772 JUMPI PUSH1 0x78 PUSH1 0x21 DUP5 ADD MSTORE8 PUSH1 0x0 JUMPDEST PUSH1 0x14 DUP2 LT PUSH2 0x4D9C JUMPI POP POP POP SWAP1 JUMP JUMPDEST PUSH1 0xC DUP2 ADD DUP1 DUP3 GT PUSH2 0x5FA JUMPI PUSH1 0x20 DUP2 LT ISZERO PUSH2 0x1772 JUMPI DUP3 SWAP1 BYTE PUSH1 0x1 PUSH1 0x1 PUSH1 0xF8 SHL SUB NOT PUSH2 0x4DCD PUSH1 0x4 DUP4 SWAP1 SHR PUSH1 0xF AND DUP7 PUSH2 0x4C4F JUMP JUMPDEST MLOAD AND DUP3 PUSH1 0x1 SHL SWAP1 DUP4 DUP3 DIV PUSH1 0x2 EQ DUP5 ISZERO OR ISZERO PUSH2 0x5FA JUMPI DUP2 PUSH1 0x2 ADD SWAP1 DUP2 PUSH1 0x2 GT PUSH2 0x5FA JUMPI PUSH2 0x4DFD SWAP1 PUSH1 0x0 BYTE SWAP2 DUP9 PUSH2 0x4C4F JUMP JUMPDEST MSTORE8 PUSH1 0x0 SWAP2 PUSH1 0x1 PUSH1 0x1 PUSH1 0xF8 SHL SUB NOT SWAP1 PUSH2 0x4E18 SWAP1 PUSH1 0xF AND DUP8 PUSH2 0x4C4F JUMP JUMPDEST MLOAD AND SWAP1 PUSH1 0x3 ADD SWAP2 DUP3 PUSH1 0x3 GT PUSH2 0x4E3F JUMPI PUSH1 0x1 SWAP4 SWAP3 SWAP2 PUSH2 0x4E38 SWAP2 BYTE SWAP2 DUP8 PUSH2 0x4C4F JUMP JUMPDEST MSTORE8 ADD PUSH2 0x4D8E JUMP JUMPDEST PUSH4 0x4E487B71 PUSH1 0xE0 SHL DUP2 MSTORE PUSH1 0x11 PUSH1 0x4 MSTORE PUSH1 0x24 SWAP1 REVERT INVALID JUMPI PUSH10 0x6E6E657220566F746572 KECCAK256 PUSH3 0x616C61 PUSH15 0x63652061667465723A200000000054 PUSH19 0x616E7366657272696E67207265776172642074 PUSH16 0x20547261636B204372652612C6ADACF4 SIGNEXTEND RETURNDATASIZE 0x23 0xAF SWAP16 SLT 0x26 PUSH22 0x592F3CD72A91A36328D69CD2587315AFD78B44696666 PUSH6 0x72656E636520 PUSH10 0x6E20636F6E7472616374 KECCAK256 TIMESTAMP PUSH2 0x6C61 PUSH15 0x6365203A31441BDEE20D4F2B04147C BLOBBASEFEE 0xDC DUP13 0xB7 SWAP9 PUSH29 0xD9A676C7774DFC5540A7897D0781F8416D6F756E742072656369657665 PUSH5 0x2062792074 PUSH9 0x6520766F746572204E PUSH16 0x3A446966666572656E636520696E2076 PUSH16 0x74657227732062616C616E63653A2000 LOG2 PUSH5 0x6970667358 0x22 SLT KECCAK256 BLOBHASH PUSH16 0x4FC12F47438B6998BDE10C23C62C7657 EQ EXTCODEHASH SGT DUP15 SWAP2 PUSH26 0xBC1B3733FCEC094664736F6C634300081C003300000000000000 "},"methodIdentifiers":{"MAX_BATTLES()":"6563f0f6","MAX_BATTLE_DURATION()":"59058d8a","STARTING_FEES()":"41d2d274","battleCount()":"e00b6363","battleVoters(uint256,address)":"20c09728","battles(uint256)":"606d2e96","closeBattle(uint256)":"769a9f13","createBattle(string,string,address,address)":"1f662193","getBalance()":"12065fe0","getBattleDetails(uint256)":"f0e26f80","getBattleVotes(uint256)":"59188644","getCurrentTime()":"29cb924d","getSpecificTrackVoters(uint256,uint256)":"2ddb2fb2","getTotalVoters(uint256)":"43d3a4c1","toggleOracleTime(bool)":"e54f0933","transferFundsFromContractToOwner(uint256,address)":"ac96cb00","vote(uint256,uint256,address)":"50d91583","votersList(uint256)":"72ce73ab"}}}}}